{
  "contractName": "Cero",
  "abi": [
    {
      "inputs": [],
      "stateMutability": "nonpayable",
      "type": "constructor"
    },
    {
      "anonymous": false,
      "inputs": [
        {
          "indexed": true,
          "internalType": "address",
          "name": "owner",
          "type": "address"
        },
        {
          "indexed": true,
          "internalType": "address",
          "name": "approved",
          "type": "address"
        },
        {
          "indexed": true,
          "internalType": "uint256",
          "name": "tokenId",
          "type": "uint256"
        }
      ],
      "name": "Approval",
      "type": "event"
    },
    {
      "anonymous": false,
      "inputs": [
        {
          "indexed": true,
          "internalType": "address",
          "name": "owner",
          "type": "address"
        },
        {
          "indexed": true,
          "internalType": "address",
          "name": "operator",
          "type": "address"
        },
        {
          "indexed": false,
          "internalType": "bool",
          "name": "approved",
          "type": "bool"
        }
      ],
      "name": "ApprovalForAll",
      "type": "event"
    },
    {
      "anonymous": false,
      "inputs": [
        {
          "indexed": false,
          "internalType": "address",
          "name": "recipient",
          "type": "address"
        },
        {
          "indexed": false,
          "internalType": "uint256",
          "name": "value",
          "type": "uint256"
        }
      ],
      "name": "BalanceWithdrawed",
      "type": "event"
    },
    {
      "anonymous": false,
      "inputs": [
        {
          "indexed": false,
          "internalType": "address",
          "name": "minter",
          "type": "address"
        },
        {
          "indexed": false,
          "internalType": "uint256",
          "name": "amount",
          "type": "uint256"
        }
      ],
      "name": "Minted",
      "type": "event"
    },
    {
      "anonymous": false,
      "inputs": [
        {
          "indexed": true,
          "internalType": "address",
          "name": "previousOwner",
          "type": "address"
        },
        {
          "indexed": true,
          "internalType": "address",
          "name": "newOwner",
          "type": "address"
        }
      ],
      "name": "OwnershipTransferred",
      "type": "event"
    },
    {
      "anonymous": false,
      "inputs": [
        {
          "indexed": true,
          "internalType": "address",
          "name": "from",
          "type": "address"
        },
        {
          "indexed": true,
          "internalType": "address",
          "name": "to",
          "type": "address"
        },
        {
          "indexed": true,
          "internalType": "uint256",
          "name": "tokenId",
          "type": "uint256"
        }
      ],
      "name": "Transfer",
      "type": "event"
    },
    {
      "inputs": [],
      "name": "MAX_CEROS",
      "outputs": [
        {
          "internalType": "uint256",
          "name": "",
          "type": "uint256"
        }
      ],
      "stateMutability": "view",
      "type": "function"
    },
    {
      "inputs": [
        {
          "internalType": "address",
          "name": "to",
          "type": "address"
        },
        {
          "internalType": "uint256",
          "name": "tokenId",
          "type": "uint256"
        }
      ],
      "name": "approve",
      "outputs": [],
      "stateMutability": "nonpayable",
      "type": "function"
    },
    {
      "inputs": [],
      "name": "availableTokensMint",
      "outputs": [
        {
          "internalType": "uint256",
          "name": "",
          "type": "uint256"
        }
      ],
      "stateMutability": "view",
      "type": "function"
    },
    {
      "inputs": [
        {
          "internalType": "address",
          "name": "owner",
          "type": "address"
        }
      ],
      "name": "balanceOf",
      "outputs": [
        {
          "internalType": "uint256",
          "name": "",
          "type": "uint256"
        }
      ],
      "stateMutability": "view",
      "type": "function"
    },
    {
      "inputs": [
        {
          "internalType": "uint256",
          "name": "tokenId",
          "type": "uint256"
        }
      ],
      "name": "getApproved",
      "outputs": [
        {
          "internalType": "address",
          "name": "",
          "type": "address"
        }
      ],
      "stateMutability": "view",
      "type": "function"
    },
    {
      "inputs": [
        {
          "internalType": "address",
          "name": "owner",
          "type": "address"
        },
        {
          "internalType": "address",
          "name": "operator",
          "type": "address"
        }
      ],
      "name": "isApprovedForAll",
      "outputs": [
        {
          "internalType": "bool",
          "name": "",
          "type": "bool"
        }
      ],
      "stateMutability": "view",
      "type": "function"
    },
    {
      "inputs": [],
      "name": "name",
      "outputs": [
        {
          "internalType": "string",
          "name": "",
          "type": "string"
        }
      ],
      "stateMutability": "view",
      "type": "function"
    },
    {
      "inputs": [],
      "name": "owner",
      "outputs": [
        {
          "internalType": "address",
          "name": "",
          "type": "address"
        }
      ],
      "stateMutability": "view",
      "type": "function"
    },
    {
      "inputs": [
        {
          "internalType": "uint256",
          "name": "tokenId",
          "type": "uint256"
        }
      ],
      "name": "ownerOf",
      "outputs": [
        {
          "internalType": "address",
          "name": "",
          "type": "address"
        }
      ],
      "stateMutability": "view",
      "type": "function"
    },
    {
      "inputs": [],
      "name": "renounceOwnership",
      "outputs": [],
      "stateMutability": "nonpayable",
      "type": "function"
    },
    {
      "inputs": [
        {
          "internalType": "address",
          "name": "from",
          "type": "address"
        },
        {
          "internalType": "address",
          "name": "to",
          "type": "address"
        },
        {
          "internalType": "uint256",
          "name": "tokenId",
          "type": "uint256"
        }
      ],
      "name": "safeTransferFrom",
      "outputs": [],
      "stateMutability": "nonpayable",
      "type": "function"
    },
    {
      "inputs": [
        {
          "internalType": "address",
          "name": "from",
          "type": "address"
        },
        {
          "internalType": "address",
          "name": "to",
          "type": "address"
        },
        {
          "internalType": "uint256",
          "name": "tokenId",
          "type": "uint256"
        },
        {
          "internalType": "bytes",
          "name": "_data",
          "type": "bytes"
        }
      ],
      "name": "safeTransferFrom",
      "outputs": [],
      "stateMutability": "nonpayable",
      "type": "function"
    },
    {
      "inputs": [
        {
          "internalType": "address",
          "name": "operator",
          "type": "address"
        },
        {
          "internalType": "bool",
          "name": "approved",
          "type": "bool"
        }
      ],
      "name": "setApprovalForAll",
      "outputs": [],
      "stateMutability": "nonpayable",
      "type": "function"
    },
    {
      "inputs": [],
      "name": "symbol",
      "outputs": [
        {
          "internalType": "string",
          "name": "",
          "type": "string"
        }
      ],
      "stateMutability": "view",
      "type": "function"
    },
    {
      "inputs": [
        {
          "internalType": "uint256",
          "name": "index",
          "type": "uint256"
        }
      ],
      "name": "tokenByIndex",
      "outputs": [
        {
          "internalType": "uint256",
          "name": "",
          "type": "uint256"
        }
      ],
      "stateMutability": "view",
      "type": "function"
    },
    {
      "inputs": [
        {
          "internalType": "address",
          "name": "owner",
          "type": "address"
        },
        {
          "internalType": "uint256",
          "name": "index",
          "type": "uint256"
        }
      ],
      "name": "tokenOfOwnerByIndex",
      "outputs": [
        {
          "internalType": "uint256",
          "name": "",
          "type": "uint256"
        }
      ],
      "stateMutability": "view",
      "type": "function"
    },
    {
      "inputs": [],
      "name": "totalMinted",
      "outputs": [
        {
          "internalType": "uint256",
          "name": "",
          "type": "uint256"
        }
      ],
      "stateMutability": "view",
      "type": "function"
    },
    {
      "inputs": [],
      "name": "totalSupply",
      "outputs": [
        {
          "internalType": "uint256",
          "name": "",
          "type": "uint256"
        }
      ],
      "stateMutability": "view",
      "type": "function"
    },
    {
      "inputs": [
        {
          "internalType": "address",
          "name": "from",
          "type": "address"
        },
        {
          "internalType": "address",
          "name": "to",
          "type": "address"
        },
        {
          "internalType": "uint256",
          "name": "tokenId",
          "type": "uint256"
        }
      ],
      "name": "transferFrom",
      "outputs": [],
      "stateMutability": "nonpayable",
      "type": "function"
    },
    {
      "inputs": [
        {
          "internalType": "address",
          "name": "newOwner",
          "type": "address"
        }
      ],
      "name": "transferOwnership",
      "outputs": [],
      "stateMutability": "nonpayable",
      "type": "function"
    },
    {
      "inputs": [
        {
          "internalType": "uint256",
          "name": "__price",
          "type": "uint256"
        }
      ],
      "name": "updateMintPrice",
      "outputs": [],
      "stateMutability": "nonpayable",
      "type": "function"
    },
    {
      "inputs": [
        {
          "internalType": "uint256",
          "name": "__quantity",
          "type": "uint256"
        }
      ],
      "name": "addQuantityToMint",
      "outputs": [],
      "stateMutability": "nonpayable",
      "type": "function"
    },
    {
      "inputs": [
        {
          "internalType": "address",
          "name": "__owner",
          "type": "address"
        }
      ],
      "name": "updateOwner",
      "outputs": [],
      "stateMutability": "nonpayable",
      "type": "function"
    },
    {
      "inputs": [
        {
          "internalType": "uint256",
          "name": "tokenId",
          "type": "uint256"
        }
      ],
      "name": "tokenURI",
      "outputs": [
        {
          "internalType": "string",
          "name": "",
          "type": "string"
        }
      ],
      "stateMutability": "view",
      "type": "function"
    },
    {
      "inputs": [],
      "name": "baseTokenURI",
      "outputs": [
        {
          "internalType": "string",
          "name": "",
          "type": "string"
        }
      ],
      "stateMutability": "view",
      "type": "function"
    },
    {
      "inputs": [
        {
          "internalType": "string",
          "name": "tokenUriBase_",
          "type": "string"
        }
      ],
      "name": "setTokenURI",
      "outputs": [],
      "stateMutability": "nonpayable",
      "type": "function"
    },
    {
      "inputs": [],
      "name": "setStateToSetup",
      "outputs": [],
      "stateMutability": "nonpayable",
      "type": "function"
    },
    {
      "inputs": [],
      "name": "startPresale",
      "outputs": [],
      "stateMutability": "nonpayable",
      "type": "function"
    },
    {
      "inputs": [],
      "name": "setStateToSale",
      "outputs": [],
      "stateMutability": "nonpayable",
      "type": "function"
    },
    {
      "inputs": [],
      "name": "setStateToSoldOut",
      "outputs": [],
      "stateMutability": "nonpayable",
      "type": "function"
    },
    {
      "inputs": [
        {
          "internalType": "address[]",
          "name": "_addresses",
          "type": "address[]"
        },
        {
          "internalType": "uint256",
          "name": "quantity",
          "type": "uint256"
        }
      ],
      "name": "addToPresaleList",
      "outputs": [],
      "stateMutability": "nonpayable",
      "type": "function"
    },
    {
      "inputs": [
        {
          "internalType": "address",
          "name": "_address",
          "type": "address"
        }
      ],
      "name": "isOnPresaleList",
      "outputs": [
        {
          "internalType": "bool",
          "name": "",
          "type": "bool"
        }
      ],
      "stateMutability": "view",
      "type": "function"
    },
    {
      "inputs": [
        {
          "internalType": "address[]",
          "name": "_addresses",
          "type": "address[]"
        }
      ],
      "name": "removeFromPresaleList",
      "outputs": [],
      "stateMutability": "nonpayable",
      "type": "function"
    },
    {
      "inputs": [
        {
          "internalType": "address[]",
          "name": "_addresses",
          "type": "address[]"
        },
        {
          "internalType": "uint256",
          "name": "quantity",
          "type": "uint256"
        }
      ],
      "name": "addAirdrop",
      "outputs": [],
      "stateMutability": "nonpayable",
      "type": "function"
    },
    {
      "inputs": [
        {
          "internalType": "address",
          "name": "_address",
          "type": "address"
        }
      ],
      "name": "hasAirdrop",
      "outputs": [
        {
          "internalType": "bool",
          "name": "",
          "type": "bool"
        }
      ],
      "stateMutability": "view",
      "type": "function"
    },
    {
      "inputs": [
        {
          "internalType": "address[]",
          "name": "_addresses",
          "type": "address[]"
        }
      ],
      "name": "removeAirdrop",
      "outputs": [],
      "stateMutability": "nonpayable",
      "type": "function"
    },
    {
      "inputs": [],
      "name": "claimAirdrop",
      "outputs": [],
      "stateMutability": "nonpayable",
      "type": "function"
    },
    {
      "inputs": [],
      "name": "presaleMint",
      "outputs": [],
      "stateMutability": "payable",
      "type": "function"
    },
    {
      "inputs": [],
      "name": "ownerMint",
      "outputs": [],
      "stateMutability": "payable",
      "type": "function"
    },
    {
      "inputs": [],
      "name": "saleMint",
      "outputs": [],
      "stateMutability": "payable",
      "type": "function"
    },
    {
      "inputs": [
        {
          "internalType": "address",
          "name": "recipient",
          "type": "address"
        }
      ],
      "name": "withdrawAll",
      "outputs": [],
      "stateMutability": "nonpayable",
      "type": "function"
    },
    {
      "inputs": [
        {
          "internalType": "address payable",
          "name": "_to",
          "type": "address"
        }
      ],
      "name": "withdrawAllViaCall",
      "outputs": [],
      "stateMutability": "nonpayable",
      "type": "function"
    },
    {
      "inputs": [
        {
          "internalType": "bytes4",
          "name": "interfaceId",
          "type": "bytes4"
        }
      ],
      "name": "supportsInterface",
      "outputs": [
        {
          "internalType": "bool",
          "name": "",
          "type": "bool"
        }
      ],
      "stateMutability": "view",
      "type": "function"
    }
  ],
  "bytecode": "0x60806040526010600c55600c54600a6200001a919062000480565b600d5566b1a2bc2ec50000601155600060125560006013553480156200003f57600080fd5b506040518060400160405280600881526020017f4365726f204e46540000000000000000000000000000000000000000000000008152506040518060400160405280600381526020017f43524f00000000000000000000000000000000000000000000000000000000008152508160009080519060200190620000c492919062000243565b508060019080519060200190620000dd92919062000243565b50505062000100620000f46200017560201b60201c565b6200017d60201b60201c565b33600f60016101000a81548173ffffffffffffffffffffffffffffffffffffffff021916908373ffffffffffffffffffffffffffffffffffffffff1602179055506000600f60006101000a81548160ff021916908360038111156200016a5762000169620004d1565b5b021790555062000565565b600033905090565b6000600b60009054906101000a900473ffffffffffffffffffffffffffffffffffffffff16905081600b60006101000a81548173ffffffffffffffffffffffffffffffffffffffff021916908373ffffffffffffffffffffffffffffffffffffffff1602179055508173ffffffffffffffffffffffffffffffffffffffff168173ffffffffffffffffffffffffffffffffffffffff167f8be0079c531659141344cd1fd0a4f28419497f9722a3daafe3b4186f6b6457e060405160405180910390a35050565b82805462000251906200052f565b90600052602060002090601f016020900481019282620002755760008555620002c1565b82601f106200029057805160ff1916838001178555620002c1565b82800160010185558215620002c1579182015b82811115620002c0578251825591602001919060010190620002a3565b5b509050620002d09190620002d4565b5090565b5b80821115620002ef576000816000905550600101620002d5565b5090565b7f4e487b7100000000000000000000000000000000000000000000000000000000600052601160045260246000fd5b60008160011c9050919050565b6000808291508390505b60018511156200038157808604811115620003595762000358620002f3565b5b6001851615620003695780820291505b8081029050620003798562000322565b945062000339565b94509492505050565b6000826200039c57600190506200046f565b81620003ac57600090506200046f565b8160018114620003c55760028114620003d05762000406565b60019150506200046f565b60ff841115620003e557620003e4620002f3565b5b8360020a915084821115620003ff57620003fe620002f3565b5b506200046f565b5060208310610133831016604e8410600b8410161715620004405782820a9050838111156200043a5762000439620002f3565b5b6200046f565b6200044f84848460016200032f565b92509050818404811115620004695762000468620002f3565b5b81810290505b9392505050565b6000819050919050565b60006200048d8262000476565b91506200049a8362000476565b9250620004c97fffffffffffffffffffffffffffffffffffffffffffffffffffffffffffffffff84846200038a565b905092915050565b7f4e487b7100000000000000000000000000000000000000000000000000000000600052602160045260246000fd5b7f4e487b7100000000000000000000000000000000000000000000000000000000600052602260045260246000fd5b600060028204905060018216806200054857607f821691505b602082108114156200055f576200055e62000500565b5b50919050565b61590880620005756000396000f3fe60806040526004361061025b5760003560e01c806370a0823111610144578063b7a72c5c116100b6578063dfee54871161007a578063dfee548714610867578063e0df5b6f14610871578063e985e9c51461089a578063f053d2c7146108d7578063f2fde38b14610900578063fa09e630146109295761025b565b8063b7a72c5c14610782578063b88d4fde14610799578063c87b56dd146107c2578063d547cfb7146107ff578063de00a68b1461082a5761025b565b8063a22cb46511610108578063a22cb465146106a7578063a2309ff8146106d0578063a905821a146106fb578063b12dc99114610724578063b179e0601461072e578063b2a71efd146107575761025b565b806370a08231146105d4578063715018a614610611578063880cdc31146106285780638da5cb5b1461065157806395d89b411461067c5761025b565b806323b872dd116101dd5780634f6ccce7116101a15780634f6ccce7146104d157806359533d6c1461050e5780635b88349d146105185780636352211e1461052f57806367cae0a81461056c5780636c4be791146105975761025b565b806323b872dd146103f05780632c664e7e146104195780632f745c591461044257806342842e0e1461047f57806343fa2ced146104a85761025b565b80630880c651116102245780630880c65114610345578063095ea7b31461035c57806316cb16eb1461038557806318160ddd146103ae57806323af8827146103d95761025b565b8062728e461461026057806301ffc9a71461028957806304c98b2b146102c657806306fdde03146102dd578063081812fc14610308575b600080fd5b34801561026c57600080fd5b5061028760048036038101906102829190613d25565b610952565b005b34801561029557600080fd5b506102b060048036038101906102ab9190613daa565b6109d8565b6040516102bd9190613df2565b60405180910390f35b3480156102d257600080fd5b506102db6109ea565b005b3480156102e957600080fd5b506102f2610a93565b6040516102ff9190613ea6565b60405180910390f35b34801561031457600080fd5b5061032f600480360381019061032a9190613d25565b610b25565b60405161033c9190613f09565b60405180910390f35b34801561035157600080fd5b5061035a610baa565b005b34801561036857600080fd5b50610383600480360381019061037e9190613f50565b610c53565b005b34801561039157600080fd5b506103ac60048036038101906103a79190613ff5565b610d6b565b005b3480156103ba57600080fd5b506103c3610f10565b6040516103d09190614051565b60405180910390f35b3480156103e557600080fd5b506103ee610f1d565b005b3480156103fc57600080fd5b506104176004803603810190610412919061406c565b610fc6565b005b34801561042557600080fd5b50610440600480360381019061043b9190613d25565b611026565b005b34801561044e57600080fd5b5061046960048036038101906104649190613f50565b6110ac565b6040516104769190614051565b60405180910390f35b34801561048b57600080fd5b506104a660048036038101906104a1919061406c565b611151565b005b3480156104b457600080fd5b506104cf60048036038101906104ca91906140bf565b611171565b005b3480156104dd57600080fd5b506104f860048036038101906104f39190613d25565b61138e565b6040516105059190614051565b60405180910390f35b6105166113ff565b005b34801561052457600080fd5b5061052d6115dc565b005b34801561053b57600080fd5b5061055660048036038101906105519190613d25565b611781565b6040516105639190613f09565b60405180910390f35b34801561057857600080fd5b50610581611833565b60405161058e9190614051565b60405180910390f35b3480156105a357600080fd5b506105be60048036038101906105b9919061411f565b611839565b6040516105cb9190613df2565b60405180910390f35b3480156105e057600080fd5b506105fb60048036038101906105f6919061411f565b611884565b6040516106089190614051565b60405180910390f35b34801561061d57600080fd5b5061062661193c565b005b34801561063457600080fd5b5061064f600480360381019061064a919061411f565b6119c4565b005b34801561065d57600080fd5b50610666611a84565b6040516106739190613f09565b60405180910390f35b34801561068857600080fd5b50610691611aae565b60405161069e9190613ea6565b60405180910390f35b3480156106b357600080fd5b506106ce60048036038101906106c99190614178565b611b40565b005b3480156106dc57600080fd5b506106e5611b56565b6040516106f29190614051565b60405180910390f35b34801561070757600080fd5b50610722600480360381019061071d91906141f6565b611b5c565b005b61072c611c91565b005b34801561073a57600080fd5b5061075560048036038101906107509190613ff5565b611dd2565b005b34801561076357600080fd5b5061076c611f77565b6040516107799190614051565b60405180910390f35b34801561078e57600080fd5b50610797611f7d565b005b3480156107a557600080fd5b506107c060048036038101906107bb9190614353565b612026565b005b3480156107ce57600080fd5b506107e960048036038101906107e49190613d25565b612088565b6040516107f69190613ea6565b60405180910390f35b34801561080b57600080fd5b506108146120c2565b6040516108219190613ea6565b60405180910390f35b34801561083657600080fd5b50610851600480360381019061084c919061411f565b612154565b60405161085e9190613df2565b60405180910390f35b61086f61219f565b005b34801561087d57600080fd5b5061089860048036038101906108939190614477565b612264565b005b3480156108a657600080fd5b506108c160048036038101906108bc91906144c0565b6122fa565b6040516108ce9190613df2565b60405180910390f35b3480156108e357600080fd5b506108fe60048036038101906108f991906140bf565b61238e565b005b34801561090c57600080fd5b506109276004803603810190610922919061411f565b6125ab565b005b34801561093557600080fd5b50610950600480360381019061094b919061411f565b6126a3565b005b61095a6127a8565b73ffffffffffffffffffffffffffffffffffffffff16610978611a84565b73ffffffffffffffffffffffffffffffffffffffff16146109ce576040517f08c379a00000000000000000000000000000000000000000000000000000000081526004016109c59061454c565b60405180910390fd5b8060118190555050565b60006109e3826127b0565b9050919050565b6109f26127a8565b73ffffffffffffffffffffffffffffffffffffffff16610a10611a84565b73ffffffffffffffffffffffffffffffffffffffff1614610a66576040517f08c379a0000000000000000000000000000000000000000000000000000000008152600401610a5d9061454c565b60405180910390fd5b6001600f60006101000a81548160ff02191690836003811115610a8c57610a8b61456c565b5b0217905550565b606060008054610aa2906145ca565b80601f0160208091040260200160405190810160405280929190818152602001828054610ace906145ca565b8015610b1b5780601f10610af057610100808354040283529160200191610b1b565b820191906000526020600020905b815481529060010190602001808311610afe57829003601f168201915b5050505050905090565b6000610b308261282a565b610b6f576040517f08c379a0000000000000000000000000000000000000000000000000000000008152600401610b669061466e565b60405180910390fd5b6004600083815260200190815260200160002060009054906101000a900473ffffffffffffffffffffffffffffffffffffffff169050919050565b610bb26127a8565b73ffffffffffffffffffffffffffffffffffffffff16610bd0611a84565b73ffffffffffffffffffffffffffffffffffffffff1614610c26576040517f08c379a0000000000000000000000000000000000000000000000000000000008152600401610c1d9061454c565b60405180910390fd5b6003600f60006101000a81548160ff02191690836003811115610c4c57610c4b61456c565b5b0217905550565b6000610c5e82611781565b90508073ffffffffffffffffffffffffffffffffffffffff168373ffffffffffffffffffffffffffffffffffffffff161415610ccf576040517f08c379a0000000000000000000000000000000000000000000000000000000008152600401610cc690614700565b60405180910390fd5b8073ffffffffffffffffffffffffffffffffffffffff16610cee6127a8565b73ffffffffffffffffffffffffffffffffffffffff161480610d1d5750610d1c81610d176127a8565b6122fa565b5b610d5c576040517f08c379a0000000000000000000000000000000000000000000000000000000008152600401610d5390614792565b60405180910390fd5b610d668383612896565b505050565b610d736127a8565b73ffffffffffffffffffffffffffffffffffffffff16610d91611a84565b73ffffffffffffffffffffffffffffffffffffffff1614610de7576040517f08c379a0000000000000000000000000000000000000000000000000000000008152600401610dde9061454c565b60405180910390fd5b60005b82829050811015610f0b57600073ffffffffffffffffffffffffffffffffffffffff16838383818110610e2057610e1f6147b2565b5b9050602002016020810190610e35919061411f565b73ffffffffffffffffffffffffffffffffffffffff161415610e8c576040517f08c379a0000000000000000000000000000000000000000000000000000000008152600401610e8390614853565b60405180910390fd5b600060166000858585818110610ea557610ea46147b2565b5b9050602002016020810190610eba919061411f565b73ffffffffffffffffffffffffffffffffffffffff1673ffffffffffffffffffffffffffffffffffffffff168152602001908152602001600020819055508080610f03906148a2565b915050610dea565b505050565b6000600880549050905090565b610f256127a8565b73ffffffffffffffffffffffffffffffffffffffff16610f43611a84565b73ffffffffffffffffffffffffffffffffffffffff1614610f99576040517f08c379a0000000000000000000000000000000000000000000000000000000008152600401610f909061454c565b60405180910390fd5b6000600f60006101000a81548160ff02191690836003811115610fbf57610fbe61456c565b5b0217905550565b610fd7610fd16127a8565b8261294f565b611016576040517f08c379a000000000000000000000000000000000000000000000000000000000815260040161100d9061495d565b60405180910390fd5b611021838383612a2d565b505050565b61102e6127a8565b73ffffffffffffffffffffffffffffffffffffffff1661104c611a84565b73ffffffffffffffffffffffffffffffffffffffff16146110a2576040517f08c379a00000000000000000000000000000000000000000000000000000000081526004016110999061454c565b60405180910390fd5b8060138190555050565b60006110b783611884565b82106110f8576040517f08c379a00000000000000000000000000000000000000000000000000000000081526004016110ef906149ef565b60405180910390fd5b600660008473ffffffffffffffffffffffffffffffffffffffff1673ffffffffffffffffffffffffffffffffffffffff168152602001908152602001600020600083815260200190815260200160002054905092915050565b61116c83838360405180602001604052806000815250612026565b505050565b6111796127a8565b73ffffffffffffffffffffffffffffffffffffffff16611197611a84565b73ffffffffffffffffffffffffffffffffffffffff16146111ed576040517f08c379a00000000000000000000000000000000000000000000000000000000081526004016111e49061454c565b60405180910390fd5b60005b8383905081101561138857600073ffffffffffffffffffffffffffffffffffffffff16848483818110611226576112256147b2565b5b905060200201602081019061123b919061411f565b73ffffffffffffffffffffffffffffffffffffffff161415611292576040517f08c379a000000000000000000000000000000000000000000000000000000000815260040161128990614a81565b60405180910390fd5b61130b82601560008787868181106112ad576112ac6147b2565b5b90506020020160208101906112c2919061411f565b73ffffffffffffffffffffffffffffffffffffffff1673ffffffffffffffffffffffffffffffffffffffff16815260200190815260200160002054612c8990919063ffffffff16565b60156000868685818110611322576113216147b2565b5b9050602002016020810190611337919061411f565b73ffffffffffffffffffffffffffffffffffffffff1673ffffffffffffffffffffffffffffffffffffffff168152602001908152602001600020819055508080611380906148a2565b9150506111f0565b50505050565b6000611398610f10565b82106113d9576040517f08c379a00000000000000000000000000000000000000000000000000000000081526004016113d090614b13565b60405180910390fd5b600882815481106113ed576113ec6147b2565b5b90600052602060002001549050919050565b600160038111156114135761141261456c565b5b600f60009054906101000a900460ff1660038111156114355761143461456c565b5b14611475576040517f08c379a000000000000000000000000000000000000000000000000000000000815260040161146c90614b7f565b60405180910390fd5b6000601560003373ffffffffffffffffffffffffffffffffffffffff1673ffffffffffffffffffffffffffffffffffffffff16815260200190815260200160002054116114f7576040517f08c379a00000000000000000000000000000000000000000000000000000000081526004016114ee90614c11565b60405180910390fd5b60115434101561153c576040517f08c379a000000000000000000000000000000000000000000000000000000000815260040161153390614c7d565b60405180910390fd5b611544612c9f565b6115976001601560003373ffffffffffffffffffffffffffffffffffffffff1673ffffffffffffffffffffffffffffffffffffffff16815260200190815260200160002054612e6690919063ffffffff16565b601560003373ffffffffffffffffffffffffffffffffffffffff1673ffffffffffffffffffffffffffffffffffffffff16815260200190815260200160002081905550565b6003808111156115ef576115ee61456c565b5b600f60009054906101000a900460ff1660038111156116115761161061456c565b5b1415611652576040517f08c379a000000000000000000000000000000000000000000000000000000000815260040161164990614ce9565b60405180910390fd5b6000601660003373ffffffffffffffffffffffffffffffffffffffff1673ffffffffffffffffffffffffffffffffffffffff16815260200190815260200160002054116116d4576040517f08c379a00000000000000000000000000000000000000000000000000000000081526004016116cb90614c11565b60405180910390fd5b60005b601660003373ffffffffffffffffffffffffffffffffffffffff1673ffffffffffffffffffffffffffffffffffffffff1681526020019081526020016000205481101561173957611726612c9f565b8080611731906148a2565b9150506116d7565b506000601660003373ffffffffffffffffffffffffffffffffffffffff1673ffffffffffffffffffffffffffffffffffffffff16815260200190815260200160002081905550565b6000806002600084815260200190815260200160002060009054906101000a900473ffffffffffffffffffffffffffffffffffffffff169050600073ffffffffffffffffffffffffffffffffffffffff168173ffffffffffffffffffffffffffffffffffffffff16141561182a576040517f08c379a000000000000000000000000000000000000000000000000000000000815260040161182190614d7b565b60405180910390fd5b80915050919050565b60135481565b600080601660008473ffffffffffffffffffffffffffffffffffffffff1673ffffffffffffffffffffffffffffffffffffffff16815260200190815260200160002054119050919050565b60008073ffffffffffffffffffffffffffffffffffffffff168273ffffffffffffffffffffffffffffffffffffffff1614156118f5576040517f08c379a00000000000000000000000000000000000000000000000000000000081526004016118ec90614e0d565b60405180910390fd5b600360008373ffffffffffffffffffffffffffffffffffffffff1673ffffffffffffffffffffffffffffffffffffffff168152602001908152602001600020549050919050565b6119446127a8565b73ffffffffffffffffffffffffffffffffffffffff16611962611a84565b73ffffffffffffffffffffffffffffffffffffffff16146119b8576040517f08c379a00000000000000000000000000000000000000000000000000000000081526004016119af9061454c565b60405180910390fd5b6119c26000612e7c565b565b6119cc6127a8565b73ffffffffffffffffffffffffffffffffffffffff166119ea611a84565b73ffffffffffffffffffffffffffffffffffffffff1614611a40576040517f08c379a0000000000000000000000000000000000000000000000000000000008152600401611a379061454c565b60405180910390fd5b80600f60016101000a81548173ffffffffffffffffffffffffffffffffffffffff021916908373ffffffffffffffffffffffffffffffffffffffff16021790555050565b6000600b60009054906101000a900473ffffffffffffffffffffffffffffffffffffffff16905090565b606060018054611abd906145ca565b80601f0160208091040260200160405190810160405280929190818152602001828054611ae9906145ca565b8015611b365780601f10611b0b57610100808354040283529160200191611b36565b820191906000526020600020905b815481529060010190602001808311611b1957829003601f168201915b5050505050905090565b611b52611b4b6127a8565b8383612f42565b5050565b60125481565b611b646127a8565b73ffffffffffffffffffffffffffffffffffffffff16611b82611a84565b73ffffffffffffffffffffffffffffffffffffffff1614611bd8576040517f08c379a0000000000000000000000000000000000000000000000000000000008152600401611bcf9061454c565b60405180910390fd5b60004790506000808373ffffffffffffffffffffffffffffffffffffffff1683604051611c0490614e5e565b60006040518083038185875af1925050503d8060008114611c41576040519150601f19603f3d011682016040523d82523d6000602084013e611c46565b606091505b509150915081611c8b576040517f08c379a0000000000000000000000000000000000000000000000000000000008152600401611c8290614ebf565b60405180910390fd5b50505050565b611c996127a8565b73ffffffffffffffffffffffffffffffffffffffff16611cb7611a84565b73ffffffffffffffffffffffffffffffffffffffff1614611d0d576040517f08c379a0000000000000000000000000000000000000000000000000000000008152600401611d049061454c565b60405180910390fd5b600380811115611d2057611d1f61456c565b5b600f60009054906101000a900460ff166003811115611d4257611d4161456c565b5b1415611d83576040517f08c379a0000000000000000000000000000000000000000000000000000000008152600401611d7a90614f2b565b60405180910390fd5b601154341015611dc8576040517f08c379a0000000000000000000000000000000000000000000000000000000008152600401611dbf90614c7d565b60405180910390fd5b611dd0612c9f565b565b611dda6127a8565b73ffffffffffffffffffffffffffffffffffffffff16611df8611a84565b73ffffffffffffffffffffffffffffffffffffffff1614611e4e576040517f08c379a0000000000000000000000000000000000000000000000000000000008152600401611e459061454c565b60405180910390fd5b60005b82829050811015611f7257600073ffffffffffffffffffffffffffffffffffffffff16838383818110611e8757611e866147b2565b5b9050602002016020810190611e9c919061411f565b73ffffffffffffffffffffffffffffffffffffffff161415611ef3576040517f08c379a0000000000000000000000000000000000000000000000000000000008152600401611eea90614853565b60405180910390fd5b600060156000858585818110611f0c57611f0b6147b2565b5b9050602002016020810190611f21919061411f565b73ffffffffffffffffffffffffffffffffffffffff1673ffffffffffffffffffffffffffffffffffffffff168152602001908152602001600020819055508080611f6a906148a2565b915050611e51565b505050565b61270f81565b611f856127a8565b73ffffffffffffffffffffffffffffffffffffffff16611fa3611a84565b73ffffffffffffffffffffffffffffffffffffffff1614611ff9576040517f08c379a0000000000000000000000000000000000000000000000000000000008152600401611ff09061454c565b60405180910390fd5b6002600f60006101000a81548160ff0219169083600381111561201f5761201e61456c565b5b0217905550565b6120376120316127a8565b8361294f565b612076576040517f08c379a000000000000000000000000000000000000000000000000000000000815260040161206d9061495d565b60405180910390fd5b612082848484846130af565b50505050565b60606120926120c2565b61209b8361310b565b6040516020016120ac929190614f87565b6040516020818303038152906040529050919050565b6060601080546120d1906145ca565b80601f01602080910402602001604051908101604052809291908181526020018280546120fd906145ca565b801561214a5780601f1061211f5761010080835404028352916020019161214a565b820191906000526020600020905b81548152906001019060200180831161212d57829003601f168201915b5050505050905090565b600080601560008473ffffffffffffffffffffffffffffffffffffffff1673ffffffffffffffffffffffffffffffffffffffff16815260200190815260200160002054119050919050565b600260038111156121b3576121b261456c565b5b600f60009054906101000a900460ff1660038111156121d5576121d461456c565b5b14612215576040517f08c379a000000000000000000000000000000000000000000000000000000000815260040161220c90614ff7565b60405180910390fd5b60115434101561225a576040517f08c379a000000000000000000000000000000000000000000000000000000000815260040161225190614c7d565b60405180910390fd5b612262612c9f565b565b61226c6127a8565b73ffffffffffffffffffffffffffffffffffffffff1661228a611a84565b73ffffffffffffffffffffffffffffffffffffffff16146122e0576040517f08c379a00000000000000000000000000000000000000000000000000000000081526004016122d79061454c565b60405180910390fd5b80601090805190602001906122f6929190613c38565b5050565b6000600560008473ffffffffffffffffffffffffffffffffffffffff1673ffffffffffffffffffffffffffffffffffffffff16815260200190815260200160002060008373ffffffffffffffffffffffffffffffffffffffff1673ffffffffffffffffffffffffffffffffffffffff16815260200190815260200160002060009054906101000a900460ff16905092915050565b6123966127a8565b73ffffffffffffffffffffffffffffffffffffffff166123b4611a84565b73ffffffffffffffffffffffffffffffffffffffff161461240a576040517f08c379a00000000000000000000000000000000000000000000000000000000081526004016124019061454c565b60405180910390fd5b60005b838390508110156125a557600073ffffffffffffffffffffffffffffffffffffffff16848483818110612443576124426147b2565b5b9050602002016020810190612458919061411f565b73ffffffffffffffffffffffffffffffffffffffff1614156124af576040517f08c379a00000000000000000000000000000000000000000000000000000000081526004016124a690614a81565b60405180910390fd5b61252882601660008787868181106124ca576124c96147b2565b5b90506020020160208101906124df919061411f565b73ffffffffffffffffffffffffffffffffffffffff1673ffffffffffffffffffffffffffffffffffffffff16815260200190815260200160002054612c8990919063ffffffff16565b6016600086868581811061253f5761253e6147b2565b5b9050602002016020810190612554919061411f565b73ffffffffffffffffffffffffffffffffffffffff1673ffffffffffffffffffffffffffffffffffffffff16815260200190815260200160002081905550808061259d906148a2565b91505061240d565b50505050565b6125b36127a8565b73ffffffffffffffffffffffffffffffffffffffff166125d1611a84565b73ffffffffffffffffffffffffffffffffffffffff1614612627576040517f08c379a000000000000000000000000000000000000000000000000000000000815260040161261e9061454c565b60405180910390fd5b600073ffffffffffffffffffffffffffffffffffffffff168173ffffffffffffffffffffffffffffffffffffffff161415612697576040517f08c379a000000000000000000000000000000000000000000000000000000000815260040161268e90615089565b60405180910390fd5b6126a081612e7c565b50565b6126ab6127a8565b73ffffffffffffffffffffffffffffffffffffffff166126c9611a84565b73ffffffffffffffffffffffffffffffffffffffff161461271f576040517f08c379a00000000000000000000000000000000000000000000000000000000081526004016127169061454c565b60405180910390fd5b60004790508173ffffffffffffffffffffffffffffffffffffffff166108fc829081150290604051600060405180830381858888f1935050505015801561276a573d6000803e3d6000fd5b507fdd14374458d4625d231f09a9f173ecc29d3953e238011f5ff6d06e94ac6b2bcd828260405161279c9291906150a9565b60405180910390a15050565b600033905090565b60007f780e9d63000000000000000000000000000000000000000000000000000000007bffffffffffffffffffffffffffffffffffffffffffffffffffffffff1916827bffffffffffffffffffffffffffffffffffffffffffffffffffffffff1916148061282357506128228261326c565b5b9050919050565b60008073ffffffffffffffffffffffffffffffffffffffff166002600084815260200190815260200160002060009054906101000a900473ffffffffffffffffffffffffffffffffffffffff1673ffffffffffffffffffffffffffffffffffffffff1614159050919050565b816004600083815260200190815260200160002060006101000a81548173ffffffffffffffffffffffffffffffffffffffff021916908373ffffffffffffffffffffffffffffffffffffffff160217905550808273ffffffffffffffffffffffffffffffffffffffff1661290983611781565b73ffffffffffffffffffffffffffffffffffffffff167f8c5be1e5ebec7d5bd14f71427d1e84f3dd0314c0f7b2291e5b200ac8c7c3b92560405160405180910390a45050565b600061295a8261282a565b612999576040517f08c379a000000000000000000000000000000000000000000000000000000000815260040161299090615144565b60405180910390fd5b60006129a483611781565b90508073ffffffffffffffffffffffffffffffffffffffff168473ffffffffffffffffffffffffffffffffffffffff161480612a1357508373ffffffffffffffffffffffffffffffffffffffff166129fb84610b25565b73ffffffffffffffffffffffffffffffffffffffff16145b80612a245750612a2381856122fa565b5b91505092915050565b8273ffffffffffffffffffffffffffffffffffffffff16612a4d82611781565b73ffffffffffffffffffffffffffffffffffffffff1614612aa3576040517f08c379a0000000000000000000000000000000000000000000000000000000008152600401612a9a906151d6565b60405180910390fd5b600073ffffffffffffffffffffffffffffffffffffffff168273ffffffffffffffffffffffffffffffffffffffff161415612b13576040517f08c379a0000000000000000000000000000000000000000000000000000000008152600401612b0a90615268565b60405180910390fd5b612b1e83838361334e565b612b29600082612896565b6001600360008573ffffffffffffffffffffffffffffffffffffffff1673ffffffffffffffffffffffffffffffffffffffff1681526020019081526020016000206000828254612b799190615288565b925050819055506001600360008473ffffffffffffffffffffffffffffffffffffffff1673ffffffffffffffffffffffffffffffffffffffff1681526020019081526020016000206000828254612bd091906152bc565b92505081905550816002600083815260200190815260200160002060006101000a81548173ffffffffffffffffffffffffffffffffffffffff021916908373ffffffffffffffffffffffffffffffffffffffff160217905550808273ffffffffffffffffffffffffffffffffffffffff168473ffffffffffffffffffffffffffffffffffffffff167fddf252ad1be2c89b69c2b068fc378daa952ba7f163c4a11628f55a4df523b3ef60405160405180910390a4505050565b60008183612c9791906152bc565b905092915050565b612ca83361335e565b15612ce8576040517f08c379a0000000000000000000000000000000000000000000000000000000008152600401612cdf90615384565b60405180910390fd5b61270f612d086001612cfa600e613371565b612c8990919063ffffffff16565b1115612d49576040517f08c379a0000000000000000000000000000000000000000000000000000000008152600401612d40906153f0565b60405180910390fd5b600060135411612d8e576040517f08c379a0000000000000000000000000000000000000000000000000000000008152600401612d859061545c565b60405180910390fd5b6000612d9a600e613371565b9050612da6338261337f565b612db0600e61339d565b612dc66001601254612c8990919063ffffffff16565b6012819055506000612dd7826133b3565b90508060146000848152602001908152602001600020819055507f30385c845b448a36257a6a1716e6ad2e1bc2cbe333cde1e69fe849ad6511adfe336001604051612e239291906154c1565b60405180910390a161270f60125410612e62576003600f60006101000a81548160ff02191690836003811115612e5c57612e5b61456c565b5b02179055505b5050565b60008183612e749190615288565b905092915050565b6000600b60009054906101000a900473ffffffffffffffffffffffffffffffffffffffff16905081600b60006101000a81548173ffffffffffffffffffffffffffffffffffffffff021916908373ffffffffffffffffffffffffffffffffffffffff1602179055508173ffffffffffffffffffffffffffffffffffffffff168173ffffffffffffffffffffffffffffffffffffffff167f8be0079c531659141344cd1fd0a4f28419497f9722a3daafe3b4186f6b6457e060405160405180910390a35050565b8173ffffffffffffffffffffffffffffffffffffffff168373ffffffffffffffffffffffffffffffffffffffff161415612fb1576040517f08c379a0000000000000000000000000000000000000000000000000000000008152600401612fa890615536565b60405180910390fd5b80600560008573ffffffffffffffffffffffffffffffffffffffff1673ffffffffffffffffffffffffffffffffffffffff16815260200190815260200160002060008473ffffffffffffffffffffffffffffffffffffffff1673ffffffffffffffffffffffffffffffffffffffff16815260200190815260200160002060006101000a81548160ff0219169083151502179055508173ffffffffffffffffffffffffffffffffffffffff168373ffffffffffffffffffffffffffffffffffffffff167f17307eab39ab6107e8899845ad3d59bd9653f200f220920489ca2b5937696c31836040516130a29190613df2565b60405180910390a3505050565b6130ba848484612a2d565b6130c6848484846133fe565b613105576040517f08c379a00000000000000000000000000000000000000000000000000000000081526004016130fc906155c8565b60405180910390fd5b50505050565b60606000821415613153576040518060400160405280600181526020017f30000000000000000000000000000000000000000000000000000000000000008152509050613267565b600082905060005b6000821461318557808061316e906148a2565b915050600a8261317e9190615617565b915061315b565b60008167ffffffffffffffff8111156131a1576131a0614228565b5b6040519080825280601f01601f1916602001820160405280156131d35781602001600182028036833780820191505090505b5090505b60008514613260576001826131ec9190615288565b9150600a856131fb9190615648565b603061320791906152bc565b60f81b81838151811061321d5761321c6147b2565b5b60200101907effffffffffffffffffffffffffffffffffffffffffffffffffffffffffffff1916908160001a905350600a856132599190615617565b94506131d7565b8093505050505b919050565b60007f80ac58cd000000000000000000000000000000000000000000000000000000007bffffffffffffffffffffffffffffffffffffffffffffffffffffffff1916827bffffffffffffffffffffffffffffffffffffffffffffffffffffffff1916148061333757507f5b5e139f000000000000000000000000000000000000000000000000000000007bffffffffffffffffffffffffffffffffffffffffffffffffffffffff1916827bffffffffffffffffffffffffffffffffffffffffffffffffffffffff1916145b80613347575061334682613586565b5b9050919050565b6133598383836135f0565b505050565b600080823b905060008111915050919050565b600081600001549050919050565b613399828260405180602001604052806000815250613704565b5050565b6001816000016000828254019250508190555050565b600080444243856040516020016133cd949392919061569a565b6040516020818303038152906040528051906020012060001c9050600d54816133f69190615648565b915050919050565b600061341f8473ffffffffffffffffffffffffffffffffffffffff1661335e565b15613579578373ffffffffffffffffffffffffffffffffffffffff1663150b7a026134486127a8565b8786866040518563ffffffff1660e01b815260040161346a949392919061573d565b6020604051808303816000875af19250505080156134a657506040513d601f19601f820116820180604052508101906134a3919061579e565b60015b613529573d80600081146134d6576040519150601f19603f3d011682016040523d82523d6000602084013e6134db565b606091505b50600081511415613521576040517f08c379a0000000000000000000000000000000000000000000000000000000008152600401613518906155c8565b60405180910390fd5b805181602001fd5b63150b7a0260e01b7bffffffffffffffffffffffffffffffffffffffffffffffffffffffff1916817bffffffffffffffffffffffffffffffffffffffffffffffffffffffff19161491505061357e565b600190505b949350505050565b60007f01ffc9a7000000000000000000000000000000000000000000000000000000007bffffffffffffffffffffffffffffffffffffffffffffffffffffffff1916827bffffffffffffffffffffffffffffffffffffffffffffffffffffffff1916149050919050565b6135fb83838361375f565b600073ffffffffffffffffffffffffffffffffffffffff168373ffffffffffffffffffffffffffffffffffffffff16141561363e5761363981613764565b61367d565b8173ffffffffffffffffffffffffffffffffffffffff168373ffffffffffffffffffffffffffffffffffffffff161461367c5761367b83826137ad565b5b5b600073ffffffffffffffffffffffffffffffffffffffff168273ffffffffffffffffffffffffffffffffffffffff1614156136c0576136bb8161391a565b6136ff565b8273ffffffffffffffffffffffffffffffffffffffff168273ffffffffffffffffffffffffffffffffffffffff16146136fe576136fd82826139eb565b5b5b505050565b61370e8383613a6a565b61371b60008484846133fe565b61375a576040517f08c379a0000000000000000000000000000000000000000000000000000000008152600401613751906155c8565b60405180910390fd5b505050565b505050565b6008805490506009600083815260200190815260200160002081905550600881908060018154018082558091505060019003906000526020600020016000909190919091505550565b600060016137ba84611884565b6137c49190615288565b90506000600760008481526020019081526020016000205490508181146138a9576000600660008673ffffffffffffffffffffffffffffffffffffffff1673ffffffffffffffffffffffffffffffffffffffff168152602001908152602001600020600084815260200190815260200160002054905080600660008773ffffffffffffffffffffffffffffffffffffffff1673ffffffffffffffffffffffffffffffffffffffff168152602001908152602001600020600084815260200190815260200160002081905550816007600083815260200190815260200160002081905550505b6007600084815260200190815260200160002060009055600660008573ffffffffffffffffffffffffffffffffffffffff1673ffffffffffffffffffffffffffffffffffffffff16815260200190815260200160002060008381526020019081526020016000206000905550505050565b6000600160088054905061392e9190615288565b905060006009600084815260200190815260200160002054905060006008838154811061395e5761395d6147b2565b5b9060005260206000200154905080600883815481106139805761397f6147b2565b5b9060005260206000200181905550816009600083815260200190815260200160002081905550600960008581526020019081526020016000206000905560088054806139cf576139ce6157cb565b5b6001900381819060005260206000200160009055905550505050565b60006139f683611884565b905081600660008573ffffffffffffffffffffffffffffffffffffffff1673ffffffffffffffffffffffffffffffffffffffff168152602001908152602001600020600083815260200190815260200160002081905550806007600084815260200190815260200160002081905550505050565b600073ffffffffffffffffffffffffffffffffffffffff168273ffffffffffffffffffffffffffffffffffffffff161415613ada576040517f08c379a0000000000000000000000000000000000000000000000000000000008152600401613ad190615846565b60405180910390fd5b613ae38161282a565b15613b23576040517f08c379a0000000000000000000000000000000000000000000000000000000008152600401613b1a906158b2565b60405180910390fd5b613b2f6000838361334e565b6001600360008473ffffffffffffffffffffffffffffffffffffffff1673ffffffffffffffffffffffffffffffffffffffff1681526020019081526020016000206000828254613b7f91906152bc565b92505081905550816002600083815260200190815260200160002060006101000a81548173ffffffffffffffffffffffffffffffffffffffff021916908373ffffffffffffffffffffffffffffffffffffffff160217905550808273ffffffffffffffffffffffffffffffffffffffff16600073ffffffffffffffffffffffffffffffffffffffff167fddf252ad1be2c89b69c2b068fc378daa952ba7f163c4a11628f55a4df523b3ef60405160405180910390a45050565b828054613c44906145ca565b90600052602060002090601f016020900481019282613c665760008555613cad565b82601f10613c7f57805160ff1916838001178555613cad565b82800160010185558215613cad579182015b82811115613cac578251825591602001919060010190613c91565b5b509050613cba9190613cbe565b5090565b5b80821115613cd7576000816000905550600101613cbf565b5090565b6000604051905090565b600080fd5b600080fd5b6000819050919050565b613d0281613cef565b8114613d0d57600080fd5b50565b600081359050613d1f81613cf9565b92915050565b600060208284031215613d3b57613d3a613ce5565b5b6000613d4984828501613d10565b91505092915050565b60007fffffffff0000000000000000000000000000000000000000000000000000000082169050919050565b613d8781613d52565b8114613d9257600080fd5b50565b600081359050613da481613d7e565b92915050565b600060208284031215613dc057613dbf613ce5565b5b6000613dce84828501613d95565b91505092915050565b60008115159050919050565b613dec81613dd7565b82525050565b6000602082019050613e076000830184613de3565b92915050565b600081519050919050565b600082825260208201905092915050565b60005b83811015613e47578082015181840152602081019050613e2c565b83811115613e56576000848401525b50505050565b6000601f19601f8301169050919050565b6000613e7882613e0d565b613e828185613e18565b9350613e92818560208601613e29565b613e9b81613e5c565b840191505092915050565b60006020820190508181036000830152613ec08184613e6d565b905092915050565b600073ffffffffffffffffffffffffffffffffffffffff82169050919050565b6000613ef382613ec8565b9050919050565b613f0381613ee8565b82525050565b6000602082019050613f1e6000830184613efa565b92915050565b613f2d81613ee8565b8114613f3857600080fd5b50565b600081359050613f4a81613f24565b92915050565b60008060408385031215613f6757613f66613ce5565b5b6000613f7585828601613f3b565b9250506020613f8685828601613d10565b9150509250929050565b600080fd5b600080fd5b600080fd5b60008083601f840112613fb557613fb4613f90565b5b8235905067ffffffffffffffff811115613fd257613fd1613f95565b5b602083019150836020820283011115613fee57613fed613f9a565b5b9250929050565b6000806020838503121561400c5761400b613ce5565b5b600083013567ffffffffffffffff81111561402a57614029613cea565b5b61403685828601613f9f565b92509250509250929050565b61404b81613cef565b82525050565b60006020820190506140666000830184614042565b92915050565b60008060006060848603121561408557614084613ce5565b5b600061409386828701613f3b565b93505060206140a486828701613f3b565b92505060406140b586828701613d10565b9150509250925092565b6000806000604084860312156140d8576140d7613ce5565b5b600084013567ffffffffffffffff8111156140f6576140f5613cea565b5b61410286828701613f9f565b9350935050602061411586828701613d10565b9150509250925092565b60006020828403121561413557614134613ce5565b5b600061414384828501613f3b565b91505092915050565b61415581613dd7565b811461416057600080fd5b50565b6000813590506141728161414c565b92915050565b6000806040838503121561418f5761418e613ce5565b5b600061419d85828601613f3b565b92505060206141ae85828601614163565b9150509250929050565b60006141c382613ec8565b9050919050565b6141d3816141b8565b81146141de57600080fd5b50565b6000813590506141f0816141ca565b92915050565b60006020828403121561420c5761420b613ce5565b5b600061421a848285016141e1565b91505092915050565b600080fd5b7f4e487b7100000000000000000000000000000000000000000000000000000000600052604160045260246000fd5b61426082613e5c565b810181811067ffffffffffffffff8211171561427f5761427e614228565b5b80604052505050565b6000614292613cdb565b905061429e8282614257565b919050565b600067ffffffffffffffff8211156142be576142bd614228565b5b6142c782613e5c565b9050602081019050919050565b82818337600083830152505050565b60006142f66142f1846142a3565b614288565b90508281526020810184848401111561431257614311614223565b5b61431d8482856142d4565b509392505050565b600082601f83011261433a57614339613f90565b5b813561434a8482602086016142e3565b91505092915050565b6000806000806080858703121561436d5761436c613ce5565b5b600061437b87828801613f3b565b945050602061438c87828801613f3b565b935050604061439d87828801613d10565b925050606085013567ffffffffffffffff8111156143be576143bd613cea565b5b6143ca87828801614325565b91505092959194509250565b600067ffffffffffffffff8211156143f1576143f0614228565b5b6143fa82613e5c565b9050602081019050919050565b600061441a614415846143d6565b614288565b90508281526020810184848401111561443657614435614223565b5b6144418482856142d4565b509392505050565b600082601f83011261445e5761445d613f90565b5b813561446e848260208601614407565b91505092915050565b60006020828403121561448d5761448c613ce5565b5b600082013567ffffffffffffffff8111156144ab576144aa613cea565b5b6144b784828501614449565b91505092915050565b600080604083850312156144d7576144d6613ce5565b5b60006144e585828601613f3b565b92505060206144f685828601613f3b565b9150509250929050565b7f4f776e61626c653a2063616c6c6572206973206e6f7420746865206f776e6572600082015250565b6000614536602083613e18565b915061454182614500565b602082019050919050565b6000602082019050818103600083015261456581614529565b9050919050565b7f4e487b7100000000000000000000000000000000000000000000000000000000600052602160045260246000fd5b7f4e487b7100000000000000000000000000000000000000000000000000000000600052602260045260246000fd5b600060028204905060018216806145e257607f821691505b602082108114156145f6576145f561459b565b5b50919050565b7f4552433732313a20617070726f76656420717565727920666f72206e6f6e657860008201527f697374656e7420746f6b656e0000000000000000000000000000000000000000602082015250565b6000614658602c83613e18565b9150614663826145fc565b604082019050919050565b600060208201905081810360008301526146878161464b565b9050919050565b7f4552433732313a20617070726f76616c20746f2063757272656e74206f776e6560008201527f7200000000000000000000000000000000000000000000000000000000000000602082015250565b60006146ea602183613e18565b91506146f58261468e565b604082019050919050565b60006020820190508181036000830152614719816146dd565b9050919050565b7f4552433732313a20617070726f76652063616c6c6572206973206e6f74206f7760008201527f6e6572206e6f7220617070726f76656420666f7220616c6c0000000000000000602082015250565b600061477c603883613e18565b915061478782614720565b604082019050919050565b600060208201905081810360008301526147ab8161476f565b9050919050565b7f4e487b7100000000000000000000000000000000000000000000000000000000600052603260045260246000fd5b7f4d6573736167653a2043616e27742072656d6f76652061207a65726f2061646460008201527f7265737300000000000000000000000000000000000000000000000000000000602082015250565b600061483d602483613e18565b9150614848826147e1565b604082019050919050565b6000602082019050818103600083015261486c81614830565b9050919050565b7f4e487b7100000000000000000000000000000000000000000000000000000000600052601160045260246000fd5b60006148ad82613cef565b91507fffffffffffffffffffffffffffffffffffffffffffffffffffffffffffffffff8214156148e0576148df614873565b5b600182019050919050565b7f4552433732313a207472616e736665722063616c6c6572206973206e6f74206f60008201527f776e6572206e6f7220617070726f766564000000000000000000000000000000602082015250565b6000614947603183613e18565b9150614952826148eb565b604082019050919050565b600060208201905081810360008301526149768161493a565b9050919050565b7f455243373231456e756d657261626c653a206f776e657220696e646578206f7560008201527f74206f6620626f756e6473000000000000000000000000000000000000000000602082015250565b60006149d9602b83613e18565b91506149e48261497d565b604082019050919050565b60006020820190508181036000830152614a08816149cc565b9050919050565b7f4d6573736167653a2043616e2774206164642061207a65726f2061646472657360008201527f7300000000000000000000000000000000000000000000000000000000000000602082015250565b6000614a6b602183613e18565b9150614a7682614a0f565b604082019050919050565b60006020820190508181036000830152614a9a81614a5e565b9050919050565b7f455243373231456e756d657261626c653a20676c6f62616c20696e646578206f60008201527f7574206f6620626f756e64730000000000000000000000000000000000000000602082015250565b6000614afd602c83613e18565b9150614b0882614aa1565b604082019050919050565b60006020820190508181036000830152614b2c81614af0565b9050919050565b7f50726573616c65206973206e6f74206163746976652e00000000000000000000600082015250565b6000614b69601683613e18565b9150614b7482614b33565b602082019050919050565b60006020820190508181036000830152614b9881614b5c565b9050919050565b7f5468652077616c6c65742061646472657373206973206e6f7420616c6c6f776560008201527f6420746f206d696e74204365726f732e00000000000000000000000000000000602082015250565b6000614bfb603083613e18565b9150614c0682614b9f565b604082019050919050565b60006020820190508181036000830152614c2a81614bee565b9050919050565b7f45746865722076616c75652073656e7420697320696e636f72726563742e0000600082015250565b6000614c67601e83613e18565b9150614c7282614c31565b602082019050919050565b60006020820190508181036000830152614c9681614c5a565b9050919050565b7f4d696e74206973206e6f74206163746976652e00000000000000000000000000600082015250565b6000614cd3601383613e18565b9150614cde82614c9d565b602082019050919050565b60006020820190508181036000830152614d0281614cc6565b9050919050565b7f4552433732313a206f776e657220717565727920666f72206e6f6e657869737460008201527f656e7420746f6b656e0000000000000000000000000000000000000000000000602082015250565b6000614d65602983613e18565b9150614d7082614d09565b604082019050919050565b60006020820190508181036000830152614d9481614d58565b9050919050565b7f4552433732313a2062616c616e636520717565727920666f7220746865207a6560008201527f726f206164647265737300000000000000000000000000000000000000000000602082015250565b6000614df7602a83613e18565b9150614e0282614d9b565b604082019050919050565b60006020820190508181036000830152614e2681614dea565b9050919050565b600081905092915050565b50565b6000614e48600083614e2d565b9150614e5382614e38565b600082019050919050565b6000614e6982614e3b565b9150819050919050565b7f4661696c656420746f2073656e64204574686572000000000000000000000000600082015250565b6000614ea9601483613e18565b9150614eb482614e73565b602082019050919050565b60006020820190508181036000830152614ed881614e9c565b9050919050565b7f4d696e74206973206e6f7420617661696c61626c652e00000000000000000000600082015250565b6000614f15601683613e18565b9150614f2082614edf565b602082019050919050565b60006020820190508181036000830152614f4481614f08565b9050919050565b600081905092915050565b6000614f6182613e0d565b614f6b8185614f4b565b9350614f7b818560208601613e29565b80840191505092915050565b6000614f938285614f56565b9150614f9f8284614f56565b91508190509392505050565b7f53616c65206973206e6f74206163746976652e00000000000000000000000000600082015250565b6000614fe1601383613e18565b9150614fec82614fab565b602082019050919050565b6000602082019050818103600083015261501081614fd4565b9050919050565b7f4f776e61626c653a206e6577206f776e657220697320746865207a65726f206160008201527f6464726573730000000000000000000000000000000000000000000000000000602082015250565b6000615073602683613e18565b915061507e82615017565b604082019050919050565b600060208201905081810360008301526150a281615066565b9050919050565b60006040820190506150be6000830185613efa565b6150cb6020830184614042565b9392505050565b7f4552433732313a206f70657261746f7220717565727920666f72206e6f6e657860008201527f697374656e7420746f6b656e0000000000000000000000000000000000000000602082015250565b600061512e602c83613e18565b9150615139826150d2565b604082019050919050565b6000602082019050818103600083015261515d81615121565b9050919050565b7f4552433732313a207472616e73666572206f6620746f6b656e2074686174206960008201527f73206e6f74206f776e0000000000000000000000000000000000000000000000602082015250565b60006151c0602983613e18565b91506151cb82615164565b604082019050919050565b600060208201905081810360008301526151ef816151b3565b9050919050565b7f4552433732313a207472616e7366657220746f20746865207a65726f2061646460008201527f7265737300000000000000000000000000000000000000000000000000000000602082015250565b6000615252602483613e18565b915061525d826151f6565b604082019050919050565b6000602082019050818103600083015261528181615245565b9050919050565b600061529382613cef565b915061529e83613cef565b9250828210156152b1576152b0614873565b5b828203905092915050565b60006152c782613cef565b91506152d283613cef565b9250827fffffffffffffffffffffffffffffffffffffffffffffffffffffffffffffffff0382111561530757615306614873565b5b828201905092915050565b7f436f6e74726163747320617265206e6f7420616c6c6f77656420746f206d696e60008201527f74204365726f732e000000000000000000000000000000000000000000000000602082015250565b600061536e602883613e18565b915061537982615312565b604082019050919050565b6000602082019050818103600083015261539d81615361565b9050919050565b7f4d617820737570706c79206f6620746f6b656e732065786365656465642e0000600082015250565b60006153da601e83613e18565b91506153e5826153a4565b602082019050919050565b60006020820190508181036000830152615409816153cd565b9050919050565b7f4e6f20746f6b656e7320617661696c61626c6520746f206d696e742e00000000600082015250565b6000615446601c83613e18565b915061545182615410565b602082019050919050565b6000602082019050818103600083015261547581615439565b9050919050565b6000819050919050565b6000819050919050565b60006154ab6154a66154a18461547c565b615486565b613cef565b9050919050565b6154bb81615490565b82525050565b60006040820190506154d66000830185613efa565b6154e360208301846154b2565b9392505050565b7f4552433732313a20617070726f766520746f2063616c6c657200000000000000600082015250565b6000615520601983613e18565b915061552b826154ea565b602082019050919050565b6000602082019050818103600083015261554f81615513565b9050919050565b7f4552433732313a207472616e7366657220746f206e6f6e20455243373231526560008201527f63656976657220696d706c656d656e7465720000000000000000000000000000602082015250565b60006155b2603283613e18565b91506155bd82615556565b604082019050919050565b600060208201905081810360008301526155e1816155a5565b9050919050565b7f4e487b7100000000000000000000000000000000000000000000000000000000600052601260045260246000fd5b600061562282613cef565b915061562d83613cef565b92508261563d5761563c6155e8565b5b828204905092915050565b600061565382613cef565b915061565e83613cef565b92508261566e5761566d6155e8565b5b828206905092915050565b6000819050919050565b61569461568f82613cef565b615679565b82525050565b60006156a68287615683565b6020820191506156b68286615683565b6020820191506156c68285615683565b6020820191506156d68284615683565b60208201915081905095945050505050565b600081519050919050565b600082825260208201905092915050565b600061570f826156e8565b61571981856156f3565b9350615729818560208601613e29565b61573281613e5c565b840191505092915050565b60006080820190506157526000830187613efa565b61575f6020830186613efa565b61576c6040830185614042565b818103606083015261577e8184615704565b905095945050505050565b60008151905061579881613d7e565b92915050565b6000602082840312156157b4576157b3613ce5565b5b60006157c284828501615789565b91505092915050565b7f4e487b7100000000000000000000000000000000000000000000000000000000600052603160045260246000fd5b7f4552433732313a206d696e7420746f20746865207a65726f2061646472657373600082015250565b6000615830602083613e18565b915061583b826157fa565b602082019050919050565b6000602082019050818103600083015261585f81615823565b9050919050565b7f4552433732313a20746f6b656e20616c7265616479206d696e74656400000000600082015250565b600061589c601c83613e18565b91506158a782615866565b602082019050919050565b600060208201905081810360008301526158cb8161588f565b905091905056fea264697066735822122008b92c9c5e83059fb9c4aed74bab6bc2642a19bfd5fef0718dfe4e509328a57764736f6c634300080a0033",
  "immutableReferences": {},
  "source": "// SPDX-License-Identifier: ISC\npragma solidity >=0.8.0;\n\n\nimport \"@openzeppelin/contracts/access/Ownable.sol\";\nimport \"@openzeppelin/contracts/utils/Counters.sol\";\nimport \"@openzeppelin/contracts/utils/math/SafeMath.sol\";\nimport \"@openzeppelin/contracts/token/ERC721/extensions/ERC721Enumerable.sol\";\nimport \"@openzeppelin/contracts/token/ERC721/extensions/ERC721URIStorage.sol\";\n\ncontract Cero is ERC721Enumerable, ERC721URIStorage, Ownable {\n    using Counters for Counters.Counter;\n    using SafeMath for uint256;\n\n    string constant _name = \"Cero NFT\";\n    string constant _symbol = \"CRO\";\n\n    uint dnaDigits = 16;\n    uint dnaModulus = 10 ** dnaDigits;\n\n    enum State {\n        SetUp,\n        Presale,\n        Sale,\n        SoldOut\n    }\n\n    Counters.Counter private _tokenIds;\n    State private _state;\n    address private _owner;\n    string private _tokenUriBase;\n    uint256 public constant MAX_CEROS = 9999;\n    uint256 private CERO_PRICE = 5E16; // 0.05 ETH\n    uint256 public totalMinted = 0;\n    uint256 public availableTokensMint = 0;\n\n    mapping(uint256 => uint256) private _cerosDna;\n    mapping(address => uint256) private _whiteList;\n    mapping(address => uint256) private _airdrops;\n    \n\n\n\n    event Minted(address minter, uint256 amount);\n    event BalanceWithdrawed(address recipient, uint256 value);\n\n\n    constructor() ERC721(_name, _symbol) {\n        _owner = msg.sender;\n        _state = State.SetUp;\n    }\n\n    function updateMintPrice(uint256 __price) public onlyOwner {\n        CERO_PRICE = __price;\n    }\n\n    function addQuantityToMint(uint256 __quantity) public onlyOwner {\n        availableTokensMint = __quantity;\n    }\n\n    function updateOwner(address __owner) public onlyOwner {\n        _owner = __owner;\n    }\n\n    function tokenURI(uint256 tokenId) public view override(ERC721, ERC721URIStorage) returns (string memory) {\n        return string(abi.encodePacked(baseTokenURI(), Strings.toString(tokenId)));\n    }\n\n    function baseTokenURI() public view virtual returns (string memory) {\n        return _tokenUriBase;\n    }\n\n    function setTokenURI(string memory tokenUriBase_) public onlyOwner {\n        _tokenUriBase = tokenUriBase_;\n    }\n\n    function setStateToSetup() public onlyOwner {\n        _state = State.SetUp;\n    }\n    \n    function startPresale() public onlyOwner {\n        _state = State.Presale;\n    }\n\n    function setStateToSale() public onlyOwner {\n        _state = State.Sale;\n    }\n    \n    function setStateToSoldOut() public onlyOwner {\n        _state = State.SoldOut;\n    }\n\n    function addToPresaleList(address[] calldata _addresses, uint quantity) external onlyOwner {\n        for (uint256 ind = 0; ind < _addresses.length; ind++) {\n            require(_addresses[ind] != address(0), \"Message: Can't add a zero address\");\n            _whiteList[_addresses[ind]] = _whiteList[_addresses[ind]].add(quantity);\n        }\n    }\n\n    function isOnPresaleList(address _address) external view returns (bool) {\n        return _whiteList[_address] > 0;\n    }\n\n    function removeFromPresaleList(address[] calldata _addresses) external onlyOwner {\n        for (uint256 ind = 0; ind < _addresses.length; ind++) {\n            require(_addresses[ind] != address(0), \"Message: Can't remove a zero address\");\n            _whiteList[_addresses[ind]] = 0;\n        }\n    }\n\n    function addAirdrop(address[] calldata _addresses, uint quantity) external onlyOwner {\n        for (uint256 ind = 0; ind < _addresses.length; ind++) {\n            require(_addresses[ind] != address(0), \"Message: Can't add a zero address\");\n            _airdrops[_addresses[ind]] = _airdrops[_addresses[ind]].add(quantity);\n        }\n    }\n    \n    function hasAirdrop(address _address) external view returns (bool) {\n        return _airdrops[_address] > 0;\n    }\n\n    function removeAirdrop(address[] calldata _addresses) external onlyOwner {\n        for (uint256 ind = 0; ind < _addresses.length; ind++) {\n            require(_addresses[ind] != address(0), \"Message: Can't remove a zero address\");\n            _airdrops[_addresses[ind]] = 0;\n        }\n    }\n\n    function claimAirdrop() external {\n        require(_state != State.SoldOut, \"Mint is not active.\");\n        require(_airdrops[msg.sender] > 0, \"The wallet address is not allowed to mint Ceros.\");\n        for (uint256 ind = 0; ind < _airdrops[msg.sender]; ind++) {\n            mint();\n        }\n       _airdrops[msg.sender] = 0;\n    }\n    \n    function presaleMint() external payable {\n        require(_state == State.Presale, \"Presale is not active.\");\n        require(_whiteList[msg.sender] > 0, \"The wallet address is not allowed to mint Ceros.\");\n        require(msg.value >= CERO_PRICE, \"Ether value sent is incorrect.\");\n        mint();\n        _whiteList[msg.sender] = _whiteList[msg.sender].sub(1);\n    }\n\n    function ownerMint() external payable onlyOwner {\n        require(_state != State.SoldOut, \"Mint is not available.\");\n        require(msg.value >= CERO_PRICE, \"Ether value sent is incorrect.\");\n        mint();\n    }\n\n    function saleMint() external payable {\n        require(_state == State.Sale, \"Sale is not active.\");\n        require(msg.value >= CERO_PRICE, \"Ether value sent is incorrect.\");\n        mint();\n    }\n\n    function mint() internal {\n        require(!Address.isContract(msg.sender), \"Contracts are not allowed to mint Ceros.\");\n        require(_tokenIds.current().add(1) <= MAX_CEROS, \"Max supply of tokens exceeded.\");\n        require(availableTokensMint > 0, \"No tokens available to mint.\");\n        uint256 newTokenId = _tokenIds.current();\n        _safeMint(msg.sender, newTokenId);\n        _tokenIds.increment();\n        totalMinted = totalMinted.add(1);\n\n        uint dna = _generateCeroDna(newTokenId);\n        _cerosDna[newTokenId] = dna;\n        emit Minted(msg.sender, 1);\n        if (totalMinted >= MAX_CEROS) {\n            _state = State.SoldOut;\n        }\n    }\n\n    function _generateCeroDna(uint256 id) private view returns (uint) {\n        uint rand = uint(keccak256(abi.encodePacked(block.difficulty, block.timestamp, block.number, id)));\n        return rand % dnaModulus;\n    }\n\n    function withdrawAll(address recipient) public onlyOwner {\n        uint256 balance = address(this).balance;\n        payable(recipient).transfer(balance);\n        emit BalanceWithdrawed(recipient, balance);\n    }\n\n    function withdrawAllViaCall(address payable _to) public onlyOwner {\n        uint256 balance = address(this).balance;\n        (bool sent, bytes memory data) = _to.call{value: balance}(\"\");\n        require(sent, \"Failed to send Ether\");\n    }\n\n    function _burn(uint256 tokenId) internal override(ERC721, ERC721URIStorage) {\n        super._burn(tokenId);\n    }\n\n    function _beforeTokenTransfer(address from, address to, uint256 tokenId) internal override(ERC721, ERC721Enumerable) {\n        super._beforeTokenTransfer(from, to, tokenId);\n    }\n    \n    function supportsInterface(bytes4 interfaceId) public view virtual override(ERC721, ERC721Enumerable) returns (bool) {\n        return super.supportsInterface(interfaceId);\n    }\n}\n\n//- whitelist sale\n//- nft on stored on blockchain\n//- minting for founder\n//- public sale\n//- minting for airdrop (specific number of nft)",
  "sourcePath": "/Users/nicolasballaman/Projects/cero-nft/contracts/Cero.sol",
  "compiler": {
    "name": "solc",
    "version": "0.8.10+commit.fc410830.Emscripten.clang"
  },
  "schemaVersion": "3.4.3",
  "updatedAt": "2021-12-27T15:36:22.765Z",
  "devdoc": {
    "kind": "dev",
    "methods": {
      "approve(address,uint256)": {
        "details": "See {IERC721-approve}."
      },
      "balanceOf(address)": {
        "details": "See {IERC721-balanceOf}."
      },
      "getApproved(uint256)": {
        "details": "See {IERC721-getApproved}."
      },
      "isApprovedForAll(address,address)": {
        "details": "See {IERC721-isApprovedForAll}."
      },
      "name()": {
        "details": "See {IERC721Metadata-name}."
      },
      "owner()": {
        "details": "Returns the address of the current owner."
      },
      "ownerOf(uint256)": {
        "details": "See {IERC721-ownerOf}."
      },
      "renounceOwnership()": {
        "details": "Leaves the contract without owner. It will not be possible to call `onlyOwner` functions anymore. Can only be called by the current owner. NOTE: Renouncing ownership will leave the contract without an owner, thereby removing any functionality that is only available to the owner."
      },
      "safeTransferFrom(address,address,uint256)": {
        "details": "See {IERC721-safeTransferFrom}."
      },
      "safeTransferFrom(address,address,uint256,bytes)": {
        "details": "See {IERC721-safeTransferFrom}."
      },
      "setApprovalForAll(address,bool)": {
        "details": "See {IERC721-setApprovalForAll}."
      },
      "symbol()": {
        "details": "See {IERC721Metadata-symbol}."
      },
      "tokenByIndex(uint256)": {
        "details": "See {IERC721Enumerable-tokenByIndex}."
      },
      "tokenOfOwnerByIndex(address,uint256)": {
        "details": "See {IERC721Enumerable-tokenOfOwnerByIndex}."
      },
      "totalSupply()": {
        "details": "See {IERC721Enumerable-totalSupply}."
      },
      "transferFrom(address,address,uint256)": {
        "details": "See {IERC721-transferFrom}."
      },
      "transferOwnership(address)": {
        "details": "Transfers ownership of the contract to a new account (`newOwner`). Can only be called by the current owner."
      }
    },
    "version": 1
  },
  "userdoc": {
    "kind": "user",
    "methods": {},
    "version": 1
  }
}