{
  "contractName": "Cero",
  "abi": [
    {
      "inputs": [],
      "stateMutability": "nonpayable",
      "type": "constructor"
    },
    {
      "anonymous": false,
      "inputs": [
        {
          "indexed": true,
          "internalType": "address",
          "name": "owner",
          "type": "address"
        },
        {
          "indexed": true,
          "internalType": "address",
          "name": "approved",
          "type": "address"
        },
        {
          "indexed": true,
          "internalType": "uint256",
          "name": "tokenId",
          "type": "uint256"
        }
      ],
      "name": "Approval",
      "type": "event"
    },
    {
      "anonymous": false,
      "inputs": [
        {
          "indexed": true,
          "internalType": "address",
          "name": "owner",
          "type": "address"
        },
        {
          "indexed": true,
          "internalType": "address",
          "name": "operator",
          "type": "address"
        },
        {
          "indexed": false,
          "internalType": "bool",
          "name": "approved",
          "type": "bool"
        }
      ],
      "name": "ApprovalForAll",
      "type": "event"
    },
    {
      "anonymous": false,
      "inputs": [
        {
          "indexed": false,
          "internalType": "address",
          "name": "recipient",
          "type": "address"
        },
        {
          "indexed": false,
          "internalType": "uint256",
          "name": "value",
          "type": "uint256"
        }
      ],
      "name": "BalanceWithdrawed",
      "type": "event"
    },
    {
      "anonymous": false,
      "inputs": [
        {
          "indexed": false,
          "internalType": "address",
          "name": "minter",
          "type": "address"
        },
        {
          "indexed": false,
          "internalType": "uint256",
          "name": "amount",
          "type": "uint256"
        }
      ],
      "name": "Minted",
      "type": "event"
    },
    {
      "anonymous": false,
      "inputs": [
        {
          "indexed": true,
          "internalType": "address",
          "name": "previousOwner",
          "type": "address"
        },
        {
          "indexed": true,
          "internalType": "address",
          "name": "newOwner",
          "type": "address"
        }
      ],
      "name": "OwnershipTransferred",
      "type": "event"
    },
    {
      "anonymous": false,
      "inputs": [
        {
          "indexed": true,
          "internalType": "address",
          "name": "from",
          "type": "address"
        },
        {
          "indexed": true,
          "internalType": "address",
          "name": "to",
          "type": "address"
        },
        {
          "indexed": true,
          "internalType": "uint256",
          "name": "tokenId",
          "type": "uint256"
        }
      ],
      "name": "Transfer",
      "type": "event"
    },
    {
      "inputs": [],
      "name": "MAX_CEROS",
      "outputs": [
        {
          "internalType": "uint256",
          "name": "",
          "type": "uint256"
        }
      ],
      "stateMutability": "view",
      "type": "function",
      "constant": true
    },
    {
      "inputs": [
        {
          "internalType": "address",
          "name": "to",
          "type": "address"
        },
        {
          "internalType": "uint256",
          "name": "tokenId",
          "type": "uint256"
        }
      ],
      "name": "approve",
      "outputs": [],
      "stateMutability": "nonpayable",
      "type": "function"
    },
    {
      "inputs": [],
      "name": "availableTokensMint",
      "outputs": [
        {
          "internalType": "uint256",
          "name": "",
          "type": "uint256"
        }
      ],
      "stateMutability": "view",
      "type": "function",
      "constant": true
    },
    {
      "inputs": [
        {
          "internalType": "address",
          "name": "owner",
          "type": "address"
        }
      ],
      "name": "balanceOf",
      "outputs": [
        {
          "internalType": "uint256",
          "name": "",
          "type": "uint256"
        }
      ],
      "stateMutability": "view",
      "type": "function",
      "constant": true
    },
    {
      "inputs": [
        {
          "internalType": "uint256",
          "name": "tokenId",
          "type": "uint256"
        }
      ],
      "name": "getApproved",
      "outputs": [
        {
          "internalType": "address",
          "name": "",
          "type": "address"
        }
      ],
      "stateMutability": "view",
      "type": "function",
      "constant": true
    },
    {
      "inputs": [
        {
          "internalType": "address",
          "name": "owner",
          "type": "address"
        },
        {
          "internalType": "address",
          "name": "operator",
          "type": "address"
        }
      ],
      "name": "isApprovedForAll",
      "outputs": [
        {
          "internalType": "bool",
          "name": "",
          "type": "bool"
        }
      ],
      "stateMutability": "view",
      "type": "function",
      "constant": true
    },
    {
      "inputs": [],
      "name": "name",
      "outputs": [
        {
          "internalType": "string",
          "name": "",
          "type": "string"
        }
      ],
      "stateMutability": "view",
      "type": "function",
      "constant": true
    },
    {
      "inputs": [],
      "name": "owner",
      "outputs": [
        {
          "internalType": "address",
          "name": "",
          "type": "address"
        }
      ],
      "stateMutability": "view",
      "type": "function",
      "constant": true
    },
    {
      "inputs": [
        {
          "internalType": "uint256",
          "name": "tokenId",
          "type": "uint256"
        }
      ],
      "name": "ownerOf",
      "outputs": [
        {
          "internalType": "address",
          "name": "",
          "type": "address"
        }
      ],
      "stateMutability": "view",
      "type": "function",
      "constant": true
    },
    {
      "inputs": [],
      "name": "renounceOwnership",
      "outputs": [],
      "stateMutability": "nonpayable",
      "type": "function"
    },
    {
      "inputs": [
        {
          "internalType": "address",
          "name": "from",
          "type": "address"
        },
        {
          "internalType": "address",
          "name": "to",
          "type": "address"
        },
        {
          "internalType": "uint256",
          "name": "tokenId",
          "type": "uint256"
        }
      ],
      "name": "safeTransferFrom",
      "outputs": [],
      "stateMutability": "nonpayable",
      "type": "function"
    },
    {
      "inputs": [
        {
          "internalType": "address",
          "name": "from",
          "type": "address"
        },
        {
          "internalType": "address",
          "name": "to",
          "type": "address"
        },
        {
          "internalType": "uint256",
          "name": "tokenId",
          "type": "uint256"
        },
        {
          "internalType": "bytes",
          "name": "_data",
          "type": "bytes"
        }
      ],
      "name": "safeTransferFrom",
      "outputs": [],
      "stateMutability": "nonpayable",
      "type": "function"
    },
    {
      "inputs": [
        {
          "internalType": "address",
          "name": "operator",
          "type": "address"
        },
        {
          "internalType": "bool",
          "name": "approved",
          "type": "bool"
        }
      ],
      "name": "setApprovalForAll",
      "outputs": [],
      "stateMutability": "nonpayable",
      "type": "function"
    },
    {
      "inputs": [],
      "name": "symbol",
      "outputs": [
        {
          "internalType": "string",
          "name": "",
          "type": "string"
        }
      ],
      "stateMutability": "view",
      "type": "function",
      "constant": true
    },
    {
      "inputs": [],
      "name": "totalMinted",
      "outputs": [
        {
          "internalType": "uint256",
          "name": "",
          "type": "uint256"
        }
      ],
      "stateMutability": "view",
      "type": "function",
      "constant": true
    },
    {
      "inputs": [
        {
          "internalType": "address",
          "name": "from",
          "type": "address"
        },
        {
          "internalType": "address",
          "name": "to",
          "type": "address"
        },
        {
          "internalType": "uint256",
          "name": "tokenId",
          "type": "uint256"
        }
      ],
      "name": "transferFrom",
      "outputs": [],
      "stateMutability": "nonpayable",
      "type": "function"
    },
    {
      "inputs": [
        {
          "internalType": "address",
          "name": "newOwner",
          "type": "address"
        }
      ],
      "name": "transferOwnership",
      "outputs": [],
      "stateMutability": "nonpayable",
      "type": "function"
    },
    {
      "inputs": [
        {
          "internalType": "uint256",
          "name": "__price",
          "type": "uint256"
        }
      ],
      "name": "updateMintPrice",
      "outputs": [],
      "stateMutability": "nonpayable",
      "type": "function"
    },
    {
      "inputs": [],
      "name": "mintPrice",
      "outputs": [
        {
          "internalType": "uint256",
          "name": "",
          "type": "uint256"
        }
      ],
      "stateMutability": "view",
      "type": "function",
      "constant": true
    },
    {
      "inputs": [
        {
          "internalType": "uint256",
          "name": "__quantity",
          "type": "uint256"
        }
      ],
      "name": "addQuantityToMint",
      "outputs": [],
      "stateMutability": "nonpayable",
      "type": "function"
    },
    {
      "inputs": [
        {
          "internalType": "address",
          "name": "__owner",
          "type": "address"
        }
      ],
      "name": "updateOwner",
      "outputs": [],
      "stateMutability": "nonpayable",
      "type": "function"
    },
    {
      "inputs": [
        {
          "internalType": "uint256",
          "name": "tokenId",
          "type": "uint256"
        }
      ],
      "name": "tokenURI",
      "outputs": [
        {
          "internalType": "string",
          "name": "",
          "type": "string"
        }
      ],
      "stateMutability": "view",
      "type": "function",
      "constant": true
    },
    {
      "inputs": [],
      "name": "baseTokenURI",
      "outputs": [
        {
          "internalType": "string",
          "name": "",
          "type": "string"
        }
      ],
      "stateMutability": "view",
      "type": "function",
      "constant": true
    },
    {
      "inputs": [
        {
          "internalType": "string",
          "name": "tokenUriBase_",
          "type": "string"
        }
      ],
      "name": "setTokenURI",
      "outputs": [],
      "stateMutability": "nonpayable",
      "type": "function"
    },
    {
      "inputs": [],
      "name": "setStateToSetup",
      "outputs": [],
      "stateMutability": "nonpayable",
      "type": "function"
    },
    {
      "inputs": [],
      "name": "startPresale",
      "outputs": [],
      "stateMutability": "nonpayable",
      "type": "function"
    },
    {
      "inputs": [],
      "name": "setStateToSale",
      "outputs": [],
      "stateMutability": "nonpayable",
      "type": "function"
    },
    {
      "inputs": [],
      "name": "setStateToSoldOut",
      "outputs": [],
      "stateMutability": "nonpayable",
      "type": "function"
    },
    {
      "inputs": [
        {
          "internalType": "address[]",
          "name": "_addresses",
          "type": "address[]"
        },
        {
          "internalType": "uint256",
          "name": "quantity",
          "type": "uint256"
        }
      ],
      "name": "addToPresaleList",
      "outputs": [],
      "stateMutability": "nonpayable",
      "type": "function"
    },
    {
      "inputs": [
        {
          "internalType": "address",
          "name": "_address",
          "type": "address"
        }
      ],
      "name": "isOnPresaleList",
      "outputs": [
        {
          "internalType": "bool",
          "name": "",
          "type": "bool"
        }
      ],
      "stateMutability": "view",
      "type": "function",
      "constant": true
    },
    {
      "inputs": [
        {
          "internalType": "address[]",
          "name": "_addresses",
          "type": "address[]"
        }
      ],
      "name": "removeFromPresaleList",
      "outputs": [],
      "stateMutability": "nonpayable",
      "type": "function"
    },
    {
      "inputs": [
        {
          "internalType": "address[]",
          "name": "_addresses",
          "type": "address[]"
        },
        {
          "internalType": "uint256",
          "name": "quantity",
          "type": "uint256"
        }
      ],
      "name": "addAirdrop",
      "outputs": [],
      "stateMutability": "nonpayable",
      "type": "function"
    },
    {
      "inputs": [
        {
          "internalType": "address",
          "name": "_address",
          "type": "address"
        }
      ],
      "name": "hasAirdrop",
      "outputs": [
        {
          "internalType": "bool",
          "name": "",
          "type": "bool"
        }
      ],
      "stateMutability": "view",
      "type": "function",
      "constant": true
    },
    {
      "inputs": [
        {
          "internalType": "address[]",
          "name": "_addresses",
          "type": "address[]"
        }
      ],
      "name": "removeAirdrop",
      "outputs": [],
      "stateMutability": "nonpayable",
      "type": "function"
    },
    {
      "inputs": [],
      "name": "claimAirdrop",
      "outputs": [],
      "stateMutability": "nonpayable",
      "type": "function"
    },
    {
      "inputs": [],
      "name": "presaleMint",
      "outputs": [],
      "stateMutability": "payable",
      "type": "function",
      "payable": true
    },
    {
      "inputs": [],
      "name": "ownerMint",
      "outputs": [],
      "stateMutability": "payable",
      "type": "function",
      "payable": true
    },
    {
      "inputs": [],
      "name": "saleMint",
      "outputs": [],
      "stateMutability": "payable",
      "type": "function",
      "payable": true
    },
    {
      "inputs": [
        {
          "internalType": "address",
          "name": "recipient",
          "type": "address"
        }
      ],
      "name": "withdrawAll",
      "outputs": [],
      "stateMutability": "nonpayable",
      "type": "function"
    },
    {
      "inputs": [
        {
          "internalType": "address payable",
          "name": "_to",
          "type": "address"
        }
      ],
      "name": "withdrawAllViaCall",
      "outputs": [],
      "stateMutability": "nonpayable",
      "type": "function"
    },
    {
      "inputs": [
        {
          "internalType": "bytes4",
          "name": "interfaceId",
          "type": "bytes4"
        }
      ],
      "name": "supportsInterface",
      "outputs": [
        {
          "internalType": "bool",
          "name": "",
          "type": "bool"
        }
      ],
      "stateMutability": "view",
      "type": "function",
      "constant": true
    }
  ],
  "bytecode": "0x60806040526010600855600854600a6200001a919062000480565b60095566b1a2bc2ec50000600d556000600e556000600f553480156200003f57600080fd5b506040518060400160405280600881526020017f4365726f204e46540000000000000000000000000000000000000000000000008152506040518060400160405280600381526020017f43524f00000000000000000000000000000000000000000000000000000000008152508160009080519060200190620000c492919062000243565b508060019080519060200190620000dd92919062000243565b50505062000100620000f46200017560201b60201c565b6200017d60201b60201c565b33600b60016101000a81548173ffffffffffffffffffffffffffffffffffffffff021916908373ffffffffffffffffffffffffffffffffffffffff1602179055506000600b60006101000a81548160ff021916908360038111156200016a5762000169620004d1565b5b021790555062000565565b600033905090565b6000600760009054906101000a900473ffffffffffffffffffffffffffffffffffffffff16905081600760006101000a81548173ffffffffffffffffffffffffffffffffffffffff021916908373ffffffffffffffffffffffffffffffffffffffff1602179055508173ffffffffffffffffffffffffffffffffffffffff168173ffffffffffffffffffffffffffffffffffffffff167f8be0079c531659141344cd1fd0a4f28419497f9722a3daafe3b4186f6b6457e060405160405180910390a35050565b82805462000251906200052f565b90600052602060002090601f016020900481019282620002755760008555620002c1565b82601f106200029057805160ff1916838001178555620002c1565b82800160010185558215620002c1579182015b82811115620002c0578251825591602001919060010190620002a3565b5b509050620002d09190620002d4565b5090565b5b80821115620002ef576000816000905550600101620002d5565b5090565b7f4e487b7100000000000000000000000000000000000000000000000000000000600052601160045260246000fd5b60008160011c9050919050565b6000808291508390505b60018511156200038157808604811115620003595762000358620002f3565b5b6001851615620003695780820291505b8081029050620003798562000322565b945062000339565b94509492505050565b6000826200039c57600190506200046f565b81620003ac57600090506200046f565b8160018114620003c55760028114620003d05762000406565b60019150506200046f565b60ff841115620003e557620003e4620002f3565b5b8360020a915084821115620003ff57620003fe620002f3565b5b506200046f565b5060208310610133831016604e8410600b8410161715620004405782820a9050838111156200043a5762000439620002f3565b5b6200046f565b6200044f84848460016200032f565b92509050818404811115620004695762000468620002f3565b5b81810290505b9392505050565b6000819050919050565b60006200048d8262000476565b91506200049a8362000476565b9250620004c97fffffffffffffffffffffffffffffffffffffffffffffffffffffffffffffffff84846200038a565b905092915050565b7f4e487b7100000000000000000000000000000000000000000000000000000000600052602160045260246000fd5b7f4e487b7100000000000000000000000000000000000000000000000000000000600052602260045260246000fd5b600060028204905060018216806200054857607f821691505b602082108114156200055f576200055e62000500565b5b50919050565b61518c80620005756000396000f3fe6080604052600436106102455760003560e01c8063715018a611610139578063b7a72c5c116100b6578063dfee54871161007a578063dfee5487146107d7578063e0df5b6f146107e1578063e985e9c51461080a578063f053d2c714610847578063f2fde38b14610870578063fa09e6301461089957610245565b8063b7a72c5c146106f2578063b88d4fde14610709578063c87b56dd14610732578063d547cfb71461076f578063de00a68b1461079a57610245565b8063a2309ff8116100fd578063a2309ff814610640578063a905821a1461066b578063b12dc99114610694578063b179e0601461069e578063b2a71efd146106c757610245565b8063715018a614610581578063880cdc31146105985780638da5cb5b146105c157806395d89b41146105ec578063a22cb4651461061757610245565b80632c664e7e116101c75780636352211e1161018b5780636352211e1461047457806367cae0a8146104b15780636817c76c146104dc5780636c4be7911461050757806370a082311461054457610245565b80632c664e7e146103d857806342842e0e1461040157806343fa2ced1461042a57806359533d6c146104535780635b88349d1461045d57610245565b80630880c6511161020e5780630880c6511461032f578063095ea7b31461034657806316cb16eb1461036f57806323af88271461039857806323b872dd146103af57610245565b8062728e461461024a57806301ffc9a71461027357806304c98b2b146102b057806306fdde03146102c7578063081812fc146102f2575b600080fd5b34801561025657600080fd5b50610271600480360381019061026c91906136fc565b6108c2565b005b34801561027f57600080fd5b5061029a60048036038101906102959190613781565b610948565b6040516102a791906137c9565b60405180910390f35b3480156102bc57600080fd5b506102c561095a565b005b3480156102d357600080fd5b506102dc610a03565b6040516102e9919061387d565b60405180910390f35b3480156102fe57600080fd5b50610319600480360381019061031491906136fc565b610a95565b60405161032691906138e0565b60405180910390f35b34801561033b57600080fd5b50610344610b1a565b005b34801561035257600080fd5b5061036d60048036038101906103689190613927565b610bc3565b005b34801561037b57600080fd5b50610396600480360381019061039191906139cc565b610cdb565b005b3480156103a457600080fd5b506103ad610e80565b005b3480156103bb57600080fd5b506103d660048036038101906103d19190613a19565b610f29565b005b3480156103e457600080fd5b506103ff60048036038101906103fa91906136fc565b610f89565b005b34801561040d57600080fd5b5061042860048036038101906104239190613a19565b611023565b005b34801561043657600080fd5b50610451600480360381019061044c9190613a6c565b611043565b005b61045b611260565b005b34801561046957600080fd5b5061047261143d565b005b34801561048057600080fd5b5061049b600480360381019061049691906136fc565b6115e2565b6040516104a891906138e0565b60405180910390f35b3480156104bd57600080fd5b506104c6611694565b6040516104d39190613adb565b60405180910390f35b3480156104e857600080fd5b506104f161169a565b6040516104fe9190613adb565b60405180910390f35b34801561051357600080fd5b5061052e60048036038101906105299190613af6565b6116a4565b60405161053b91906137c9565b60405180910390f35b34801561055057600080fd5b5061056b60048036038101906105669190613af6565b6116ef565b6040516105789190613adb565b60405180910390f35b34801561058d57600080fd5b506105966117a7565b005b3480156105a457600080fd5b506105bf60048036038101906105ba9190613af6565b61182f565b005b3480156105cd57600080fd5b506105d66118ef565b6040516105e391906138e0565b60405180910390f35b3480156105f857600080fd5b50610601611919565b60405161060e919061387d565b60405180910390f35b34801561062357600080fd5b5061063e60048036038101906106399190613b4f565b6119ab565b005b34801561064c57600080fd5b506106556119c1565b6040516106629190613adb565b60405180910390f35b34801561067757600080fd5b50610692600480360381019061068d9190613bcd565b6119c7565b005b61069c611afc565b005b3480156106aa57600080fd5b506106c560048036038101906106c091906139cc565b611c3d565b005b3480156106d357600080fd5b506106dc611de2565b6040516106e99190613adb565b60405180910390f35b3480156106fe57600080fd5b50610707611de8565b005b34801561071557600080fd5b50610730600480360381019061072b9190613d2a565b611e91565b005b34801561073e57600080fd5b50610759600480360381019061075491906136fc565b611ef3565b604051610766919061387d565b60405180910390f35b34801561077b57600080fd5b50610784611f2d565b604051610791919061387d565b60405180910390f35b3480156107a657600080fd5b506107c160048036038101906107bc9190613af6565b611fbf565b6040516107ce91906137c9565b60405180910390f35b6107df61200a565b005b3480156107ed57600080fd5b5061080860048036038101906108039190613e4e565b6120cf565b005b34801561081657600080fd5b50610831600480360381019061082c9190613e97565b612165565b60405161083e91906137c9565b60405180910390f35b34801561085357600080fd5b5061086e60048036038101906108699190613a6c565b6121f9565b005b34801561087c57600080fd5b5061089760048036038101906108929190613af6565b612416565b005b3480156108a557600080fd5b506108c060048036038101906108bb9190613af6565b61250e565b005b6108ca612613565b73ffffffffffffffffffffffffffffffffffffffff166108e86118ef565b73ffffffffffffffffffffffffffffffffffffffff161461093e576040517f08c379a000000000000000000000000000000000000000000000000000000000815260040161093590613f23565b60405180910390fd5b80600d8190555050565b60006109538261261b565b9050919050565b610962612613565b73ffffffffffffffffffffffffffffffffffffffff166109806118ef565b73ffffffffffffffffffffffffffffffffffffffff16146109d6576040517f08c379a00000000000000000000000000000000000000000000000000000000081526004016109cd90613f23565b60405180910390fd5b6001600b60006101000a81548160ff021916908360038111156109fc576109fb613f43565b5b0217905550565b606060008054610a1290613fa1565b80601f0160208091040260200160405190810160405280929190818152602001828054610a3e90613fa1565b8015610a8b5780601f10610a6057610100808354040283529160200191610a8b565b820191906000526020600020905b815481529060010190602001808311610a6e57829003601f168201915b5050505050905090565b6000610aa0826126fd565b610adf576040517f08c379a0000000000000000000000000000000000000000000000000000000008152600401610ad690614045565b60405180910390fd5b6004600083815260200190815260200160002060009054906101000a900473ffffffffffffffffffffffffffffffffffffffff169050919050565b610b22612613565b73ffffffffffffffffffffffffffffffffffffffff16610b406118ef565b73ffffffffffffffffffffffffffffffffffffffff1614610b96576040517f08c379a0000000000000000000000000000000000000000000000000000000008152600401610b8d90613f23565b60405180910390fd5b6003600b60006101000a81548160ff02191690836003811115610bbc57610bbb613f43565b5b0217905550565b6000610bce826115e2565b90508073ffffffffffffffffffffffffffffffffffffffff168373ffffffffffffffffffffffffffffffffffffffff161415610c3f576040517f08c379a0000000000000000000000000000000000000000000000000000000008152600401610c36906140d7565b60405180910390fd5b8073ffffffffffffffffffffffffffffffffffffffff16610c5e612613565b73ffffffffffffffffffffffffffffffffffffffff161480610c8d5750610c8c81610c87612613565b612165565b5b610ccc576040517f08c379a0000000000000000000000000000000000000000000000000000000008152600401610cc390614169565b60405180910390fd5b610cd68383612769565b505050565b610ce3612613565b73ffffffffffffffffffffffffffffffffffffffff16610d016118ef565b73ffffffffffffffffffffffffffffffffffffffff1614610d57576040517f08c379a0000000000000000000000000000000000000000000000000000000008152600401610d4e90613f23565b60405180910390fd5b60005b82829050811015610e7b57600073ffffffffffffffffffffffffffffffffffffffff16838383818110610d9057610d8f614189565b5b9050602002016020810190610da59190613af6565b73ffffffffffffffffffffffffffffffffffffffff161415610dfc576040517f08c379a0000000000000000000000000000000000000000000000000000000008152600401610df39061422a565b60405180910390fd5b600060126000858585818110610e1557610e14614189565b5b9050602002016020810190610e2a9190613af6565b73ffffffffffffffffffffffffffffffffffffffff1673ffffffffffffffffffffffffffffffffffffffff168152602001908152602001600020819055508080610e7390614279565b915050610d5a565b505050565b610e88612613565b73ffffffffffffffffffffffffffffffffffffffff16610ea66118ef565b73ffffffffffffffffffffffffffffffffffffffff1614610efc576040517f08c379a0000000000000000000000000000000000000000000000000000000008152600401610ef390613f23565b60405180910390fd5b6000600b60006101000a81548160ff02191690836003811115610f2257610f21613f43565b5b0217905550565b610f3a610f34612613565b82612822565b610f79576040517f08c379a0000000000000000000000000000000000000000000000000000000008152600401610f7090614334565b60405180910390fd5b610f84838383612900565b505050565b610f91612613565b73ffffffffffffffffffffffffffffffffffffffff16610faf6118ef565b73ffffffffffffffffffffffffffffffffffffffff1614611005576040517f08c379a0000000000000000000000000000000000000000000000000000000008152600401610ffc90613f23565b60405180910390fd5b61101a81600f54612b5c90919063ffffffff16565b600f8190555050565b61103e83838360405180602001604052806000815250611e91565b505050565b61104b612613565b73ffffffffffffffffffffffffffffffffffffffff166110696118ef565b73ffffffffffffffffffffffffffffffffffffffff16146110bf576040517f08c379a00000000000000000000000000000000000000000000000000000000081526004016110b690613f23565b60405180910390fd5b60005b8383905081101561125a57600073ffffffffffffffffffffffffffffffffffffffff168484838181106110f8576110f7614189565b5b905060200201602081019061110d9190613af6565b73ffffffffffffffffffffffffffffffffffffffff161415611164576040517f08c379a000000000000000000000000000000000000000000000000000000000815260040161115b906143c6565b60405180910390fd5b6111dd826011600087878681811061117f5761117e614189565b5b90506020020160208101906111949190613af6565b73ffffffffffffffffffffffffffffffffffffffff1673ffffffffffffffffffffffffffffffffffffffff16815260200190815260200160002054612b5c90919063ffffffff16565b601160008686858181106111f4576111f3614189565b5b90506020020160208101906112099190613af6565b73ffffffffffffffffffffffffffffffffffffffff1673ffffffffffffffffffffffffffffffffffffffff16815260200190815260200160002081905550808061125290614279565b9150506110c2565b50505050565b6001600381111561127457611273613f43565b5b600b60009054906101000a900460ff16600381111561129657611295613f43565b5b146112d6576040517f08c379a00000000000000000000000000000000000000000000000000000000081526004016112cd90614432565b60405180910390fd5b6000601160003373ffffffffffffffffffffffffffffffffffffffff1673ffffffffffffffffffffffffffffffffffffffff1681526020019081526020016000205411611358576040517f08c379a000000000000000000000000000000000000000000000000000000000815260040161134f906144c4565b60405180910390fd5b600d5434101561139d576040517f08c379a000000000000000000000000000000000000000000000000000000000815260040161139490614530565b60405180910390fd5b6113a5612b72565b6113f86001601160003373ffffffffffffffffffffffffffffffffffffffff1673ffffffffffffffffffffffffffffffffffffffff16815260200190815260200160002054612d3990919063ffffffff16565b601160003373ffffffffffffffffffffffffffffffffffffffff1673ffffffffffffffffffffffffffffffffffffffff16815260200190815260200160002081905550565b6003808111156114505761144f613f43565b5b600b60009054906101000a900460ff16600381111561147257611471613f43565b5b14156114b3576040517f08c379a00000000000000000000000000000000000000000000000000000000081526004016114aa9061459c565b60405180910390fd5b6000601260003373ffffffffffffffffffffffffffffffffffffffff1673ffffffffffffffffffffffffffffffffffffffff1681526020019081526020016000205411611535576040517f08c379a000000000000000000000000000000000000000000000000000000000815260040161152c906144c4565b60405180910390fd5b60005b601260003373ffffffffffffffffffffffffffffffffffffffff1673ffffffffffffffffffffffffffffffffffffffff1681526020019081526020016000205481101561159a57611587612b72565b808061159290614279565b915050611538565b506000601260003373ffffffffffffffffffffffffffffffffffffffff1673ffffffffffffffffffffffffffffffffffffffff16815260200190815260200160002081905550565b6000806002600084815260200190815260200160002060009054906101000a900473ffffffffffffffffffffffffffffffffffffffff169050600073ffffffffffffffffffffffffffffffffffffffff168173ffffffffffffffffffffffffffffffffffffffff16141561168b576040517f08c379a00000000000000000000000000000000000000000000000000000000081526004016116829061462e565b60405180910390fd5b80915050919050565b600f5481565b6000600d54905090565b600080601260008473ffffffffffffffffffffffffffffffffffffffff1673ffffffffffffffffffffffffffffffffffffffff16815260200190815260200160002054119050919050565b60008073ffffffffffffffffffffffffffffffffffffffff168273ffffffffffffffffffffffffffffffffffffffff161415611760576040517f08c379a0000000000000000000000000000000000000000000000000000000008152600401611757906146c0565b60405180910390fd5b600360008373ffffffffffffffffffffffffffffffffffffffff1673ffffffffffffffffffffffffffffffffffffffff168152602001908152602001600020549050919050565b6117af612613565b73ffffffffffffffffffffffffffffffffffffffff166117cd6118ef565b73ffffffffffffffffffffffffffffffffffffffff1614611823576040517f08c379a000000000000000000000000000000000000000000000000000000000815260040161181a90613f23565b60405180910390fd5b61182d6000612d4f565b565b611837612613565b73ffffffffffffffffffffffffffffffffffffffff166118556118ef565b73ffffffffffffffffffffffffffffffffffffffff16146118ab576040517f08c379a00000000000000000000000000000000000000000000000000000000081526004016118a290613f23565b60405180910390fd5b80600b60016101000a81548173ffffffffffffffffffffffffffffffffffffffff021916908373ffffffffffffffffffffffffffffffffffffffff16021790555050565b6000600760009054906101000a900473ffffffffffffffffffffffffffffffffffffffff16905090565b60606001805461192890613fa1565b80601f016020809104026020016040519081016040528092919081815260200182805461195490613fa1565b80156119a15780601f10611976576101008083540402835291602001916119a1565b820191906000526020600020905b81548152906001019060200180831161198457829003601f168201915b5050505050905090565b6119bd6119b6612613565b8383612e15565b5050565b600e5481565b6119cf612613565b73ffffffffffffffffffffffffffffffffffffffff166119ed6118ef565b73ffffffffffffffffffffffffffffffffffffffff1614611a43576040517f08c379a0000000000000000000000000000000000000000000000000000000008152600401611a3a90613f23565b60405180910390fd5b60004790506000808373ffffffffffffffffffffffffffffffffffffffff1683604051611a6f90614711565b60006040518083038185875af1925050503d8060008114611aac576040519150601f19603f3d011682016040523d82523d6000602084013e611ab1565b606091505b509150915081611af6576040517f08c379a0000000000000000000000000000000000000000000000000000000008152600401611aed90614772565b60405180910390fd5b50505050565b611b04612613565b73ffffffffffffffffffffffffffffffffffffffff16611b226118ef565b73ffffffffffffffffffffffffffffffffffffffff1614611b78576040517f08c379a0000000000000000000000000000000000000000000000000000000008152600401611b6f90613f23565b60405180910390fd5b600380811115611b8b57611b8a613f43565b5b600b60009054906101000a900460ff166003811115611bad57611bac613f43565b5b1415611bee576040517f08c379a0000000000000000000000000000000000000000000000000000000008152600401611be5906147de565b60405180910390fd5b600d54341015611c33576040517f08c379a0000000000000000000000000000000000000000000000000000000008152600401611c2a90614530565b60405180910390fd5b611c3b612b72565b565b611c45612613565b73ffffffffffffffffffffffffffffffffffffffff16611c636118ef565b73ffffffffffffffffffffffffffffffffffffffff1614611cb9576040517f08c379a0000000000000000000000000000000000000000000000000000000008152600401611cb090613f23565b60405180910390fd5b60005b82829050811015611ddd57600073ffffffffffffffffffffffffffffffffffffffff16838383818110611cf257611cf1614189565b5b9050602002016020810190611d079190613af6565b73ffffffffffffffffffffffffffffffffffffffff161415611d5e576040517f08c379a0000000000000000000000000000000000000000000000000000000008152600401611d559061422a565b60405180910390fd5b600060116000858585818110611d7757611d76614189565b5b9050602002016020810190611d8c9190613af6565b73ffffffffffffffffffffffffffffffffffffffff1673ffffffffffffffffffffffffffffffffffffffff168152602001908152602001600020819055508080611dd590614279565b915050611cbc565b505050565b61270f81565b611df0612613565b73ffffffffffffffffffffffffffffffffffffffff16611e0e6118ef565b73ffffffffffffffffffffffffffffffffffffffff1614611e64576040517f08c379a0000000000000000000000000000000000000000000000000000000008152600401611e5b90613f23565b60405180910390fd5b6002600b60006101000a81548160ff02191690836003811115611e8a57611e89613f43565b5b0217905550565b611ea2611e9c612613565b83612822565b611ee1576040517f08c379a0000000000000000000000000000000000000000000000000000000008152600401611ed890614334565b60405180910390fd5b611eed84848484612f82565b50505050565b6060611efd611f2d565b611f0683612fde565b604051602001611f1792919061483a565b6040516020818303038152906040529050919050565b6060600c8054611f3c90613fa1565b80601f0160208091040260200160405190810160405280929190818152602001828054611f6890613fa1565b8015611fb55780601f10611f8a57610100808354040283529160200191611fb5565b820191906000526020600020905b815481529060010190602001808311611f9857829003601f168201915b5050505050905090565b600080601160008473ffffffffffffffffffffffffffffffffffffffff1673ffffffffffffffffffffffffffffffffffffffff16815260200190815260200160002054119050919050565b6002600381111561201e5761201d613f43565b5b600b60009054906101000a900460ff1660038111156120405761203f613f43565b5b14612080576040517f08c379a0000000000000000000000000000000000000000000000000000000008152600401612077906148aa565b60405180910390fd5b600d543410156120c5576040517f08c379a00000000000000000000000000000000000000000000000000000000081526004016120bc90614530565b60405180910390fd5b6120cd612b72565b565b6120d7612613565b73ffffffffffffffffffffffffffffffffffffffff166120f56118ef565b73ffffffffffffffffffffffffffffffffffffffff161461214b576040517f08c379a000000000000000000000000000000000000000000000000000000000815260040161214290613f23565b60405180910390fd5b80600c908051906020019061216192919061360f565b5050565b6000600560008473ffffffffffffffffffffffffffffffffffffffff1673ffffffffffffffffffffffffffffffffffffffff16815260200190815260200160002060008373ffffffffffffffffffffffffffffffffffffffff1673ffffffffffffffffffffffffffffffffffffffff16815260200190815260200160002060009054906101000a900460ff16905092915050565b612201612613565b73ffffffffffffffffffffffffffffffffffffffff1661221f6118ef565b73ffffffffffffffffffffffffffffffffffffffff1614612275576040517f08c379a000000000000000000000000000000000000000000000000000000000815260040161226c90613f23565b60405180910390fd5b60005b8383905081101561241057600073ffffffffffffffffffffffffffffffffffffffff168484838181106122ae576122ad614189565b5b90506020020160208101906122c39190613af6565b73ffffffffffffffffffffffffffffffffffffffff16141561231a576040517f08c379a0000000000000000000000000000000000000000000000000000000008152600401612311906143c6565b60405180910390fd5b612393826012600087878681811061233557612334614189565b5b905060200201602081019061234a9190613af6565b73ffffffffffffffffffffffffffffffffffffffff1673ffffffffffffffffffffffffffffffffffffffff16815260200190815260200160002054612b5c90919063ffffffff16565b601260008686858181106123aa576123a9614189565b5b90506020020160208101906123bf9190613af6565b73ffffffffffffffffffffffffffffffffffffffff1673ffffffffffffffffffffffffffffffffffffffff16815260200190815260200160002081905550808061240890614279565b915050612278565b50505050565b61241e612613565b73ffffffffffffffffffffffffffffffffffffffff1661243c6118ef565b73ffffffffffffffffffffffffffffffffffffffff1614612492576040517f08c379a000000000000000000000000000000000000000000000000000000000815260040161248990613f23565b60405180910390fd5b600073ffffffffffffffffffffffffffffffffffffffff168173ffffffffffffffffffffffffffffffffffffffff161415612502576040517f08c379a00000000000000000000000000000000000000000000000000000000081526004016124f99061493c565b60405180910390fd5b61250b81612d4f565b50565b612516612613565b73ffffffffffffffffffffffffffffffffffffffff166125346118ef565b73ffffffffffffffffffffffffffffffffffffffff161461258a576040517f08c379a000000000000000000000000000000000000000000000000000000000815260040161258190613f23565b60405180910390fd5b60004790508173ffffffffffffffffffffffffffffffffffffffff166108fc829081150290604051600060405180830381858888f193505050501580156125d5573d6000803e3d6000fd5b507fdd14374458d4625d231f09a9f173ecc29d3953e238011f5ff6d06e94ac6b2bcd828260405161260792919061495c565b60405180910390a15050565b600033905090565b60007f80ac58cd000000000000000000000000000000000000000000000000000000007bffffffffffffffffffffffffffffffffffffffffffffffffffffffff1916827bffffffffffffffffffffffffffffffffffffffffffffffffffffffff191614806126e657507f5b5e139f000000000000000000000000000000000000000000000000000000007bffffffffffffffffffffffffffffffffffffffffffffffffffffffff1916827bffffffffffffffffffffffffffffffffffffffffffffffffffffffff1916145b806126f657506126f58261313f565b5b9050919050565b60008073ffffffffffffffffffffffffffffffffffffffff166002600084815260200190815260200160002060009054906101000a900473ffffffffffffffffffffffffffffffffffffffff1673ffffffffffffffffffffffffffffffffffffffff1614159050919050565b816004600083815260200190815260200160002060006101000a81548173ffffffffffffffffffffffffffffffffffffffff021916908373ffffffffffffffffffffffffffffffffffffffff160217905550808273ffffffffffffffffffffffffffffffffffffffff166127dc836115e2565b73ffffffffffffffffffffffffffffffffffffffff167f8c5be1e5ebec7d5bd14f71427d1e84f3dd0314c0f7b2291e5b200ac8c7c3b92560405160405180910390a45050565b600061282d826126fd565b61286c576040517f08c379a0000000000000000000000000000000000000000000000000000000008152600401612863906149f7565b60405180910390fd5b6000612877836115e2565b90508073ffffffffffffffffffffffffffffffffffffffff168473ffffffffffffffffffffffffffffffffffffffff1614806128e657508373ffffffffffffffffffffffffffffffffffffffff166128ce84610a95565b73ffffffffffffffffffffffffffffffffffffffff16145b806128f757506128f68185612165565b5b91505092915050565b8273ffffffffffffffffffffffffffffffffffffffff16612920826115e2565b73ffffffffffffffffffffffffffffffffffffffff1614612976576040517f08c379a000000000000000000000000000000000000000000000000000000000815260040161296d90614a89565b60405180910390fd5b600073ffffffffffffffffffffffffffffffffffffffff168273ffffffffffffffffffffffffffffffffffffffff1614156129e6576040517f08c379a00000000000000000000000000000000000000000000000000000000081526004016129dd90614b1b565b60405180910390fd5b6129f18383836131a9565b6129fc600082612769565b6001600360008573ffffffffffffffffffffffffffffffffffffffff1673ffffffffffffffffffffffffffffffffffffffff1681526020019081526020016000206000828254612a4c9190614b3b565b925050819055506001600360008473ffffffffffffffffffffffffffffffffffffffff1673ffffffffffffffffffffffffffffffffffffffff1681526020019081526020016000206000828254612aa39190614b6f565b92505081905550816002600083815260200190815260200160002060006101000a81548173ffffffffffffffffffffffffffffffffffffffff021916908373ffffffffffffffffffffffffffffffffffffffff160217905550808273ffffffffffffffffffffffffffffffffffffffff168473ffffffffffffffffffffffffffffffffffffffff167fddf252ad1be2c89b69c2b068fc378daa952ba7f163c4a11628f55a4df523b3ef60405160405180910390a4505050565b60008183612b6a9190614b6f565b905092915050565b612b7b336131b9565b15612bbb576040517f08c379a0000000000000000000000000000000000000000000000000000000008152600401612bb290614c37565b60405180910390fd5b61270f612bdb6001612bcd600a6131cc565b612b5c90919063ffffffff16565b1115612c1c576040517f08c379a0000000000000000000000000000000000000000000000000000000008152600401612c1390614ca3565b60405180910390fd5b6000600f5411612c61576040517f08c379a0000000000000000000000000000000000000000000000000000000008152600401612c5890614d0f565b60405180910390fd5b6000612c6d600a6131cc565b9050612c7933826131da565b612c83600a6131f8565b612c996001600e54612b5c90919063ffffffff16565b600e819055506000612caa8261320e565b90508060106000848152602001908152602001600020819055507f30385c845b448a36257a6a1716e6ad2e1bc2cbe333cde1e69fe849ad6511adfe336001604051612cf6929190614d74565b60405180910390a161270f600e5410612d35576003600b60006101000a81548160ff02191690836003811115612d2f57612d2e613f43565b5b02179055505b5050565b60008183612d479190614b3b565b905092915050565b6000600760009054906101000a900473ffffffffffffffffffffffffffffffffffffffff16905081600760006101000a81548173ffffffffffffffffffffffffffffffffffffffff021916908373ffffffffffffffffffffffffffffffffffffffff1602179055508173ffffffffffffffffffffffffffffffffffffffff168173ffffffffffffffffffffffffffffffffffffffff167f8be0079c531659141344cd1fd0a4f28419497f9722a3daafe3b4186f6b6457e060405160405180910390a35050565b8173ffffffffffffffffffffffffffffffffffffffff168373ffffffffffffffffffffffffffffffffffffffff161415612e84576040517f08c379a0000000000000000000000000000000000000000000000000000000008152600401612e7b90614de9565b60405180910390fd5b80600560008573ffffffffffffffffffffffffffffffffffffffff1673ffffffffffffffffffffffffffffffffffffffff16815260200190815260200160002060008473ffffffffffffffffffffffffffffffffffffffff1673ffffffffffffffffffffffffffffffffffffffff16815260200190815260200160002060006101000a81548160ff0219169083151502179055508173ffffffffffffffffffffffffffffffffffffffff168373ffffffffffffffffffffffffffffffffffffffff167f17307eab39ab6107e8899845ad3d59bd9653f200f220920489ca2b5937696c3183604051612f7591906137c9565b60405180910390a3505050565b612f8d848484612900565b612f9984848484613259565b612fd8576040517f08c379a0000000000000000000000000000000000000000000000000000000008152600401612fcf90614e7b565b60405180910390fd5b50505050565b60606000821415613026576040518060400160405280600181526020017f3000000000000000000000000000000000000000000000000000000000000000815250905061313a565b600082905060005b6000821461305857808061304190614279565b915050600a826130519190614eca565b915061302e565b60008167ffffffffffffffff81111561307457613073613bff565b5b6040519080825280601f01601f1916602001820160405280156130a65781602001600182028036833780820191505090505b5090505b60008514613133576001826130bf9190614b3b565b9150600a856130ce9190614efb565b60306130da9190614b6f565b60f81b8183815181106130f0576130ef614189565b5b60200101907effffffffffffffffffffffffffffffffffffffffffffffffffffffffffffff1916908160001a905350600a8561312c9190614eca565b94506130aa565b8093505050505b919050565b60007f01ffc9a7000000000000000000000000000000000000000000000000000000007bffffffffffffffffffffffffffffffffffffffffffffffffffffffff1916827bffffffffffffffffffffffffffffffffffffffffffffffffffffffff1916149050919050565b6131b48383836133e1565b505050565b600080823b905060008111915050919050565b600081600001549050919050565b6131f48282604051806020016040528060008152506133e6565b5050565b6001816000016000828254019250508190555050565b600080444243856040516020016132289493929190614f4d565b6040516020818303038152906040528051906020012060001c9050600954816132519190614efb565b915050919050565b600061327a8473ffffffffffffffffffffffffffffffffffffffff166131b9565b156133d4578373ffffffffffffffffffffffffffffffffffffffff1663150b7a026132a3612613565b8786866040518563ffffffff1660e01b81526004016132c59493929190614ff0565b6020604051808303816000875af192505050801561330157506040513d601f19601f820116820180604052508101906132fe9190615051565b60015b613384573d8060008114613331576040519150601f19603f3d011682016040523d82523d6000602084013e613336565b606091505b5060008151141561337c576040517f08c379a000000000000000000000000000000000000000000000000000000000815260040161337390614e7b565b60405180910390fd5b805181602001fd5b63150b7a0260e01b7bffffffffffffffffffffffffffffffffffffffffffffffffffffffff1916817bffffffffffffffffffffffffffffffffffffffffffffffffffffffff1916149150506133d9565b600190505b949350505050565b505050565b6133f08383613441565b6133fd6000848484613259565b61343c576040517f08c379a000000000000000000000000000000000000000000000000000000000815260040161343390614e7b565b60405180910390fd5b505050565b600073ffffffffffffffffffffffffffffffffffffffff168273ffffffffffffffffffffffffffffffffffffffff1614156134b1576040517f08c379a00000000000000000000000000000000000000000000000000000000081526004016134a8906150ca565b60405180910390fd5b6134ba816126fd565b156134fa576040517f08c379a00000000000000000000000000000000000000000000000000000000081526004016134f190615136565b60405180910390fd5b613506600083836131a9565b6001600360008473ffffffffffffffffffffffffffffffffffffffff1673ffffffffffffffffffffffffffffffffffffffff16815260200190815260200160002060008282546135569190614b6f565b92505081905550816002600083815260200190815260200160002060006101000a81548173ffffffffffffffffffffffffffffffffffffffff021916908373ffffffffffffffffffffffffffffffffffffffff160217905550808273ffffffffffffffffffffffffffffffffffffffff16600073ffffffffffffffffffffffffffffffffffffffff167fddf252ad1be2c89b69c2b068fc378daa952ba7f163c4a11628f55a4df523b3ef60405160405180910390a45050565b82805461361b90613fa1565b90600052602060002090601f01602090048101928261363d5760008555613684565b82601f1061365657805160ff1916838001178555613684565b82800160010185558215613684579182015b82811115613683578251825591602001919060010190613668565b5b5090506136919190613695565b5090565b5b808211156136ae576000816000905550600101613696565b5090565b6000604051905090565b600080fd5b600080fd5b6000819050919050565b6136d9816136c6565b81146136e457600080fd5b50565b6000813590506136f6816136d0565b92915050565b600060208284031215613712576137116136bc565b5b6000613720848285016136e7565b91505092915050565b60007fffffffff0000000000000000000000000000000000000000000000000000000082169050919050565b61375e81613729565b811461376957600080fd5b50565b60008135905061377b81613755565b92915050565b600060208284031215613797576137966136bc565b5b60006137a58482850161376c565b91505092915050565b60008115159050919050565b6137c3816137ae565b82525050565b60006020820190506137de60008301846137ba565b92915050565b600081519050919050565b600082825260208201905092915050565b60005b8381101561381e578082015181840152602081019050613803565b8381111561382d576000848401525b50505050565b6000601f19601f8301169050919050565b600061384f826137e4565b61385981856137ef565b9350613869818560208601613800565b61387281613833565b840191505092915050565b600060208201905081810360008301526138978184613844565b905092915050565b600073ffffffffffffffffffffffffffffffffffffffff82169050919050565b60006138ca8261389f565b9050919050565b6138da816138bf565b82525050565b60006020820190506138f560008301846138d1565b92915050565b613904816138bf565b811461390f57600080fd5b50565b600081359050613921816138fb565b92915050565b6000806040838503121561393e5761393d6136bc565b5b600061394c85828601613912565b925050602061395d858286016136e7565b9150509250929050565b600080fd5b600080fd5b600080fd5b60008083601f84011261398c5761398b613967565b5b8235905067ffffffffffffffff8111156139a9576139a861396c565b5b6020830191508360208202830111156139c5576139c4613971565b5b9250929050565b600080602083850312156139e3576139e26136bc565b5b600083013567ffffffffffffffff811115613a0157613a006136c1565b5b613a0d85828601613976565b92509250509250929050565b600080600060608486031215613a3257613a316136bc565b5b6000613a4086828701613912565b9350506020613a5186828701613912565b9250506040613a62868287016136e7565b9150509250925092565b600080600060408486031215613a8557613a846136bc565b5b600084013567ffffffffffffffff811115613aa357613aa26136c1565b5b613aaf86828701613976565b93509350506020613ac2868287016136e7565b9150509250925092565b613ad5816136c6565b82525050565b6000602082019050613af06000830184613acc565b92915050565b600060208284031215613b0c57613b0b6136bc565b5b6000613b1a84828501613912565b91505092915050565b613b2c816137ae565b8114613b3757600080fd5b50565b600081359050613b4981613b23565b92915050565b60008060408385031215613b6657613b656136bc565b5b6000613b7485828601613912565b9250506020613b8585828601613b3a565b9150509250929050565b6000613b9a8261389f565b9050919050565b613baa81613b8f565b8114613bb557600080fd5b50565b600081359050613bc781613ba1565b92915050565b600060208284031215613be357613be26136bc565b5b6000613bf184828501613bb8565b91505092915050565b600080fd5b7f4e487b7100000000000000000000000000000000000000000000000000000000600052604160045260246000fd5b613c3782613833565b810181811067ffffffffffffffff82111715613c5657613c55613bff565b5b80604052505050565b6000613c696136b2565b9050613c758282613c2e565b919050565b600067ffffffffffffffff821115613c9557613c94613bff565b5b613c9e82613833565b9050602081019050919050565b82818337600083830152505050565b6000613ccd613cc884613c7a565b613c5f565b905082815260208101848484011115613ce957613ce8613bfa565b5b613cf4848285613cab565b509392505050565b600082601f830112613d1157613d10613967565b5b8135613d21848260208601613cba565b91505092915050565b60008060008060808587031215613d4457613d436136bc565b5b6000613d5287828801613912565b9450506020613d6387828801613912565b9350506040613d74878288016136e7565b925050606085013567ffffffffffffffff811115613d9557613d946136c1565b5b613da187828801613cfc565b91505092959194509250565b600067ffffffffffffffff821115613dc857613dc7613bff565b5b613dd182613833565b9050602081019050919050565b6000613df1613dec84613dad565b613c5f565b905082815260208101848484011115613e0d57613e0c613bfa565b5b613e18848285613cab565b509392505050565b600082601f830112613e3557613e34613967565b5b8135613e45848260208601613dde565b91505092915050565b600060208284031215613e6457613e636136bc565b5b600082013567ffffffffffffffff811115613e8257613e816136c1565b5b613e8e84828501613e20565b91505092915050565b60008060408385031215613eae57613ead6136bc565b5b6000613ebc85828601613912565b9250506020613ecd85828601613912565b9150509250929050565b7f4f776e61626c653a2063616c6c6572206973206e6f7420746865206f776e6572600082015250565b6000613f0d6020836137ef565b9150613f1882613ed7565b602082019050919050565b60006020820190508181036000830152613f3c81613f00565b9050919050565b7f4e487b7100000000000000000000000000000000000000000000000000000000600052602160045260246000fd5b7f4e487b7100000000000000000000000000000000000000000000000000000000600052602260045260246000fd5b60006002820490506001821680613fb957607f821691505b60208210811415613fcd57613fcc613f72565b5b50919050565b7f4552433732313a20617070726f76656420717565727920666f72206e6f6e657860008201527f697374656e7420746f6b656e0000000000000000000000000000000000000000602082015250565b600061402f602c836137ef565b915061403a82613fd3565b604082019050919050565b6000602082019050818103600083015261405e81614022565b9050919050565b7f4552433732313a20617070726f76616c20746f2063757272656e74206f776e6560008201527f7200000000000000000000000000000000000000000000000000000000000000602082015250565b60006140c16021836137ef565b91506140cc82614065565b604082019050919050565b600060208201905081810360008301526140f0816140b4565b9050919050565b7f4552433732313a20617070726f76652063616c6c6572206973206e6f74206f7760008201527f6e6572206e6f7220617070726f76656420666f7220616c6c0000000000000000602082015250565b60006141536038836137ef565b915061415e826140f7565b604082019050919050565b6000602082019050818103600083015261418281614146565b9050919050565b7f4e487b7100000000000000000000000000000000000000000000000000000000600052603260045260246000fd5b7f4d6573736167653a2043616e27742072656d6f76652061207a65726f2061646460008201527f7265737300000000000000000000000000000000000000000000000000000000602082015250565b60006142146024836137ef565b915061421f826141b8565b604082019050919050565b6000602082019050818103600083015261424381614207565b9050919050565b7f4e487b7100000000000000000000000000000000000000000000000000000000600052601160045260246000fd5b6000614284826136c6565b91507fffffffffffffffffffffffffffffffffffffffffffffffffffffffffffffffff8214156142b7576142b661424a565b5b600182019050919050565b7f4552433732313a207472616e736665722063616c6c6572206973206e6f74206f60008201527f776e6572206e6f7220617070726f766564000000000000000000000000000000602082015250565b600061431e6031836137ef565b9150614329826142c2565b604082019050919050565b6000602082019050818103600083015261434d81614311565b9050919050565b7f4d6573736167653a2043616e2774206164642061207a65726f2061646472657360008201527f7300000000000000000000000000000000000000000000000000000000000000602082015250565b60006143b06021836137ef565b91506143bb82614354565b604082019050919050565b600060208201905081810360008301526143df816143a3565b9050919050565b7f50726573616c65206973206e6f74206163746976652e00000000000000000000600082015250565b600061441c6016836137ef565b9150614427826143e6565b602082019050919050565b6000602082019050818103600083015261444b8161440f565b9050919050565b7f5468652077616c6c65742061646472657373206973206e6f7420616c6c6f776560008201527f6420746f206d696e74204365726f732e00000000000000000000000000000000602082015250565b60006144ae6030836137ef565b91506144b982614452565b604082019050919050565b600060208201905081810360008301526144dd816144a1565b9050919050565b7f45746865722076616c75652073656e7420697320696e636f72726563742e0000600082015250565b600061451a601e836137ef565b9150614525826144e4565b602082019050919050565b600060208201905081810360008301526145498161450d565b9050919050565b7f4d696e74206973206e6f74206163746976652e00000000000000000000000000600082015250565b60006145866013836137ef565b915061459182614550565b602082019050919050565b600060208201905081810360008301526145b581614579565b9050919050565b7f4552433732313a206f776e657220717565727920666f72206e6f6e657869737460008201527f656e7420746f6b656e0000000000000000000000000000000000000000000000602082015250565b60006146186029836137ef565b9150614623826145bc565b604082019050919050565b600060208201905081810360008301526146478161460b565b9050919050565b7f4552433732313a2062616c616e636520717565727920666f7220746865207a6560008201527f726f206164647265737300000000000000000000000000000000000000000000602082015250565b60006146aa602a836137ef565b91506146b58261464e565b604082019050919050565b600060208201905081810360008301526146d98161469d565b9050919050565b600081905092915050565b50565b60006146fb6000836146e0565b9150614706826146eb565b600082019050919050565b600061471c826146ee565b9150819050919050565b7f4661696c656420746f2073656e64204574686572000000000000000000000000600082015250565b600061475c6014836137ef565b915061476782614726565b602082019050919050565b6000602082019050818103600083015261478b8161474f565b9050919050565b7f4d696e74206973206e6f7420617661696c61626c652e00000000000000000000600082015250565b60006147c86016836137ef565b91506147d382614792565b602082019050919050565b600060208201905081810360008301526147f7816147bb565b9050919050565b600081905092915050565b6000614814826137e4565b61481e81856147fe565b935061482e818560208601613800565b80840191505092915050565b60006148468285614809565b91506148528284614809565b91508190509392505050565b7f53616c65206973206e6f74206163746976652e00000000000000000000000000600082015250565b60006148946013836137ef565b915061489f8261485e565b602082019050919050565b600060208201905081810360008301526148c381614887565b9050919050565b7f4f776e61626c653a206e6577206f776e657220697320746865207a65726f206160008201527f6464726573730000000000000000000000000000000000000000000000000000602082015250565b60006149266026836137ef565b9150614931826148ca565b604082019050919050565b6000602082019050818103600083015261495581614919565b9050919050565b600060408201905061497160008301856138d1565b61497e6020830184613acc565b9392505050565b7f4552433732313a206f70657261746f7220717565727920666f72206e6f6e657860008201527f697374656e7420746f6b656e0000000000000000000000000000000000000000602082015250565b60006149e1602c836137ef565b91506149ec82614985565b604082019050919050565b60006020820190508181036000830152614a10816149d4565b9050919050565b7f4552433732313a207472616e73666572206f6620746f6b656e2074686174206960008201527f73206e6f74206f776e0000000000000000000000000000000000000000000000602082015250565b6000614a736029836137ef565b9150614a7e82614a17565b604082019050919050565b60006020820190508181036000830152614aa281614a66565b9050919050565b7f4552433732313a207472616e7366657220746f20746865207a65726f2061646460008201527f7265737300000000000000000000000000000000000000000000000000000000602082015250565b6000614b056024836137ef565b9150614b1082614aa9565b604082019050919050565b60006020820190508181036000830152614b3481614af8565b9050919050565b6000614b46826136c6565b9150614b51836136c6565b925082821015614b6457614b6361424a565b5b828203905092915050565b6000614b7a826136c6565b9150614b85836136c6565b9250827fffffffffffffffffffffffffffffffffffffffffffffffffffffffffffffffff03821115614bba57614bb961424a565b5b828201905092915050565b7f436f6e74726163747320617265206e6f7420616c6c6f77656420746f206d696e60008201527f74204365726f732e000000000000000000000000000000000000000000000000602082015250565b6000614c216028836137ef565b9150614c2c82614bc5565b604082019050919050565b60006020820190508181036000830152614c5081614c14565b9050919050565b7f4d617820737570706c79206f6620746f6b656e732065786365656465642e0000600082015250565b6000614c8d601e836137ef565b9150614c9882614c57565b602082019050919050565b60006020820190508181036000830152614cbc81614c80565b9050919050565b7f4e6f20746f6b656e7320617661696c61626c6520746f206d696e742e00000000600082015250565b6000614cf9601c836137ef565b9150614d0482614cc3565b602082019050919050565b60006020820190508181036000830152614d2881614cec565b9050919050565b6000819050919050565b6000819050919050565b6000614d5e614d59614d5484614d2f565b614d39565b6136c6565b9050919050565b614d6e81614d43565b82525050565b6000604082019050614d8960008301856138d1565b614d966020830184614d65565b9392505050565b7f4552433732313a20617070726f766520746f2063616c6c657200000000000000600082015250565b6000614dd36019836137ef565b9150614dde82614d9d565b602082019050919050565b60006020820190508181036000830152614e0281614dc6565b9050919050565b7f4552433732313a207472616e7366657220746f206e6f6e20455243373231526560008201527f63656976657220696d706c656d656e7465720000000000000000000000000000602082015250565b6000614e656032836137ef565b9150614e7082614e09565b604082019050919050565b60006020820190508181036000830152614e9481614e58565b9050919050565b7f4e487b7100000000000000000000000000000000000000000000000000000000600052601260045260246000fd5b6000614ed5826136c6565b9150614ee0836136c6565b925082614ef057614eef614e9b565b5b828204905092915050565b6000614f06826136c6565b9150614f11836136c6565b925082614f2157614f20614e9b565b5b828206905092915050565b6000819050919050565b614f47614f42826136c6565b614f2c565b82525050565b6000614f598287614f36565b602082019150614f698286614f36565b602082019150614f798285614f36565b602082019150614f898284614f36565b60208201915081905095945050505050565b600081519050919050565b600082825260208201905092915050565b6000614fc282614f9b565b614fcc8185614fa6565b9350614fdc818560208601613800565b614fe581613833565b840191505092915050565b600060808201905061500560008301876138d1565b61501260208301866138d1565b61501f6040830185613acc565b81810360608301526150318184614fb7565b905095945050505050565b60008151905061504b81613755565b92915050565b600060208284031215615067576150666136bc565b5b60006150758482850161503c565b91505092915050565b7f4552433732313a206d696e7420746f20746865207a65726f2061646472657373600082015250565b60006150b46020836137ef565b91506150bf8261507e565b602082019050919050565b600060208201905081810360008301526150e3816150a7565b9050919050565b7f4552433732313a20746f6b656e20616c7265616479206d696e74656400000000600082015250565b6000615120601c836137ef565b915061512b826150ea565b602082019050919050565b6000602082019050818103600083015261514f81615113565b905091905056fea264697066735822122087567df06209d43e3ad968ee7b5177b055aebbf08ac8d287ef4bb3a9669b505a64736f6c634300080a0033",
  "immutableReferences": {},
  "source": "// SPDX-License-Identifier: ISC\npragma solidity >=0.8.0;\n\n\nimport \"@openzeppelin/contracts/utils/Counters.sol\";\nimport \"@openzeppelin/contracts/access/Ownable.sol\";\nimport \"@openzeppelin/contracts/utils/math/SafeMath.sol\";\nimport \"@openzeppelin/contracts/token/ERC721/ERC721.sol\";\nimport \"@openzeppelin/contracts/token/ERC721/extensions/ERC721URIStorage.sol\";\n\ncontract Cero is ERC721, ERC721URIStorage, Ownable {\n    using Counters for Counters.Counter;\n    using SafeMath for uint256;\n\n    string constant _name = \"Cero NFT\";\n    string constant _symbol = \"CRO\";\n\n    uint dnaDigits = 16;\n    uint dnaModulus = 10 ** dnaDigits;\n\n    enum State {\n        SetUp,\n        Presale,\n        Sale,\n        SoldOut\n    }\n\n    Counters.Counter private _tokenIds;\n    State private _state;\n    address private _owner;\n    string private _tokenUriBase;\n    uint256 public constant MAX_CEROS = 9999;\n    uint256 private CERO_PRICE_IN_WEI = 5E16; // 0.05 ETH\n    uint256 public totalMinted = 0;\n    uint256 public availableTokensMint = 0;\n\n    mapping(uint256 => uint256) private _cerosDna;\n    mapping(address => uint256) private _whiteList;\n    mapping(address => uint256) private _airdrops;\n\n    event Minted(address minter, uint256 amount);\n    event BalanceWithdrawed(address recipient, uint256 value);\n\n\n    constructor() ERC721(_name, _symbol) {\n        _owner = msg.sender;\n        _state = State.SetUp;\n    }\n\n    function updateMintPrice(uint256 __price) external onlyOwner {\n        CERO_PRICE_IN_WEI = __price;\n    }\n\n    function mintPrice() external view returns (uint256) {\n        return CERO_PRICE_IN_WEI;\n    }\n\n    function addQuantityToMint(uint256 __quantity) public onlyOwner {\n        availableTokensMint = availableTokensMint.add(__quantity);\n    }\n\n\n    function updateOwner(address __owner) public onlyOwner {\n        _owner = __owner;\n    }\n\n    function tokenURI(uint256 tokenId) public view override(ERC721, ERC721URIStorage) returns (string memory) {\n        return string(abi.encodePacked(baseTokenURI(), Strings.toString(tokenId)));\n    }\n\n    function baseTokenURI() public view virtual returns (string memory) {\n        return _tokenUriBase;\n    }\n\n    function setTokenURI(string memory tokenUriBase_) public onlyOwner {\n        _tokenUriBase = tokenUriBase_;\n    }\n\n    function setStateToSetup() public onlyOwner {\n        _state = State.SetUp;\n    }\n    \n    function startPresale() public onlyOwner {\n        _state = State.Presale;\n    }\n\n    function setStateToSale() public onlyOwner {\n        _state = State.Sale;\n    }\n    \n    function setStateToSoldOut() public onlyOwner {\n        _state = State.SoldOut;\n    }\n\n    function addToPresaleList(address[] calldata _addresses, uint quantity) external onlyOwner {\n        for (uint256 ind = 0; ind < _addresses.length; ind++) {\n            require(_addresses[ind] != address(0), \"Message: Can't add a zero address\");\n            _whiteList[_addresses[ind]] = _whiteList[_addresses[ind]].add(quantity);\n        }\n    }\n\n    function isOnPresaleList(address _address) external view returns (bool) {\n        return _whiteList[_address] > 0;\n    }\n\n    function removeFromPresaleList(address[] calldata _addresses) external onlyOwner {\n        for (uint256 ind = 0; ind < _addresses.length; ind++) {\n            require(_addresses[ind] != address(0), \"Message: Can't remove a zero address\");\n            _whiteList[_addresses[ind]] = 0;\n        }\n    }\n\n    function addAirdrop(address[] calldata _addresses, uint quantity) external onlyOwner {\n        for (uint256 ind = 0; ind < _addresses.length; ind++) {\n            require(_addresses[ind] != address(0), \"Message: Can't add a zero address\");\n            _airdrops[_addresses[ind]] = _airdrops[_addresses[ind]].add(quantity);\n        }\n    }\n    \n    function hasAirdrop(address _address) external view returns (bool) {\n        return _airdrops[_address] > 0;\n    }\n\n    function removeAirdrop(address[] calldata _addresses) external onlyOwner {\n        for (uint256 ind = 0; ind < _addresses.length; ind++) {\n            require(_addresses[ind] != address(0), \"Message: Can't remove a zero address\");\n            _airdrops[_addresses[ind]] = 0;\n        }\n    }\n\n    function claimAirdrop() external {\n        require(_state != State.SoldOut, \"Mint is not active.\");\n        require(_airdrops[msg.sender] > 0, \"The wallet address is not allowed to mint Ceros.\");\n        for (uint256 ind = 0; ind < _airdrops[msg.sender]; ind++) {\n            mint();\n        }\n       _airdrops[msg.sender] = 0;\n    }\n    \n    function presaleMint() external payable {\n        require(_state == State.Presale, \"Presale is not active.\");\n        require(_whiteList[msg.sender] > 0, \"The wallet address is not allowed to mint Ceros.\");\n        require(msg.value >= CERO_PRICE_IN_WEI, \"Ether value sent is incorrect.\");\n        mint();\n        _whiteList[msg.sender] = _whiteList[msg.sender].sub(1);\n    }\n\n    function ownerMint() external payable onlyOwner {\n        require(_state != State.SoldOut, \"Mint is not available.\");\n        require(msg.value >= CERO_PRICE_IN_WEI, \"Ether value sent is incorrect.\");\n        mint();\n    }\n\n    function saleMint() external payable {\n        require(_state == State.Sale, \"Sale is not active.\");\n        require(msg.value >= CERO_PRICE_IN_WEI, \"Ether value sent is incorrect.\");\n        mint();\n    }\n\n    function mint() internal {\n        require(!Address.isContract(msg.sender), \"Contracts are not allowed to mint Ceros.\");\n        require(_tokenIds.current().add(1) <= MAX_CEROS, \"Max supply of tokens exceeded.\");\n        require(availableTokensMint > 0, \"No tokens available to mint.\");\n        uint256 newTokenId = _tokenIds.current();\n        _safeMint(msg.sender, newTokenId);\n        _tokenIds.increment();\n        totalMinted = totalMinted.add(1);\n\n        uint dna = _generateCeroDna(newTokenId);\n        _cerosDna[newTokenId] = dna;\n        emit Minted(msg.sender, 1);\n        if (totalMinted >= MAX_CEROS) {\n            _state = State.SoldOut;\n        }\n    }\n\n    function _generateCeroDna(uint256 id) private view returns (uint) {\n        uint rand = uint(keccak256(abi.encodePacked(block.difficulty, block.timestamp, block.number, id)));\n        return rand % dnaModulus;\n    }\n\n    function withdrawAll(address recipient) public onlyOwner {\n        uint256 balance = address(this).balance;\n        payable(recipient).transfer(balance);\n        emit BalanceWithdrawed(recipient, balance);\n    }\n\n    function withdrawAllViaCall(address payable _to) public onlyOwner {\n        uint256 balance = address(this).balance;\n        (bool sent, bytes memory data) = _to.call{value: balance}(\"\");\n        require(sent, \"Failed to send Ether\");\n    }\n\n    function _burn(uint256 tokenId) internal override(ERC721, ERC721URIStorage) {\n        super._burn(tokenId);\n    }\n\n    function _beforeTokenTransfer(address from, address to, uint256 tokenId) internal override(ERC721) {\n        super._beforeTokenTransfer(from, to, tokenId);\n    }\n    \n    function supportsInterface(bytes4 interfaceId) public view virtual override(ERC721) returns (bool) {\n        return super.supportsInterface(interfaceId);\n    }\n}\n\n//- whitelist sale\n//- nft on stored on blockchain\n//- minting for founder\n//- public sale\n//- minting for airdrop (specific number of nft)",
  "sourcePath": "/Users/nicolasballaman/Projects/cero-nft/contracts/Cero.sol",
  "compiler": {
    "name": "solc",
    "version": "0.8.10+commit.fc410830.Emscripten.clang"
  },
  "schemaVersion": "3.4.3",
  "updatedAt": "2021-12-29T23:02:19.732Z",
  "networkType": "ethereum",
  "devdoc": {
    "kind": "dev",
    "methods": {
      "approve(address,uint256)": {
        "details": "See {IERC721-approve}."
      },
      "balanceOf(address)": {
        "details": "See {IERC721-balanceOf}."
      },
      "getApproved(uint256)": {
        "details": "See {IERC721-getApproved}."
      },
      "isApprovedForAll(address,address)": {
        "details": "See {IERC721-isApprovedForAll}."
      },
      "name()": {
        "details": "See {IERC721Metadata-name}."
      },
      "owner()": {
        "details": "Returns the address of the current owner."
      },
      "ownerOf(uint256)": {
        "details": "See {IERC721-ownerOf}."
      },
      "renounceOwnership()": {
        "details": "Leaves the contract without owner. It will not be possible to call `onlyOwner` functions anymore. Can only be called by the current owner. NOTE: Renouncing ownership will leave the contract without an owner, thereby removing any functionality that is only available to the owner."
      },
      "safeTransferFrom(address,address,uint256)": {
        "details": "See {IERC721-safeTransferFrom}."
      },
      "safeTransferFrom(address,address,uint256,bytes)": {
        "details": "See {IERC721-safeTransferFrom}."
      },
      "setApprovalForAll(address,bool)": {
        "details": "See {IERC721-setApprovalForAll}."
      },
      "supportsInterface(bytes4)": {
        "details": "See {IERC165-supportsInterface}."
      },
      "symbol()": {
        "details": "See {IERC721Metadata-symbol}."
      },
      "transferFrom(address,address,uint256)": {
        "details": "See {IERC721-transferFrom}."
      },
      "transferOwnership(address)": {
        "details": "Transfers ownership of the contract to a new account (`newOwner`). Can only be called by the current owner."
      }
    },
    "version": 1
  },
  "userdoc": {
    "kind": "user",
    "methods": {},
    "version": 1
  }
}