{
  "contractName": "Cero",
  "abi": [
    {
      "inputs": [],
      "stateMutability": "nonpayable",
      "type": "constructor"
    },
    {
      "anonymous": false,
      "inputs": [
        {
          "indexed": true,
          "internalType": "address",
          "name": "owner",
          "type": "address"
        },
        {
          "indexed": true,
          "internalType": "address",
          "name": "approved",
          "type": "address"
        },
        {
          "indexed": true,
          "internalType": "uint256",
          "name": "tokenId",
          "type": "uint256"
        }
      ],
      "name": "Approval",
      "type": "event"
    },
    {
      "anonymous": false,
      "inputs": [
        {
          "indexed": true,
          "internalType": "address",
          "name": "owner",
          "type": "address"
        },
        {
          "indexed": true,
          "internalType": "address",
          "name": "operator",
          "type": "address"
        },
        {
          "indexed": false,
          "internalType": "bool",
          "name": "approved",
          "type": "bool"
        }
      ],
      "name": "ApprovalForAll",
      "type": "event"
    },
    {
      "anonymous": false,
      "inputs": [
        {
          "indexed": false,
          "internalType": "address",
          "name": "recipient",
          "type": "address"
        },
        {
          "indexed": false,
          "internalType": "uint256",
          "name": "value",
          "type": "uint256"
        }
      ],
      "name": "BalanceWithdrawed",
      "type": "event"
    },
    {
      "anonymous": false,
      "inputs": [
        {
          "indexed": false,
          "internalType": "address",
          "name": "minter",
          "type": "address"
        },
        {
          "indexed": false,
          "internalType": "uint256",
          "name": "amount",
          "type": "uint256"
        }
      ],
      "name": "Minted",
      "type": "event"
    },
    {
      "anonymous": false,
      "inputs": [
        {
          "indexed": true,
          "internalType": "address",
          "name": "previousOwner",
          "type": "address"
        },
        {
          "indexed": true,
          "internalType": "address",
          "name": "newOwner",
          "type": "address"
        }
      ],
      "name": "OwnershipTransferred",
      "type": "event"
    },
    {
      "anonymous": false,
      "inputs": [
        {
          "indexed": true,
          "internalType": "address",
          "name": "from",
          "type": "address"
        },
        {
          "indexed": true,
          "internalType": "address",
          "name": "to",
          "type": "address"
        },
        {
          "indexed": true,
          "internalType": "uint256",
          "name": "tokenId",
          "type": "uint256"
        }
      ],
      "name": "Transfer",
      "type": "event"
    },
    {
      "inputs": [],
      "name": "MAX_CEROS",
      "outputs": [
        {
          "internalType": "uint256",
          "name": "",
          "type": "uint256"
        }
      ],
      "stateMutability": "view",
      "type": "function"
    },
    {
      "inputs": [
        {
          "internalType": "address",
          "name": "to",
          "type": "address"
        },
        {
          "internalType": "uint256",
          "name": "tokenId",
          "type": "uint256"
        }
      ],
      "name": "approve",
      "outputs": [],
      "stateMutability": "nonpayable",
      "type": "function"
    },
    {
      "inputs": [],
      "name": "availableTokensMint",
      "outputs": [
        {
          "internalType": "uint256",
          "name": "",
          "type": "uint256"
        }
      ],
      "stateMutability": "view",
      "type": "function"
    },
    {
      "inputs": [
        {
          "internalType": "address",
          "name": "owner",
          "type": "address"
        }
      ],
      "name": "balanceOf",
      "outputs": [
        {
          "internalType": "uint256",
          "name": "",
          "type": "uint256"
        }
      ],
      "stateMutability": "view",
      "type": "function"
    },
    {
      "inputs": [
        {
          "internalType": "uint256",
          "name": "tokenId",
          "type": "uint256"
        }
      ],
      "name": "getApproved",
      "outputs": [
        {
          "internalType": "address",
          "name": "",
          "type": "address"
        }
      ],
      "stateMutability": "view",
      "type": "function"
    },
    {
      "inputs": [
        {
          "internalType": "address",
          "name": "owner",
          "type": "address"
        },
        {
          "internalType": "address",
          "name": "operator",
          "type": "address"
        }
      ],
      "name": "isApprovedForAll",
      "outputs": [
        {
          "internalType": "bool",
          "name": "",
          "type": "bool"
        }
      ],
      "stateMutability": "view",
      "type": "function"
    },
    {
      "inputs": [],
      "name": "name",
      "outputs": [
        {
          "internalType": "string",
          "name": "",
          "type": "string"
        }
      ],
      "stateMutability": "view",
      "type": "function"
    },
    {
      "inputs": [],
      "name": "owner",
      "outputs": [
        {
          "internalType": "address",
          "name": "",
          "type": "address"
        }
      ],
      "stateMutability": "view",
      "type": "function"
    },
    {
      "inputs": [
        {
          "internalType": "uint256",
          "name": "tokenId",
          "type": "uint256"
        }
      ],
      "name": "ownerOf",
      "outputs": [
        {
          "internalType": "address",
          "name": "",
          "type": "address"
        }
      ],
      "stateMutability": "view",
      "type": "function"
    },
    {
      "inputs": [],
      "name": "renounceOwnership",
      "outputs": [],
      "stateMutability": "nonpayable",
      "type": "function"
    },
    {
      "inputs": [
        {
          "internalType": "address",
          "name": "from",
          "type": "address"
        },
        {
          "internalType": "address",
          "name": "to",
          "type": "address"
        },
        {
          "internalType": "uint256",
          "name": "tokenId",
          "type": "uint256"
        }
      ],
      "name": "safeTransferFrom",
      "outputs": [],
      "stateMutability": "nonpayable",
      "type": "function"
    },
    {
      "inputs": [
        {
          "internalType": "address",
          "name": "from",
          "type": "address"
        },
        {
          "internalType": "address",
          "name": "to",
          "type": "address"
        },
        {
          "internalType": "uint256",
          "name": "tokenId",
          "type": "uint256"
        },
        {
          "internalType": "bytes",
          "name": "_data",
          "type": "bytes"
        }
      ],
      "name": "safeTransferFrom",
      "outputs": [],
      "stateMutability": "nonpayable",
      "type": "function"
    },
    {
      "inputs": [
        {
          "internalType": "address",
          "name": "operator",
          "type": "address"
        },
        {
          "internalType": "bool",
          "name": "approved",
          "type": "bool"
        }
      ],
      "name": "setApprovalForAll",
      "outputs": [],
      "stateMutability": "nonpayable",
      "type": "function"
    },
    {
      "inputs": [],
      "name": "symbol",
      "outputs": [
        {
          "internalType": "string",
          "name": "",
          "type": "string"
        }
      ],
      "stateMutability": "view",
      "type": "function"
    },
    {
      "inputs": [],
      "name": "totalMinted",
      "outputs": [
        {
          "internalType": "uint256",
          "name": "",
          "type": "uint256"
        }
      ],
      "stateMutability": "view",
      "type": "function"
    },
    {
      "inputs": [
        {
          "internalType": "address",
          "name": "from",
          "type": "address"
        },
        {
          "internalType": "address",
          "name": "to",
          "type": "address"
        },
        {
          "internalType": "uint256",
          "name": "tokenId",
          "type": "uint256"
        }
      ],
      "name": "transferFrom",
      "outputs": [],
      "stateMutability": "nonpayable",
      "type": "function"
    },
    {
      "inputs": [
        {
          "internalType": "address",
          "name": "newOwner",
          "type": "address"
        }
      ],
      "name": "transferOwnership",
      "outputs": [],
      "stateMutability": "nonpayable",
      "type": "function"
    },
    {
      "inputs": [
        {
          "internalType": "uint256",
          "name": "__price",
          "type": "uint256"
        }
      ],
      "name": "updateMintPrice",
      "outputs": [],
      "stateMutability": "nonpayable",
      "type": "function"
    },
    {
      "inputs": [],
      "name": "mintPrice",
      "outputs": [
        {
          "internalType": "uint256",
          "name": "",
          "type": "uint256"
        }
      ],
      "stateMutability": "view",
      "type": "function"
    },
    {
      "inputs": [
        {
          "internalType": "uint256",
          "name": "__quantity",
          "type": "uint256"
        }
      ],
      "name": "addQuantityToMint",
      "outputs": [],
      "stateMutability": "nonpayable",
      "type": "function"
    },
    {
      "inputs": [
        {
          "internalType": "address",
          "name": "__owner",
          "type": "address"
        }
      ],
      "name": "updateOwner",
      "outputs": [],
      "stateMutability": "nonpayable",
      "type": "function"
    },
    {
      "inputs": [
        {
          "internalType": "uint256",
          "name": "tokenId",
          "type": "uint256"
        }
      ],
      "name": "tokenURI",
      "outputs": [
        {
          "internalType": "string",
          "name": "",
          "type": "string"
        }
      ],
      "stateMutability": "view",
      "type": "function"
    },
    {
      "inputs": [],
      "name": "baseTokenURI",
      "outputs": [
        {
          "internalType": "string",
          "name": "",
          "type": "string"
        }
      ],
      "stateMutability": "view",
      "type": "function"
    },
    {
      "inputs": [
        {
          "internalType": "string",
          "name": "tokenUriBase_",
          "type": "string"
        }
      ],
      "name": "setTokenURI",
      "outputs": [],
      "stateMutability": "nonpayable",
      "type": "function"
    },
    {
      "inputs": [],
      "name": "setStateToSetup",
      "outputs": [],
      "stateMutability": "nonpayable",
      "type": "function"
    },
    {
      "inputs": [],
      "name": "startPresale",
      "outputs": [],
      "stateMutability": "nonpayable",
      "type": "function"
    },
    {
      "inputs": [],
      "name": "setStateToSale",
      "outputs": [],
      "stateMutability": "nonpayable",
      "type": "function"
    },
    {
      "inputs": [],
      "name": "setStateToSoldOut",
      "outputs": [],
      "stateMutability": "nonpayable",
      "type": "function"
    },
    {
      "inputs": [
        {
          "internalType": "address[]",
          "name": "_addresses",
          "type": "address[]"
        },
        {
          "internalType": "uint256",
          "name": "quantity",
          "type": "uint256"
        }
      ],
      "name": "addToPresaleList",
      "outputs": [],
      "stateMutability": "nonpayable",
      "type": "function"
    },
    {
      "inputs": [
        {
          "internalType": "address",
          "name": "_address",
          "type": "address"
        }
      ],
      "name": "isOnPresaleList",
      "outputs": [
        {
          "internalType": "bool",
          "name": "",
          "type": "bool"
        }
      ],
      "stateMutability": "view",
      "type": "function"
    },
    {
      "inputs": [
        {
          "internalType": "address[]",
          "name": "_addresses",
          "type": "address[]"
        }
      ],
      "name": "removeFromPresaleList",
      "outputs": [],
      "stateMutability": "nonpayable",
      "type": "function"
    },
    {
      "inputs": [
        {
          "internalType": "address[]",
          "name": "_addresses",
          "type": "address[]"
        },
        {
          "internalType": "uint256",
          "name": "quantity",
          "type": "uint256"
        }
      ],
      "name": "addAirdrop",
      "outputs": [],
      "stateMutability": "nonpayable",
      "type": "function"
    },
    {
      "inputs": [
        {
          "internalType": "address",
          "name": "_address",
          "type": "address"
        }
      ],
      "name": "hasAirdrop",
      "outputs": [
        {
          "internalType": "bool",
          "name": "",
          "type": "bool"
        }
      ],
      "stateMutability": "view",
      "type": "function"
    },
    {
      "inputs": [
        {
          "internalType": "address[]",
          "name": "_addresses",
          "type": "address[]"
        }
      ],
      "name": "removeAirdrop",
      "outputs": [],
      "stateMutability": "nonpayable",
      "type": "function"
    },
    {
      "inputs": [],
      "name": "claimAirdrop",
      "outputs": [],
      "stateMutability": "nonpayable",
      "type": "function"
    },
    {
      "inputs": [],
      "name": "presaleMint",
      "outputs": [],
      "stateMutability": "payable",
      "type": "function"
    },
    {
      "inputs": [],
      "name": "ownerMint",
      "outputs": [],
      "stateMutability": "payable",
      "type": "function"
    },
    {
      "inputs": [],
      "name": "saleMint",
      "outputs": [],
      "stateMutability": "payable",
      "type": "function"
    },
    {
      "inputs": [
        {
          "internalType": "address",
          "name": "recipient",
          "type": "address"
        }
      ],
      "name": "withdrawAll",
      "outputs": [],
      "stateMutability": "nonpayable",
      "type": "function"
    },
    {
      "inputs": [
        {
          "internalType": "address payable",
          "name": "_to",
          "type": "address"
        }
      ],
      "name": "withdrawAllViaCall",
      "outputs": [],
      "stateMutability": "nonpayable",
      "type": "function"
    },
    {
      "inputs": [
        {
          "internalType": "bytes4",
          "name": "interfaceId",
          "type": "bytes4"
        }
      ],
      "name": "supportsInterface",
      "outputs": [
        {
          "internalType": "bool",
          "name": "",
          "type": "bool"
        }
      ],
      "stateMutability": "view",
      "type": "function"
    }
  ],
  "bytecode": "0x60806040526010600855600854600a6200001a919062000480565b60095566b1a2bc2ec50000600d556000600e556000600f553480156200003f57600080fd5b506040518060400160405280600881526020017f4365726f204e46540000000000000000000000000000000000000000000000008152506040518060400160405280600381526020017f43524f00000000000000000000000000000000000000000000000000000000008152508160009080519060200190620000c492919062000243565b508060019080519060200190620000dd92919062000243565b50505062000100620000f46200017560201b60201c565b6200017d60201b60201c565b33600b60016101000a81548173ffffffffffffffffffffffffffffffffffffffff021916908373ffffffffffffffffffffffffffffffffffffffff1602179055506000600b60006101000a81548160ff021916908360038111156200016a5762000169620004d1565b5b021790555062000565565b600033905090565b6000600760009054906101000a900473ffffffffffffffffffffffffffffffffffffffff16905081600760006101000a81548173ffffffffffffffffffffffffffffffffffffffff021916908373ffffffffffffffffffffffffffffffffffffffff1602179055508173ffffffffffffffffffffffffffffffffffffffff168173ffffffffffffffffffffffffffffffffffffffff167f8be0079c531659141344cd1fd0a4f28419497f9722a3daafe3b4186f6b6457e060405160405180910390a35050565b82805462000251906200052f565b90600052602060002090601f016020900481019282620002755760008555620002c1565b82601f106200029057805160ff1916838001178555620002c1565b82800160010185558215620002c1579182015b82811115620002c0578251825591602001919060010190620002a3565b5b509050620002d09190620002d4565b5090565b5b80821115620002ef576000816000905550600101620002d5565b5090565b7f4e487b7100000000000000000000000000000000000000000000000000000000600052601160045260246000fd5b60008160011c9050919050565b6000808291508390505b60018511156200038157808604811115620003595762000358620002f3565b5b6001851615620003695780820291505b8081029050620003798562000322565b945062000339565b94509492505050565b6000826200039c57600190506200046f565b81620003ac57600090506200046f565b8160018114620003c55760028114620003d05762000406565b60019150506200046f565b60ff841115620003e557620003e4620002f3565b5b8360020a915084821115620003ff57620003fe620002f3565b5b506200046f565b5060208310610133831016604e8410600b8410161715620004405782820a9050838111156200043a5762000439620002f3565b5b6200046f565b6200044f84848460016200032f565b92509050818404811115620004695762000468620002f3565b5b81810290505b9392505050565b6000819050919050565b60006200048d8262000476565b91506200049a8362000476565b9250620004c97fffffffffffffffffffffffffffffffffffffffffffffffffffffffffffffffff84846200038a565b905092915050565b7f4e487b7100000000000000000000000000000000000000000000000000000000600052602160045260246000fd5b7f4e487b7100000000000000000000000000000000000000000000000000000000600052602260045260246000fd5b600060028204905060018216806200054857607f821691505b602082108114156200055f576200055e62000500565b5b50919050565b61517880620005756000396000f3fe6080604052600436106102455760003560e01c8063715018a611610139578063b7a72c5c116100b6578063dfee54871161007a578063dfee5487146107d7578063e0df5b6f146107e1578063e985e9c51461080a578063f053d2c714610847578063f2fde38b14610870578063fa09e6301461089957610245565b8063b7a72c5c146106f2578063b88d4fde14610709578063c87b56dd14610732578063d547cfb71461076f578063de00a68b1461079a57610245565b8063a2309ff8116100fd578063a2309ff814610640578063a905821a1461066b578063b12dc99114610694578063b179e0601461069e578063b2a71efd146106c757610245565b8063715018a614610581578063880cdc31146105985780638da5cb5b146105c157806395d89b41146105ec578063a22cb4651461061757610245565b80632c664e7e116101c75780636352211e1161018b5780636352211e1461047457806367cae0a8146104b15780636817c76c146104dc5780636c4be7911461050757806370a082311461054457610245565b80632c664e7e146103d857806342842e0e1461040157806343fa2ced1461042a57806359533d6c146104535780635b88349d1461045d57610245565b80630880c6511161020e5780630880c6511461032f578063095ea7b31461034657806316cb16eb1461036f57806323af88271461039857806323b872dd146103af57610245565b8062728e461461024a57806301ffc9a71461027357806304c98b2b146102b057806306fdde03146102c7578063081812fc146102f2575b600080fd5b34801561025657600080fd5b50610271600480360381019061026c91906136e8565b6108c2565b005b34801561027f57600080fd5b5061029a6004803603810190610295919061376d565b610948565b6040516102a791906137b5565b60405180910390f35b3480156102bc57600080fd5b506102c561095a565b005b3480156102d357600080fd5b506102dc610a03565b6040516102e99190613869565b60405180910390f35b3480156102fe57600080fd5b50610319600480360381019061031491906136e8565b610a95565b60405161032691906138cc565b60405180910390f35b34801561033b57600080fd5b50610344610b1a565b005b34801561035257600080fd5b5061036d60048036038101906103689190613913565b610bc3565b005b34801561037b57600080fd5b50610396600480360381019061039191906139b8565b610cdb565b005b3480156103a457600080fd5b506103ad610e80565b005b3480156103bb57600080fd5b506103d660048036038101906103d19190613a05565b610f29565b005b3480156103e457600080fd5b506103ff60048036038101906103fa91906136e8565b610f89565b005b34801561040d57600080fd5b5061042860048036038101906104239190613a05565b61100f565b005b34801561043657600080fd5b50610451600480360381019061044c9190613a58565b61102f565b005b61045b61124c565b005b34801561046957600080fd5b50610472611429565b005b34801561048057600080fd5b5061049b600480360381019061049691906136e8565b6115ce565b6040516104a891906138cc565b60405180910390f35b3480156104bd57600080fd5b506104c6611680565b6040516104d39190613ac7565b60405180910390f35b3480156104e857600080fd5b506104f1611686565b6040516104fe9190613ac7565b60405180910390f35b34801561051357600080fd5b5061052e60048036038101906105299190613ae2565b611690565b60405161053b91906137b5565b60405180910390f35b34801561055057600080fd5b5061056b60048036038101906105669190613ae2565b6116db565b6040516105789190613ac7565b60405180910390f35b34801561058d57600080fd5b50610596611793565b005b3480156105a457600080fd5b506105bf60048036038101906105ba9190613ae2565b61181b565b005b3480156105cd57600080fd5b506105d66118db565b6040516105e391906138cc565b60405180910390f35b3480156105f857600080fd5b50610601611905565b60405161060e9190613869565b60405180910390f35b34801561062357600080fd5b5061063e60048036038101906106399190613b3b565b611997565b005b34801561064c57600080fd5b506106556119ad565b6040516106629190613ac7565b60405180910390f35b34801561067757600080fd5b50610692600480360381019061068d9190613bb9565b6119b3565b005b61069c611ae8565b005b3480156106aa57600080fd5b506106c560048036038101906106c091906139b8565b611c29565b005b3480156106d357600080fd5b506106dc611dce565b6040516106e99190613ac7565b60405180910390f35b3480156106fe57600080fd5b50610707611dd4565b005b34801561071557600080fd5b50610730600480360381019061072b9190613d16565b611e7d565b005b34801561073e57600080fd5b50610759600480360381019061075491906136e8565b611edf565b6040516107669190613869565b60405180910390f35b34801561077b57600080fd5b50610784611f19565b6040516107919190613869565b60405180910390f35b3480156107a657600080fd5b506107c160048036038101906107bc9190613ae2565b611fab565b6040516107ce91906137b5565b60405180910390f35b6107df611ff6565b005b3480156107ed57600080fd5b5061080860048036038101906108039190613e3a565b6120bb565b005b34801561081657600080fd5b50610831600480360381019061082c9190613e83565b612151565b60405161083e91906137b5565b60405180910390f35b34801561085357600080fd5b5061086e60048036038101906108699190613a58565b6121e5565b005b34801561087c57600080fd5b5061089760048036038101906108929190613ae2565b612402565b005b3480156108a557600080fd5b506108c060048036038101906108bb9190613ae2565b6124fa565b005b6108ca6125ff565b73ffffffffffffffffffffffffffffffffffffffff166108e86118db565b73ffffffffffffffffffffffffffffffffffffffff161461093e576040517f08c379a000000000000000000000000000000000000000000000000000000000815260040161093590613f0f565b60405180910390fd5b80600d8190555050565b600061095382612607565b9050919050565b6109626125ff565b73ffffffffffffffffffffffffffffffffffffffff166109806118db565b73ffffffffffffffffffffffffffffffffffffffff16146109d6576040517f08c379a00000000000000000000000000000000000000000000000000000000081526004016109cd90613f0f565b60405180910390fd5b6001600b60006101000a81548160ff021916908360038111156109fc576109fb613f2f565b5b0217905550565b606060008054610a1290613f8d565b80601f0160208091040260200160405190810160405280929190818152602001828054610a3e90613f8d565b8015610a8b5780601f10610a6057610100808354040283529160200191610a8b565b820191906000526020600020905b815481529060010190602001808311610a6e57829003601f168201915b5050505050905090565b6000610aa0826126e9565b610adf576040517f08c379a0000000000000000000000000000000000000000000000000000000008152600401610ad690614031565b60405180910390fd5b6004600083815260200190815260200160002060009054906101000a900473ffffffffffffffffffffffffffffffffffffffff169050919050565b610b226125ff565b73ffffffffffffffffffffffffffffffffffffffff16610b406118db565b73ffffffffffffffffffffffffffffffffffffffff1614610b96576040517f08c379a0000000000000000000000000000000000000000000000000000000008152600401610b8d90613f0f565b60405180910390fd5b6003600b60006101000a81548160ff02191690836003811115610bbc57610bbb613f2f565b5b0217905550565b6000610bce826115ce565b90508073ffffffffffffffffffffffffffffffffffffffff168373ffffffffffffffffffffffffffffffffffffffff161415610c3f576040517f08c379a0000000000000000000000000000000000000000000000000000000008152600401610c36906140c3565b60405180910390fd5b8073ffffffffffffffffffffffffffffffffffffffff16610c5e6125ff565b73ffffffffffffffffffffffffffffffffffffffff161480610c8d5750610c8c81610c876125ff565b612151565b5b610ccc576040517f08c379a0000000000000000000000000000000000000000000000000000000008152600401610cc390614155565b60405180910390fd5b610cd68383612755565b505050565b610ce36125ff565b73ffffffffffffffffffffffffffffffffffffffff16610d016118db565b73ffffffffffffffffffffffffffffffffffffffff1614610d57576040517f08c379a0000000000000000000000000000000000000000000000000000000008152600401610d4e90613f0f565b60405180910390fd5b60005b82829050811015610e7b57600073ffffffffffffffffffffffffffffffffffffffff16838383818110610d9057610d8f614175565b5b9050602002016020810190610da59190613ae2565b73ffffffffffffffffffffffffffffffffffffffff161415610dfc576040517f08c379a0000000000000000000000000000000000000000000000000000000008152600401610df390614216565b60405180910390fd5b600060126000858585818110610e1557610e14614175565b5b9050602002016020810190610e2a9190613ae2565b73ffffffffffffffffffffffffffffffffffffffff1673ffffffffffffffffffffffffffffffffffffffff168152602001908152602001600020819055508080610e7390614265565b915050610d5a565b505050565b610e886125ff565b73ffffffffffffffffffffffffffffffffffffffff16610ea66118db565b73ffffffffffffffffffffffffffffffffffffffff1614610efc576040517f08c379a0000000000000000000000000000000000000000000000000000000008152600401610ef390613f0f565b60405180910390fd5b6000600b60006101000a81548160ff02191690836003811115610f2257610f21613f2f565b5b0217905550565b610f3a610f346125ff565b8261280e565b610f79576040517f08c379a0000000000000000000000000000000000000000000000000000000008152600401610f7090614320565b60405180910390fd5b610f848383836128ec565b505050565b610f916125ff565b73ffffffffffffffffffffffffffffffffffffffff16610faf6118db565b73ffffffffffffffffffffffffffffffffffffffff1614611005576040517f08c379a0000000000000000000000000000000000000000000000000000000008152600401610ffc90613f0f565b60405180910390fd5b80600f8190555050565b61102a83838360405180602001604052806000815250611e7d565b505050565b6110376125ff565b73ffffffffffffffffffffffffffffffffffffffff166110556118db565b73ffffffffffffffffffffffffffffffffffffffff16146110ab576040517f08c379a00000000000000000000000000000000000000000000000000000000081526004016110a290613f0f565b60405180910390fd5b60005b8383905081101561124657600073ffffffffffffffffffffffffffffffffffffffff168484838181106110e4576110e3614175565b5b90506020020160208101906110f99190613ae2565b73ffffffffffffffffffffffffffffffffffffffff161415611150576040517f08c379a0000000000000000000000000000000000000000000000000000000008152600401611147906143b2565b60405180910390fd5b6111c9826011600087878681811061116b5761116a614175565b5b90506020020160208101906111809190613ae2565b73ffffffffffffffffffffffffffffffffffffffff1673ffffffffffffffffffffffffffffffffffffffff16815260200190815260200160002054612b4890919063ffffffff16565b601160008686858181106111e0576111df614175565b5b90506020020160208101906111f59190613ae2565b73ffffffffffffffffffffffffffffffffffffffff1673ffffffffffffffffffffffffffffffffffffffff16815260200190815260200160002081905550808061123e90614265565b9150506110ae565b50505050565b600160038111156112605761125f613f2f565b5b600b60009054906101000a900460ff16600381111561128257611281613f2f565b5b146112c2576040517f08c379a00000000000000000000000000000000000000000000000000000000081526004016112b99061441e565b60405180910390fd5b6000601160003373ffffffffffffffffffffffffffffffffffffffff1673ffffffffffffffffffffffffffffffffffffffff1681526020019081526020016000205411611344576040517f08c379a000000000000000000000000000000000000000000000000000000000815260040161133b906144b0565b60405180910390fd5b600d54341015611389576040517f08c379a00000000000000000000000000000000000000000000000000000000081526004016113809061451c565b60405180910390fd5b611391612b5e565b6113e46001601160003373ffffffffffffffffffffffffffffffffffffffff1673ffffffffffffffffffffffffffffffffffffffff16815260200190815260200160002054612d2590919063ffffffff16565b601160003373ffffffffffffffffffffffffffffffffffffffff1673ffffffffffffffffffffffffffffffffffffffff16815260200190815260200160002081905550565b60038081111561143c5761143b613f2f565b5b600b60009054906101000a900460ff16600381111561145e5761145d613f2f565b5b141561149f576040517f08c379a000000000000000000000000000000000000000000000000000000000815260040161149690614588565b60405180910390fd5b6000601260003373ffffffffffffffffffffffffffffffffffffffff1673ffffffffffffffffffffffffffffffffffffffff1681526020019081526020016000205411611521576040517f08c379a0000000000000000000000000000000000000000000000000000000008152600401611518906144b0565b60405180910390fd5b60005b601260003373ffffffffffffffffffffffffffffffffffffffff1673ffffffffffffffffffffffffffffffffffffffff1681526020019081526020016000205481101561158657611573612b5e565b808061157e90614265565b915050611524565b506000601260003373ffffffffffffffffffffffffffffffffffffffff1673ffffffffffffffffffffffffffffffffffffffff16815260200190815260200160002081905550565b6000806002600084815260200190815260200160002060009054906101000a900473ffffffffffffffffffffffffffffffffffffffff169050600073ffffffffffffffffffffffffffffffffffffffff168173ffffffffffffffffffffffffffffffffffffffff161415611677576040517f08c379a000000000000000000000000000000000000000000000000000000000815260040161166e9061461a565b60405180910390fd5b80915050919050565b600f5481565b6000600d54905090565b600080601260008473ffffffffffffffffffffffffffffffffffffffff1673ffffffffffffffffffffffffffffffffffffffff16815260200190815260200160002054119050919050565b60008073ffffffffffffffffffffffffffffffffffffffff168273ffffffffffffffffffffffffffffffffffffffff16141561174c576040517f08c379a0000000000000000000000000000000000000000000000000000000008152600401611743906146ac565b60405180910390fd5b600360008373ffffffffffffffffffffffffffffffffffffffff1673ffffffffffffffffffffffffffffffffffffffff168152602001908152602001600020549050919050565b61179b6125ff565b73ffffffffffffffffffffffffffffffffffffffff166117b96118db565b73ffffffffffffffffffffffffffffffffffffffff161461180f576040517f08c379a000000000000000000000000000000000000000000000000000000000815260040161180690613f0f565b60405180910390fd5b6118196000612d3b565b565b6118236125ff565b73ffffffffffffffffffffffffffffffffffffffff166118416118db565b73ffffffffffffffffffffffffffffffffffffffff1614611897576040517f08c379a000000000000000000000000000000000000000000000000000000000815260040161188e90613f0f565b60405180910390fd5b80600b60016101000a81548173ffffffffffffffffffffffffffffffffffffffff021916908373ffffffffffffffffffffffffffffffffffffffff16021790555050565b6000600760009054906101000a900473ffffffffffffffffffffffffffffffffffffffff16905090565b60606001805461191490613f8d565b80601f016020809104026020016040519081016040528092919081815260200182805461194090613f8d565b801561198d5780601f106119625761010080835404028352916020019161198d565b820191906000526020600020905b81548152906001019060200180831161197057829003601f168201915b5050505050905090565b6119a96119a26125ff565b8383612e01565b5050565b600e5481565b6119bb6125ff565b73ffffffffffffffffffffffffffffffffffffffff166119d96118db565b73ffffffffffffffffffffffffffffffffffffffff1614611a2f576040517f08c379a0000000000000000000000000000000000000000000000000000000008152600401611a2690613f0f565b60405180910390fd5b60004790506000808373ffffffffffffffffffffffffffffffffffffffff1683604051611a5b906146fd565b60006040518083038185875af1925050503d8060008114611a98576040519150601f19603f3d011682016040523d82523d6000602084013e611a9d565b606091505b509150915081611ae2576040517f08c379a0000000000000000000000000000000000000000000000000000000008152600401611ad99061475e565b60405180910390fd5b50505050565b611af06125ff565b73ffffffffffffffffffffffffffffffffffffffff16611b0e6118db565b73ffffffffffffffffffffffffffffffffffffffff1614611b64576040517f08c379a0000000000000000000000000000000000000000000000000000000008152600401611b5b90613f0f565b60405180910390fd5b600380811115611b7757611b76613f2f565b5b600b60009054906101000a900460ff166003811115611b9957611b98613f2f565b5b1415611bda576040517f08c379a0000000000000000000000000000000000000000000000000000000008152600401611bd1906147ca565b60405180910390fd5b600d54341015611c1f576040517f08c379a0000000000000000000000000000000000000000000000000000000008152600401611c169061451c565b60405180910390fd5b611c27612b5e565b565b611c316125ff565b73ffffffffffffffffffffffffffffffffffffffff16611c4f6118db565b73ffffffffffffffffffffffffffffffffffffffff1614611ca5576040517f08c379a0000000000000000000000000000000000000000000000000000000008152600401611c9c90613f0f565b60405180910390fd5b60005b82829050811015611dc957600073ffffffffffffffffffffffffffffffffffffffff16838383818110611cde57611cdd614175565b5b9050602002016020810190611cf39190613ae2565b73ffffffffffffffffffffffffffffffffffffffff161415611d4a576040517f08c379a0000000000000000000000000000000000000000000000000000000008152600401611d4190614216565b60405180910390fd5b600060116000858585818110611d6357611d62614175565b5b9050602002016020810190611d789190613ae2565b73ffffffffffffffffffffffffffffffffffffffff1673ffffffffffffffffffffffffffffffffffffffff168152602001908152602001600020819055508080611dc190614265565b915050611ca8565b505050565b61270f81565b611ddc6125ff565b73ffffffffffffffffffffffffffffffffffffffff16611dfa6118db565b73ffffffffffffffffffffffffffffffffffffffff1614611e50576040517f08c379a0000000000000000000000000000000000000000000000000000000008152600401611e4790613f0f565b60405180910390fd5b6002600b60006101000a81548160ff02191690836003811115611e7657611e75613f2f565b5b0217905550565b611e8e611e886125ff565b8361280e565b611ecd576040517f08c379a0000000000000000000000000000000000000000000000000000000008152600401611ec490614320565b60405180910390fd5b611ed984848484612f6e565b50505050565b6060611ee9611f19565b611ef283612fca565b604051602001611f03929190614826565b6040516020818303038152906040529050919050565b6060600c8054611f2890613f8d565b80601f0160208091040260200160405190810160405280929190818152602001828054611f5490613f8d565b8015611fa15780601f10611f7657610100808354040283529160200191611fa1565b820191906000526020600020905b815481529060010190602001808311611f8457829003601f168201915b5050505050905090565b600080601160008473ffffffffffffffffffffffffffffffffffffffff1673ffffffffffffffffffffffffffffffffffffffff16815260200190815260200160002054119050919050565b6002600381111561200a57612009613f2f565b5b600b60009054906101000a900460ff16600381111561202c5761202b613f2f565b5b1461206c576040517f08c379a000000000000000000000000000000000000000000000000000000000815260040161206390614896565b60405180910390fd5b600d543410156120b1576040517f08c379a00000000000000000000000000000000000000000000000000000000081526004016120a89061451c565b60405180910390fd5b6120b9612b5e565b565b6120c36125ff565b73ffffffffffffffffffffffffffffffffffffffff166120e16118db565b73ffffffffffffffffffffffffffffffffffffffff1614612137576040517f08c379a000000000000000000000000000000000000000000000000000000000815260040161212e90613f0f565b60405180910390fd5b80600c908051906020019061214d9291906135fb565b5050565b6000600560008473ffffffffffffffffffffffffffffffffffffffff1673ffffffffffffffffffffffffffffffffffffffff16815260200190815260200160002060008373ffffffffffffffffffffffffffffffffffffffff1673ffffffffffffffffffffffffffffffffffffffff16815260200190815260200160002060009054906101000a900460ff16905092915050565b6121ed6125ff565b73ffffffffffffffffffffffffffffffffffffffff1661220b6118db565b73ffffffffffffffffffffffffffffffffffffffff1614612261576040517f08c379a000000000000000000000000000000000000000000000000000000000815260040161225890613f0f565b60405180910390fd5b60005b838390508110156123fc57600073ffffffffffffffffffffffffffffffffffffffff1684848381811061229a57612299614175565b5b90506020020160208101906122af9190613ae2565b73ffffffffffffffffffffffffffffffffffffffff161415612306576040517f08c379a00000000000000000000000000000000000000000000000000000000081526004016122fd906143b2565b60405180910390fd5b61237f826012600087878681811061232157612320614175565b5b90506020020160208101906123369190613ae2565b73ffffffffffffffffffffffffffffffffffffffff1673ffffffffffffffffffffffffffffffffffffffff16815260200190815260200160002054612b4890919063ffffffff16565b6012600086868581811061239657612395614175565b5b90506020020160208101906123ab9190613ae2565b73ffffffffffffffffffffffffffffffffffffffff1673ffffffffffffffffffffffffffffffffffffffff1681526020019081526020016000208190555080806123f490614265565b915050612264565b50505050565b61240a6125ff565b73ffffffffffffffffffffffffffffffffffffffff166124286118db565b73ffffffffffffffffffffffffffffffffffffffff161461247e576040517f08c379a000000000000000000000000000000000000000000000000000000000815260040161247590613f0f565b60405180910390fd5b600073ffffffffffffffffffffffffffffffffffffffff168173ffffffffffffffffffffffffffffffffffffffff1614156124ee576040517f08c379a00000000000000000000000000000000000000000000000000000000081526004016124e590614928565b60405180910390fd5b6124f781612d3b565b50565b6125026125ff565b73ffffffffffffffffffffffffffffffffffffffff166125206118db565b73ffffffffffffffffffffffffffffffffffffffff1614612576576040517f08c379a000000000000000000000000000000000000000000000000000000000815260040161256d90613f0f565b60405180910390fd5b60004790508173ffffffffffffffffffffffffffffffffffffffff166108fc829081150290604051600060405180830381858888f193505050501580156125c1573d6000803e3d6000fd5b507fdd14374458d4625d231f09a9f173ecc29d3953e238011f5ff6d06e94ac6b2bcd82826040516125f3929190614948565b60405180910390a15050565b600033905090565b60007f80ac58cd000000000000000000000000000000000000000000000000000000007bffffffffffffffffffffffffffffffffffffffffffffffffffffffff1916827bffffffffffffffffffffffffffffffffffffffffffffffffffffffff191614806126d257507f5b5e139f000000000000000000000000000000000000000000000000000000007bffffffffffffffffffffffffffffffffffffffffffffffffffffffff1916827bffffffffffffffffffffffffffffffffffffffffffffffffffffffff1916145b806126e257506126e18261312b565b5b9050919050565b60008073ffffffffffffffffffffffffffffffffffffffff166002600084815260200190815260200160002060009054906101000a900473ffffffffffffffffffffffffffffffffffffffff1673ffffffffffffffffffffffffffffffffffffffff1614159050919050565b816004600083815260200190815260200160002060006101000a81548173ffffffffffffffffffffffffffffffffffffffff021916908373ffffffffffffffffffffffffffffffffffffffff160217905550808273ffffffffffffffffffffffffffffffffffffffff166127c8836115ce565b73ffffffffffffffffffffffffffffffffffffffff167f8c5be1e5ebec7d5bd14f71427d1e84f3dd0314c0f7b2291e5b200ac8c7c3b92560405160405180910390a45050565b6000612819826126e9565b612858576040517f08c379a000000000000000000000000000000000000000000000000000000000815260040161284f906149e3565b60405180910390fd5b6000612863836115ce565b90508073ffffffffffffffffffffffffffffffffffffffff168473ffffffffffffffffffffffffffffffffffffffff1614806128d257508373ffffffffffffffffffffffffffffffffffffffff166128ba84610a95565b73ffffffffffffffffffffffffffffffffffffffff16145b806128e357506128e28185612151565b5b91505092915050565b8273ffffffffffffffffffffffffffffffffffffffff1661290c826115ce565b73ffffffffffffffffffffffffffffffffffffffff1614612962576040517f08c379a000000000000000000000000000000000000000000000000000000000815260040161295990614a75565b60405180910390fd5b600073ffffffffffffffffffffffffffffffffffffffff168273ffffffffffffffffffffffffffffffffffffffff1614156129d2576040517f08c379a00000000000000000000000000000000000000000000000000000000081526004016129c990614b07565b60405180910390fd5b6129dd838383613195565b6129e8600082612755565b6001600360008573ffffffffffffffffffffffffffffffffffffffff1673ffffffffffffffffffffffffffffffffffffffff1681526020019081526020016000206000828254612a389190614b27565b925050819055506001600360008473ffffffffffffffffffffffffffffffffffffffff1673ffffffffffffffffffffffffffffffffffffffff1681526020019081526020016000206000828254612a8f9190614b5b565b92505081905550816002600083815260200190815260200160002060006101000a81548173ffffffffffffffffffffffffffffffffffffffff021916908373ffffffffffffffffffffffffffffffffffffffff160217905550808273ffffffffffffffffffffffffffffffffffffffff168473ffffffffffffffffffffffffffffffffffffffff167fddf252ad1be2c89b69c2b068fc378daa952ba7f163c4a11628f55a4df523b3ef60405160405180910390a4505050565b60008183612b569190614b5b565b905092915050565b612b67336131a5565b15612ba7576040517f08c379a0000000000000000000000000000000000000000000000000000000008152600401612b9e90614c23565b60405180910390fd5b61270f612bc76001612bb9600a6131b8565b612b4890919063ffffffff16565b1115612c08576040517f08c379a0000000000000000000000000000000000000000000000000000000008152600401612bff90614c8f565b60405180910390fd5b6000600f5411612c4d576040517f08c379a0000000000000000000000000000000000000000000000000000000008152600401612c4490614cfb565b60405180910390fd5b6000612c59600a6131b8565b9050612c6533826131c6565b612c6f600a6131e4565b612c856001600e54612b4890919063ffffffff16565b600e819055506000612c96826131fa565b90508060106000848152602001908152602001600020819055507f30385c845b448a36257a6a1716e6ad2e1bc2cbe333cde1e69fe849ad6511adfe336001604051612ce2929190614d60565b60405180910390a161270f600e5410612d21576003600b60006101000a81548160ff02191690836003811115612d1b57612d1a613f2f565b5b02179055505b5050565b60008183612d339190614b27565b905092915050565b6000600760009054906101000a900473ffffffffffffffffffffffffffffffffffffffff16905081600760006101000a81548173ffffffffffffffffffffffffffffffffffffffff021916908373ffffffffffffffffffffffffffffffffffffffff1602179055508173ffffffffffffffffffffffffffffffffffffffff168173ffffffffffffffffffffffffffffffffffffffff167f8be0079c531659141344cd1fd0a4f28419497f9722a3daafe3b4186f6b6457e060405160405180910390a35050565b8173ffffffffffffffffffffffffffffffffffffffff168373ffffffffffffffffffffffffffffffffffffffff161415612e70576040517f08c379a0000000000000000000000000000000000000000000000000000000008152600401612e6790614dd5565b60405180910390fd5b80600560008573ffffffffffffffffffffffffffffffffffffffff1673ffffffffffffffffffffffffffffffffffffffff16815260200190815260200160002060008473ffffffffffffffffffffffffffffffffffffffff1673ffffffffffffffffffffffffffffffffffffffff16815260200190815260200160002060006101000a81548160ff0219169083151502179055508173ffffffffffffffffffffffffffffffffffffffff168373ffffffffffffffffffffffffffffffffffffffff167f17307eab39ab6107e8899845ad3d59bd9653f200f220920489ca2b5937696c3183604051612f6191906137b5565b60405180910390a3505050565b612f798484846128ec565b612f8584848484613245565b612fc4576040517f08c379a0000000000000000000000000000000000000000000000000000000008152600401612fbb90614e67565b60405180910390fd5b50505050565b60606000821415613012576040518060400160405280600181526020017f30000000000000000000000000000000000000000000000000000000000000008152509050613126565b600082905060005b6000821461304457808061302d90614265565b915050600a8261303d9190614eb6565b915061301a565b60008167ffffffffffffffff8111156130605761305f613beb565b5b6040519080825280601f01601f1916602001820160405280156130925781602001600182028036833780820191505090505b5090505b6000851461311f576001826130ab9190614b27565b9150600a856130ba9190614ee7565b60306130c69190614b5b565b60f81b8183815181106130dc576130db614175565b5b60200101907effffffffffffffffffffffffffffffffffffffffffffffffffffffffffffff1916908160001a905350600a856131189190614eb6565b9450613096565b8093505050505b919050565b60007f01ffc9a7000000000000000000000000000000000000000000000000000000007bffffffffffffffffffffffffffffffffffffffffffffffffffffffff1916827bffffffffffffffffffffffffffffffffffffffffffffffffffffffff1916149050919050565b6131a08383836133cd565b505050565b600080823b905060008111915050919050565b600081600001549050919050565b6131e08282604051806020016040528060008152506133d2565b5050565b6001816000016000828254019250508190555050565b600080444243856040516020016132149493929190614f39565b6040516020818303038152906040528051906020012060001c90506009548161323d9190614ee7565b915050919050565b60006132668473ffffffffffffffffffffffffffffffffffffffff166131a5565b156133c0578373ffffffffffffffffffffffffffffffffffffffff1663150b7a0261328f6125ff565b8786866040518563ffffffff1660e01b81526004016132b19493929190614fdc565b6020604051808303816000875af19250505080156132ed57506040513d601f19601f820116820180604052508101906132ea919061503d565b60015b613370573d806000811461331d576040519150601f19603f3d011682016040523d82523d6000602084013e613322565b606091505b50600081511415613368576040517f08c379a000000000000000000000000000000000000000000000000000000000815260040161335f90614e67565b60405180910390fd5b805181602001fd5b63150b7a0260e01b7bffffffffffffffffffffffffffffffffffffffffffffffffffffffff1916817bffffffffffffffffffffffffffffffffffffffffffffffffffffffff1916149150506133c5565b600190505b949350505050565b505050565b6133dc838361342d565b6133e96000848484613245565b613428576040517f08c379a000000000000000000000000000000000000000000000000000000000815260040161341f90614e67565b60405180910390fd5b505050565b600073ffffffffffffffffffffffffffffffffffffffff168273ffffffffffffffffffffffffffffffffffffffff16141561349d576040517f08c379a0000000000000000000000000000000000000000000000000000000008152600401613494906150b6565b60405180910390fd5b6134a6816126e9565b156134e6576040517f08c379a00000000000000000000000000000000000000000000000000000000081526004016134dd90615122565b60405180910390fd5b6134f260008383613195565b6001600360008473ffffffffffffffffffffffffffffffffffffffff1673ffffffffffffffffffffffffffffffffffffffff16815260200190815260200160002060008282546135429190614b5b565b92505081905550816002600083815260200190815260200160002060006101000a81548173ffffffffffffffffffffffffffffffffffffffff021916908373ffffffffffffffffffffffffffffffffffffffff160217905550808273ffffffffffffffffffffffffffffffffffffffff16600073ffffffffffffffffffffffffffffffffffffffff167fddf252ad1be2c89b69c2b068fc378daa952ba7f163c4a11628f55a4df523b3ef60405160405180910390a45050565b82805461360790613f8d565b90600052602060002090601f0160209004810192826136295760008555613670565b82601f1061364257805160ff1916838001178555613670565b82800160010185558215613670579182015b8281111561366f578251825591602001919060010190613654565b5b50905061367d9190613681565b5090565b5b8082111561369a576000816000905550600101613682565b5090565b6000604051905090565b600080fd5b600080fd5b6000819050919050565b6136c5816136b2565b81146136d057600080fd5b50565b6000813590506136e2816136bc565b92915050565b6000602082840312156136fe576136fd6136a8565b5b600061370c848285016136d3565b91505092915050565b60007fffffffff0000000000000000000000000000000000000000000000000000000082169050919050565b61374a81613715565b811461375557600080fd5b50565b60008135905061376781613741565b92915050565b600060208284031215613783576137826136a8565b5b600061379184828501613758565b91505092915050565b60008115159050919050565b6137af8161379a565b82525050565b60006020820190506137ca60008301846137a6565b92915050565b600081519050919050565b600082825260208201905092915050565b60005b8381101561380a5780820151818401526020810190506137ef565b83811115613819576000848401525b50505050565b6000601f19601f8301169050919050565b600061383b826137d0565b61384581856137db565b93506138558185602086016137ec565b61385e8161381f565b840191505092915050565b600060208201905081810360008301526138838184613830565b905092915050565b600073ffffffffffffffffffffffffffffffffffffffff82169050919050565b60006138b68261388b565b9050919050565b6138c6816138ab565b82525050565b60006020820190506138e160008301846138bd565b92915050565b6138f0816138ab565b81146138fb57600080fd5b50565b60008135905061390d816138e7565b92915050565b6000806040838503121561392a576139296136a8565b5b6000613938858286016138fe565b9250506020613949858286016136d3565b9150509250929050565b600080fd5b600080fd5b600080fd5b60008083601f84011261397857613977613953565b5b8235905067ffffffffffffffff81111561399557613994613958565b5b6020830191508360208202830111156139b1576139b061395d565b5b9250929050565b600080602083850312156139cf576139ce6136a8565b5b600083013567ffffffffffffffff8111156139ed576139ec6136ad565b5b6139f985828601613962565b92509250509250929050565b600080600060608486031215613a1e57613a1d6136a8565b5b6000613a2c868287016138fe565b9350506020613a3d868287016138fe565b9250506040613a4e868287016136d3565b9150509250925092565b600080600060408486031215613a7157613a706136a8565b5b600084013567ffffffffffffffff811115613a8f57613a8e6136ad565b5b613a9b86828701613962565b93509350506020613aae868287016136d3565b9150509250925092565b613ac1816136b2565b82525050565b6000602082019050613adc6000830184613ab8565b92915050565b600060208284031215613af857613af76136a8565b5b6000613b06848285016138fe565b91505092915050565b613b188161379a565b8114613b2357600080fd5b50565b600081359050613b3581613b0f565b92915050565b60008060408385031215613b5257613b516136a8565b5b6000613b60858286016138fe565b9250506020613b7185828601613b26565b9150509250929050565b6000613b868261388b565b9050919050565b613b9681613b7b565b8114613ba157600080fd5b50565b600081359050613bb381613b8d565b92915050565b600060208284031215613bcf57613bce6136a8565b5b6000613bdd84828501613ba4565b91505092915050565b600080fd5b7f4e487b7100000000000000000000000000000000000000000000000000000000600052604160045260246000fd5b613c238261381f565b810181811067ffffffffffffffff82111715613c4257613c41613beb565b5b80604052505050565b6000613c5561369e565b9050613c618282613c1a565b919050565b600067ffffffffffffffff821115613c8157613c80613beb565b5b613c8a8261381f565b9050602081019050919050565b82818337600083830152505050565b6000613cb9613cb484613c66565b613c4b565b905082815260208101848484011115613cd557613cd4613be6565b5b613ce0848285613c97565b509392505050565b600082601f830112613cfd57613cfc613953565b5b8135613d0d848260208601613ca6565b91505092915050565b60008060008060808587031215613d3057613d2f6136a8565b5b6000613d3e878288016138fe565b9450506020613d4f878288016138fe565b9350506040613d60878288016136d3565b925050606085013567ffffffffffffffff811115613d8157613d806136ad565b5b613d8d87828801613ce8565b91505092959194509250565b600067ffffffffffffffff821115613db457613db3613beb565b5b613dbd8261381f565b9050602081019050919050565b6000613ddd613dd884613d99565b613c4b565b905082815260208101848484011115613df957613df8613be6565b5b613e04848285613c97565b509392505050565b600082601f830112613e2157613e20613953565b5b8135613e31848260208601613dca565b91505092915050565b600060208284031215613e5057613e4f6136a8565b5b600082013567ffffffffffffffff811115613e6e57613e6d6136ad565b5b613e7a84828501613e0c565b91505092915050565b60008060408385031215613e9a57613e996136a8565b5b6000613ea8858286016138fe565b9250506020613eb9858286016138fe565b9150509250929050565b7f4f776e61626c653a2063616c6c6572206973206e6f7420746865206f776e6572600082015250565b6000613ef96020836137db565b9150613f0482613ec3565b602082019050919050565b60006020820190508181036000830152613f2881613eec565b9050919050565b7f4e487b7100000000000000000000000000000000000000000000000000000000600052602160045260246000fd5b7f4e487b7100000000000000000000000000000000000000000000000000000000600052602260045260246000fd5b60006002820490506001821680613fa557607f821691505b60208210811415613fb957613fb8613f5e565b5b50919050565b7f4552433732313a20617070726f76656420717565727920666f72206e6f6e657860008201527f697374656e7420746f6b656e0000000000000000000000000000000000000000602082015250565b600061401b602c836137db565b915061402682613fbf565b604082019050919050565b6000602082019050818103600083015261404a8161400e565b9050919050565b7f4552433732313a20617070726f76616c20746f2063757272656e74206f776e6560008201527f7200000000000000000000000000000000000000000000000000000000000000602082015250565b60006140ad6021836137db565b91506140b882614051565b604082019050919050565b600060208201905081810360008301526140dc816140a0565b9050919050565b7f4552433732313a20617070726f76652063616c6c6572206973206e6f74206f7760008201527f6e6572206e6f7220617070726f76656420666f7220616c6c0000000000000000602082015250565b600061413f6038836137db565b915061414a826140e3565b604082019050919050565b6000602082019050818103600083015261416e81614132565b9050919050565b7f4e487b7100000000000000000000000000000000000000000000000000000000600052603260045260246000fd5b7f4d6573736167653a2043616e27742072656d6f76652061207a65726f2061646460008201527f7265737300000000000000000000000000000000000000000000000000000000602082015250565b60006142006024836137db565b915061420b826141a4565b604082019050919050565b6000602082019050818103600083015261422f816141f3565b9050919050565b7f4e487b7100000000000000000000000000000000000000000000000000000000600052601160045260246000fd5b6000614270826136b2565b91507fffffffffffffffffffffffffffffffffffffffffffffffffffffffffffffffff8214156142a3576142a2614236565b5b600182019050919050565b7f4552433732313a207472616e736665722063616c6c6572206973206e6f74206f60008201527f776e6572206e6f7220617070726f766564000000000000000000000000000000602082015250565b600061430a6031836137db565b9150614315826142ae565b604082019050919050565b60006020820190508181036000830152614339816142fd565b9050919050565b7f4d6573736167653a2043616e2774206164642061207a65726f2061646472657360008201527f7300000000000000000000000000000000000000000000000000000000000000602082015250565b600061439c6021836137db565b91506143a782614340565b604082019050919050565b600060208201905081810360008301526143cb8161438f565b9050919050565b7f50726573616c65206973206e6f74206163746976652e00000000000000000000600082015250565b60006144086016836137db565b9150614413826143d2565b602082019050919050565b60006020820190508181036000830152614437816143fb565b9050919050565b7f5468652077616c6c65742061646472657373206973206e6f7420616c6c6f776560008201527f6420746f206d696e74204365726f732e00000000000000000000000000000000602082015250565b600061449a6030836137db565b91506144a58261443e565b604082019050919050565b600060208201905081810360008301526144c98161448d565b9050919050565b7f45746865722076616c75652073656e7420697320696e636f72726563742e0000600082015250565b6000614506601e836137db565b9150614511826144d0565b602082019050919050565b60006020820190508181036000830152614535816144f9565b9050919050565b7f4d696e74206973206e6f74206163746976652e00000000000000000000000000600082015250565b60006145726013836137db565b915061457d8261453c565b602082019050919050565b600060208201905081810360008301526145a181614565565b9050919050565b7f4552433732313a206f776e657220717565727920666f72206e6f6e657869737460008201527f656e7420746f6b656e0000000000000000000000000000000000000000000000602082015250565b60006146046029836137db565b915061460f826145a8565b604082019050919050565b60006020820190508181036000830152614633816145f7565b9050919050565b7f4552433732313a2062616c616e636520717565727920666f7220746865207a6560008201527f726f206164647265737300000000000000000000000000000000000000000000602082015250565b6000614696602a836137db565b91506146a18261463a565b604082019050919050565b600060208201905081810360008301526146c581614689565b9050919050565b600081905092915050565b50565b60006146e76000836146cc565b91506146f2826146d7565b600082019050919050565b6000614708826146da565b9150819050919050565b7f4661696c656420746f2073656e64204574686572000000000000000000000000600082015250565b60006147486014836137db565b915061475382614712565b602082019050919050565b600060208201905081810360008301526147778161473b565b9050919050565b7f4d696e74206973206e6f7420617661696c61626c652e00000000000000000000600082015250565b60006147b46016836137db565b91506147bf8261477e565b602082019050919050565b600060208201905081810360008301526147e3816147a7565b9050919050565b600081905092915050565b6000614800826137d0565b61480a81856147ea565b935061481a8185602086016137ec565b80840191505092915050565b600061483282856147f5565b915061483e82846147f5565b91508190509392505050565b7f53616c65206973206e6f74206163746976652e00000000000000000000000000600082015250565b60006148806013836137db565b915061488b8261484a565b602082019050919050565b600060208201905081810360008301526148af81614873565b9050919050565b7f4f776e61626c653a206e6577206f776e657220697320746865207a65726f206160008201527f6464726573730000000000000000000000000000000000000000000000000000602082015250565b60006149126026836137db565b915061491d826148b6565b604082019050919050565b6000602082019050818103600083015261494181614905565b9050919050565b600060408201905061495d60008301856138bd565b61496a6020830184613ab8565b9392505050565b7f4552433732313a206f70657261746f7220717565727920666f72206e6f6e657860008201527f697374656e7420746f6b656e0000000000000000000000000000000000000000602082015250565b60006149cd602c836137db565b91506149d882614971565b604082019050919050565b600060208201905081810360008301526149fc816149c0565b9050919050565b7f4552433732313a207472616e73666572206f6620746f6b656e2074686174206960008201527f73206e6f74206f776e0000000000000000000000000000000000000000000000602082015250565b6000614a5f6029836137db565b9150614a6a82614a03565b604082019050919050565b60006020820190508181036000830152614a8e81614a52565b9050919050565b7f4552433732313a207472616e7366657220746f20746865207a65726f2061646460008201527f7265737300000000000000000000000000000000000000000000000000000000602082015250565b6000614af16024836137db565b9150614afc82614a95565b604082019050919050565b60006020820190508181036000830152614b2081614ae4565b9050919050565b6000614b32826136b2565b9150614b3d836136b2565b925082821015614b5057614b4f614236565b5b828203905092915050565b6000614b66826136b2565b9150614b71836136b2565b9250827fffffffffffffffffffffffffffffffffffffffffffffffffffffffffffffffff03821115614ba657614ba5614236565b5b828201905092915050565b7f436f6e74726163747320617265206e6f7420616c6c6f77656420746f206d696e60008201527f74204365726f732e000000000000000000000000000000000000000000000000602082015250565b6000614c0d6028836137db565b9150614c1882614bb1565b604082019050919050565b60006020820190508181036000830152614c3c81614c00565b9050919050565b7f4d617820737570706c79206f6620746f6b656e732065786365656465642e0000600082015250565b6000614c79601e836137db565b9150614c8482614c43565b602082019050919050565b60006020820190508181036000830152614ca881614c6c565b9050919050565b7f4e6f20746f6b656e7320617661696c61626c6520746f206d696e742e00000000600082015250565b6000614ce5601c836137db565b9150614cf082614caf565b602082019050919050565b60006020820190508181036000830152614d1481614cd8565b9050919050565b6000819050919050565b6000819050919050565b6000614d4a614d45614d4084614d1b565b614d25565b6136b2565b9050919050565b614d5a81614d2f565b82525050565b6000604082019050614d7560008301856138bd565b614d826020830184614d51565b9392505050565b7f4552433732313a20617070726f766520746f2063616c6c657200000000000000600082015250565b6000614dbf6019836137db565b9150614dca82614d89565b602082019050919050565b60006020820190508181036000830152614dee81614db2565b9050919050565b7f4552433732313a207472616e7366657220746f206e6f6e20455243373231526560008201527f63656976657220696d706c656d656e7465720000000000000000000000000000602082015250565b6000614e516032836137db565b9150614e5c82614df5565b604082019050919050565b60006020820190508181036000830152614e8081614e44565b9050919050565b7f4e487b7100000000000000000000000000000000000000000000000000000000600052601260045260246000fd5b6000614ec1826136b2565b9150614ecc836136b2565b925082614edc57614edb614e87565b5b828204905092915050565b6000614ef2826136b2565b9150614efd836136b2565b925082614f0d57614f0c614e87565b5b828206905092915050565b6000819050919050565b614f33614f2e826136b2565b614f18565b82525050565b6000614f458287614f22565b602082019150614f558286614f22565b602082019150614f658285614f22565b602082019150614f758284614f22565b60208201915081905095945050505050565b600081519050919050565b600082825260208201905092915050565b6000614fae82614f87565b614fb88185614f92565b9350614fc88185602086016137ec565b614fd18161381f565b840191505092915050565b6000608082019050614ff160008301876138bd565b614ffe60208301866138bd565b61500b6040830185613ab8565b818103606083015261501d8184614fa3565b905095945050505050565b60008151905061503781613741565b92915050565b600060208284031215615053576150526136a8565b5b600061506184828501615028565b91505092915050565b7f4552433732313a206d696e7420746f20746865207a65726f2061646472657373600082015250565b60006150a06020836137db565b91506150ab8261506a565b602082019050919050565b600060208201905081810360008301526150cf81615093565b9050919050565b7f4552433732313a20746f6b656e20616c7265616479206d696e74656400000000600082015250565b600061510c601c836137db565b9150615117826150d6565b602082019050919050565b6000602082019050818103600083015261513b816150ff565b905091905056fea264697066735822122082dfea17601874a7dd3637e6ccc033364dc9432857bdffe1f5d37afefb59fc8764736f6c634300080a0033",
  "immutableReferences": {},
  "source": "// SPDX-License-Identifier: ISC\npragma solidity >=0.8.0;\n\n\nimport \"@openzeppelin/contracts/utils/Counters.sol\";\nimport \"@openzeppelin/contracts/access/Ownable.sol\";\nimport \"@openzeppelin/contracts/utils/math/SafeMath.sol\";\nimport \"@openzeppelin/contracts/token/ERC721/ERC721.sol\";\nimport \"@openzeppelin/contracts/token/ERC721/extensions/ERC721URIStorage.sol\";\n\ncontract Cero is ERC721, ERC721URIStorage, Ownable {\n    using Counters for Counters.Counter;\n    using SafeMath for uint256;\n\n    string constant _name = \"Cero NFT\";\n    string constant _symbol = \"CRO\";\n\n    uint dnaDigits = 16;\n    uint dnaModulus = 10 ** dnaDigits;\n\n    enum State {\n        SetUp,\n        Presale,\n        Sale,\n        SoldOut\n    }\n\n    Counters.Counter private _tokenIds;\n    State private _state;\n    address private _owner;\n    string private _tokenUriBase;\n    uint256 public constant MAX_CEROS = 9999;\n    uint256 private CERO_PRICE_IN_WEI = 50000000000000000; // 0.05 ETH\n    uint256 public totalMinted = 0;\n    uint256 public availableTokensMint = 0;\n\n    mapping(uint256 => uint256) private _cerosDna;\n    mapping(address => uint256) private _whiteList;\n    mapping(address => uint256) private _airdrops;\n\n    event Minted(address minter, uint256 amount);\n    event BalanceWithdrawed(address recipient, uint256 value);\n\n\n    constructor() ERC721(_name, _symbol) {\n        _owner = msg.sender;\n        _state = State.SetUp;\n    }\n\n    function updateMintPrice(uint256 __price) external onlyOwner {\n        CERO_PRICE_IN_WEI = __price;\n    }\n\n    function mintPrice() external view returns (uint256) {\n        return CERO_PRICE_IN_WEI;\n    }\n\n    function addQuantityToMint(uint256 __quantity) public onlyOwner {\n        availableTokensMint = __quantity;\n    }\n\n    function updateOwner(address __owner) public onlyOwner {\n        _owner = __owner;\n    }\n\n    function tokenURI(uint256 tokenId) public view override(ERC721, ERC721URIStorage) returns (string memory) {\n        return string(abi.encodePacked(baseTokenURI(), Strings.toString(tokenId)));\n    }\n\n    function baseTokenURI() public view virtual returns (string memory) {\n        return _tokenUriBase;\n    }\n\n    function setTokenURI(string memory tokenUriBase_) public onlyOwner {\n        _tokenUriBase = tokenUriBase_;\n    }\n\n    function setStateToSetup() public onlyOwner {\n        _state = State.SetUp;\n    }\n    \n    function startPresale() public onlyOwner {\n        _state = State.Presale;\n    }\n\n    function setStateToSale() public onlyOwner {\n        _state = State.Sale;\n    }\n    \n    function setStateToSoldOut() public onlyOwner {\n        _state = State.SoldOut;\n    }\n\n    function addToPresaleList(address[] calldata _addresses, uint quantity) external onlyOwner {\n        for (uint256 ind = 0; ind < _addresses.length; ind++) {\n            require(_addresses[ind] != address(0), \"Message: Can't add a zero address\");\n            _whiteList[_addresses[ind]] = _whiteList[_addresses[ind]].add(quantity);\n        }\n    }\n\n    function isOnPresaleList(address _address) external view returns (bool) {\n        return _whiteList[_address] > 0;\n    }\n\n    function removeFromPresaleList(address[] calldata _addresses) external onlyOwner {\n        for (uint256 ind = 0; ind < _addresses.length; ind++) {\n            require(_addresses[ind] != address(0), \"Message: Can't remove a zero address\");\n            _whiteList[_addresses[ind]] = 0;\n        }\n    }\n\n    function addAirdrop(address[] calldata _addresses, uint quantity) external onlyOwner {\n        for (uint256 ind = 0; ind < _addresses.length; ind++) {\n            require(_addresses[ind] != address(0), \"Message: Can't add a zero address\");\n            _airdrops[_addresses[ind]] = _airdrops[_addresses[ind]].add(quantity);\n        }\n    }\n    \n    function hasAirdrop(address _address) external view returns (bool) {\n        return _airdrops[_address] > 0;\n    }\n\n    function removeAirdrop(address[] calldata _addresses) external onlyOwner {\n        for (uint256 ind = 0; ind < _addresses.length; ind++) {\n            require(_addresses[ind] != address(0), \"Message: Can't remove a zero address\");\n            _airdrops[_addresses[ind]] = 0;\n        }\n    }\n\n    function claimAirdrop() external {\n        require(_state != State.SoldOut, \"Mint is not active.\");\n        require(_airdrops[msg.sender] > 0, \"The wallet address is not allowed to mint Ceros.\");\n        for (uint256 ind = 0; ind < _airdrops[msg.sender]; ind++) {\n            mint();\n        }\n       _airdrops[msg.sender] = 0;\n    }\n    \n    function presaleMint() external payable {\n        require(_state == State.Presale, \"Presale is not active.\");\n        require(_whiteList[msg.sender] > 0, \"The wallet address is not allowed to mint Ceros.\");\n        require(msg.value >= CERO_PRICE_IN_WEI, \"Ether value sent is incorrect.\");\n        mint();\n        _whiteList[msg.sender] = _whiteList[msg.sender].sub(1);\n    }\n\n    function ownerMint() external payable onlyOwner {\n        require(_state != State.SoldOut, \"Mint is not available.\");\n        require(msg.value >= CERO_PRICE_IN_WEI, \"Ether value sent is incorrect.\");\n        mint();\n    }\n\n    function saleMint() external payable {\n        require(_state == State.Sale, \"Sale is not active.\");\n        require(msg.value >= CERO_PRICE_IN_WEI, \"Ether value sent is incorrect.\");\n        mint();\n    }\n\n    function mint() internal {\n        require(!Address.isContract(msg.sender), \"Contracts are not allowed to mint Ceros.\");\n        require(_tokenIds.current().add(1) <= MAX_CEROS, \"Max supply of tokens exceeded.\");\n        require(availableTokensMint > 0, \"No tokens available to mint.\");\n        uint256 newTokenId = _tokenIds.current();\n        _safeMint(msg.sender, newTokenId);\n        _tokenIds.increment();\n        totalMinted = totalMinted.add(1);\n\n        uint dna = _generateCeroDna(newTokenId);\n        _cerosDna[newTokenId] = dna;\n        emit Minted(msg.sender, 1);\n        if (totalMinted >= MAX_CEROS) {\n            _state = State.SoldOut;\n        }\n    }\n\n    function _generateCeroDna(uint256 id) private view returns (uint) {\n        uint rand = uint(keccak256(abi.encodePacked(block.difficulty, block.timestamp, block.number, id)));\n        return rand % dnaModulus;\n    }\n\n    function withdrawAll(address recipient) public onlyOwner {\n        uint256 balance = address(this).balance;\n        payable(recipient).transfer(balance);\n        emit BalanceWithdrawed(recipient, balance);\n    }\n\n    function withdrawAllViaCall(address payable _to) public onlyOwner {\n        uint256 balance = address(this).balance;\n        (bool sent, bytes memory data) = _to.call{value: balance}(\"\");\n        require(sent, \"Failed to send Ether\");\n    }\n\n    function _burn(uint256 tokenId) internal override(ERC721, ERC721URIStorage) {\n        super._burn(tokenId);\n    }\n\n    function _beforeTokenTransfer(address from, address to, uint256 tokenId) internal override(ERC721) {\n        super._beforeTokenTransfer(from, to, tokenId);\n    }\n    \n    function supportsInterface(bytes4 interfaceId) public view virtual override(ERC721) returns (bool) {\n        return super.supportsInterface(interfaceId);\n    }\n}\n\n//- whitelist sale\n//- nft on stored on blockchain\n//- minting for founder\n//- public sale\n//- minting for airdrop (specific number of nft)",
  "sourcePath": "/Users/nicolasballaman/Projects/cero-nft/contracts/Cero.sol",
  "compiler": {
    "name": "solc",
    "version": "0.8.10+commit.fc410830.Emscripten.clang"
  },
  "schemaVersion": "3.4.3",
  "updatedAt": "2021-12-28T23:29:33.144Z",
  "devdoc": {
    "kind": "dev",
    "methods": {
      "approve(address,uint256)": {
        "details": "See {IERC721-approve}."
      },
      "balanceOf(address)": {
        "details": "See {IERC721-balanceOf}."
      },
      "getApproved(uint256)": {
        "details": "See {IERC721-getApproved}."
      },
      "isApprovedForAll(address,address)": {
        "details": "See {IERC721-isApprovedForAll}."
      },
      "name()": {
        "details": "See {IERC721Metadata-name}."
      },
      "owner()": {
        "details": "Returns the address of the current owner."
      },
      "ownerOf(uint256)": {
        "details": "See {IERC721-ownerOf}."
      },
      "renounceOwnership()": {
        "details": "Leaves the contract without owner. It will not be possible to call `onlyOwner` functions anymore. Can only be called by the current owner. NOTE: Renouncing ownership will leave the contract without an owner, thereby removing any functionality that is only available to the owner."
      },
      "safeTransferFrom(address,address,uint256)": {
        "details": "See {IERC721-safeTransferFrom}."
      },
      "safeTransferFrom(address,address,uint256,bytes)": {
        "details": "See {IERC721-safeTransferFrom}."
      },
      "setApprovalForAll(address,bool)": {
        "details": "See {IERC721-setApprovalForAll}."
      },
      "supportsInterface(bytes4)": {
        "details": "See {IERC165-supportsInterface}."
      },
      "symbol()": {
        "details": "See {IERC721Metadata-symbol}."
      },
      "transferFrom(address,address,uint256)": {
        "details": "See {IERC721-transferFrom}."
      },
      "transferOwnership(address)": {
        "details": "Transfers ownership of the contract to a new account (`newOwner`). Can only be called by the current owner."
      }
    },
    "version": 1
  },
  "userdoc": {
    "kind": "user",
    "methods": {},
    "version": 1
  }
}